:100000000C94C20A0C94FA0A0C94FA0A0C94D23397
:100010000C94FA0A0C94FA0A0C94FA0A0C94FA0A50
:100020000C94FA0A0C94FA0A0C9442190C94451D8B
:100030000C94662E0C94FA0A0C94FA0A0C94FA0AA0
:100040000C94FA0A0C94FA0A0C94FA0A0C94FA0A20
:100050000C94FA0A0C941B1A0C94FA0A0C94FA0ADF
:100060000C94FA0A0C94FA0A0C94FA0A0C94FA0A00
:100070000C94FA0A0C94FA0A0C94FA0A0C94FA0AF0
:100080000C94FA0A0C94FA0A0C94FA0A0C94FA0AE0
:100090000C94FA0A0C94FA0A0C94FA0A0C94FA0AD0
:1000A0000C94FA0A0C94FA0A0C94FA0A2C002B000D
:1000B000000027022D02000027002D000000AD00E7
:1000C000AE000000D200D100000028002A0000008D
:1000D0002C442B45000028482A47000005010980D0
:1000E000A101850319012AB700150126B700950162
:1000F00075108100C0050C0901A101850419012AB0
:10010000A002150126A002950175108100C005010D
:100110000902A1010901A100050919012908150019
:100120002501950875018102050109300931158104
:10013000257F95027508810609381581257F95016F
:1001400075088106050C0A38021581257F95017511
:10015000088106C0C005010906A101050719E029AB
:10016000E715002501950875018102950175088143
:10017000010507190029FF150026FF0095067508DF
:100180008100050819012905950575019102950160
:1001900075039101C014001A00080015001700042F
:1001A000281624072109220A001D431B34060019C2
:1001B0000005002B45000029462C440000130012C6
:1001C000000C0018001C0034280F240E210D220BF7
:1001D0000038433734360010001100284800002A48
:1001E000474C49000014001A0008001500170004CD
:1001F000281624072109220A001D431B3406001972
:100200000005002B45000029462C44000013001275
:10021000000C0018001C0034280F240E210D220BA6
:100220000038433734360010001100284800002AF7
:10023000474C49000014001A00080015001700047C
:10024000001600070009000A001D001B0006001927
:100250000005002B00000029002C000000130012F4
:10026000000C0018001C0034000F000E000D000BE5
:100270000038003700360010001100280000002A66
:10028000004C0000007A004C02490149027900E369
:1002900000E200E000E10000007A004C0249014960
:1002A000027900D2000000D300D10000007A004C97
:1002B00002490149027900E300E200E000E10000A8
:1002C000007A004C02490149027900D2000000D1B5
:1002D00000D300000000570357025701570000E306
:1002E00000E200E000E10000000000E60008570521
:1002F000570000000000000000000000007A004CE1
:1003000002490149027900737C4F005200510050AC
:100310000049004D004B004E004A00280000002A12
:10032000004C00000000570357025701570000E33C
:1003300000E200E000E10000000000E600095706CE
:10034000570000000000000000000000007A004C90
:10035000024901490279000000D000CD00CE00CF53
:10036000000000DC00D900DA00DB00D2000000D180
:1003700000D300000000570357025701570000E365
:1003800000E200E000E10000000000E6000A57077C
:100390005700000000000000000000000020782747
:1003A000782578237821780000AB00A900AA00AC5A
:1003B00000207C0000000000000000AD000000AE46
:1003C00000A80000002F0024002500260030003384
:1003D000002100220023002E0035001E001F0020F7
:1003E0000031002D000000370027000000005703F7
:1003F00057025701570000E300E200E000E100006F
:10040000000000E60005570857000000000000004B
:1004100000000000002F02240225022602300233D1
:10042000022102220223022E0235021E021F022096
:100430000231022D020000260227020000005703AD
:1004400057025701570000E300E200E000E100001E
:10045000000000E6000657095700000000000000F9
:1004600000000000004500400041004200460044FA
:10047000003D003E003F00470043003A003B003C87
:100480000048002B00000065002C0000000057030E
:1004900057025701570000E300E200E000E10000CE
:1004A000000000E60007570A5700000000000000A7
:1004B000000000000001048E966E773EFE7E5F1DF8
:1004C000B8F2664EFF5D19B0C20469542AD62EBF39
:1004D000DD19B0C3E529B1E023A5A9B1C100826748
:1004E0004C1A978D795120C7068E7C7C7A764FFD09
:1004F0005930E2460E9EBEDF1D9991A0A5A1A9D05C
:1005000022C6EF5C1B958990A2A7CCFB5528B3E4CB
:100510004AF76C3BF46A562EDE1F9DB8D3058892CD
:10052000A6CE1EBEDF1D99B0E246EF5C07115D98B6
:100530000B9D9497EE4E45336B44C729562730C622
:10054000A7D5F256DFB43862CBA0B6E30F840624F9
:1005500005656F7689B577412782666582CCD5E6D9
:1005600020D52717C5F803237C5F64A51DC1D636A7
:10057000CB4CD4DB66D78BB1997E6F4C364006D618
:10058000EBD7A2E4F495515A5496D55344D78CE056
:10059000B94068D218E9DD9A239248EE7F43AFEA6A
:1005A0007738848C0A72AF69F8DDF12483A3F84AA6
:1005B000BFF59413DBBBD8B4B3A0FB4550603059F2
:1005C000123171A2D313E7FAE7CE0F63150B6B94C8
:1005D000BB378326059DFB4692FC0A15D10D73920D
:1005E000D68C1B8CB8558ACEBDFE8EFCED091283CD
:1005F0009182513123FBB40C76AD7CD9B44BB267F8
:1006000014099C7F0C18BA3BD68E142AE41B529F07
:100610002B7DE1FB6A3302FAAC5AF23E887EAED102
:10062000F378E805D1E3DC21F6E19ABD170ED9464F
:100630009B8803EAF666BE0E1B5049964097F1F17F
:10064000E480A66EE87734BF294044C2FF4E98D3B9
:100650009CA3322B76510409E7A9D1A632B12353CA
:10066000E247ABD6F5695C3E5FFAAE4520E5D24481
:10067000FF39326DFD27575CFDF0DEC1B599E5F518
:100680001C770175C56D5892F2B247000126967A23
:1006900030FFB7F0EF77C18A5DDCC0D129301E771B
:1006A000387A94F1B87A7EEFA4D1AC314AF25D6425
:1006B0003DB2E2F00899FC70EE24A77EEE1E2069A0
:1006C0007D44BF8742DF883B0CDA42C904F94550BC
:1006D000FC838F116A72BC9995F0AC3DA73BCD1C91
:1006E000E2887937115F3989950A16847AF68AA4E7
:1006F00028E4ED83803BB123A50310F466EABB0C2C
:100700000FC5EC6C69C5D324ABD42AB79988760899
:10071000A0A8957CD8386DCD5902514BF1B52B501E
:10072000E3B6BDD072CF9EFD6EBB44C8248A771855
:100730008A1306EF977DFA81F031E6FA77ED3106FC
:10074000315B548A9F3068DBE240F84E73FAAB7439
:100750008B105813DCD2E678D1322E8A9F2C5806A3
:100760004827C5A95E8147894621910370A43E8828
:100770009CDA330ACEBC8B8ECF9FD3718043CF6B74
:10078000A95183763082C56A853911501A82DC1EE0
:100790001CD57DA9719933471997B35AB1DFEDA4E0
:1007A000F2E62684A2289A9EDFA66AF4D6FC2E5B87
:1007B0009D1A2A2768FBC183214B90E036DD5B310F
:1007C0004255A013F7D089537199570929C5F321D0
:1007D000F8372F40F3D4AF16083602FC77C58B04E8
:1007E0009056B9C9679A99E800D386FF972D08E912
:1007F000B7B391BCDF45C6ED0F8C4C1EE65B6E387F
:1008000030E4AAE395DEB9E49AF5B2559A879BF6EF
:100810006AB2F2779A31F47A31D11D04C07C32A2E7
:100820009E9AF562F8278DBF51FFD3DF64373F2AC8
:100830006F763A7D77069E777F5EEB3251F91666CA
:100840009A09F3B008A470964630FFDA4FE91BED21
:100850008DF8741F3192B3731736DB9130D68855FB
:100860006B3477877AE7EE06C61C8C190C48462352
:100870005E9C075CBFB47ED64F749CE2C5508BC5AE
:100880008B159060625729D01343A1808891004452
:10089000C74D1986CC2F2A755AFCEB972A70E3783E
:1008A000D891B04F9907A395EA2421D5DE51209322
:1008B000270A3073A8FF8A97E9A76A8E0DE8F0DF50
:1008C000ECEAB46C1D392A622D3D5A8B65F890050F
:1008D0002E7E912C78EF8E7AC12FAC78EEAF284522
:1008E000064C26AF3BA2DBA39306B53CA5D8EE8F02
:1008F000AF25CC3F856848A962CC978F7F2AEAE074
:10090000150AAD6207BD45F841D836CB4CDB6EE623
:100910003AE7DA15E9291E1210A0142C0E3DF4BF97
:10092000394192750B257BA3CE399C1564C8FA3DDD
:10093000EF7327FE262ECEDA6EFD718EDDFE76EE8B
:10094000DC125C02C53A4E4E4FBFCA4015C76E8DD1
:1009500041F110E04F7E977F1CAE478E6BB1253181
:10096000B073C71B9779F980D366223007741EE4F1
:10097000D08021D6EE6B6C4FBFF5B7D909872FA970
:1009800014BE27D9725001D41373A6A7510275253E
:10099000E1B345347DA88EEBF31649CB4F8CA1B95A
:1009A000368539755D0800AEEBF6EAD7133A215A61
:1009B0005F3084522695C914F257556BB110C2E1CD
:1009C000BD3B51C0B7554C711226C70DF951A43823
:1009D00002057FB8F1724BBF718914F37738D97172
:1009E00024F30011A1D8D46927083735C9119D9087
:1009F0001C0EE71CFF2D1EE892E11810957CE0808C
:100A0000F4964321F975216438DD9F1E9516DA5658
:100A10001D4F9A53B2E2E418CB6B1A65EB56C63BF6
:100A2000E5FED8263F3A84597266A2F375FFFB6053
:100A3000B322AD3F2D6BF9EBEA057CD88F6D2C9876
:100A40009E2B93F15E46F08749297368D77FF9F0B2
:100A5000E57DDB1D7519F3C4589B1788A892E0BE8D
:100A6000BD8B1D8D9F5676ADAF29E2D9D552F6B517
:100A70005635573AC8E156431994D3049B6D35D87F
:100A80000B5F4D198EECFA64910A72202BBC1A4A46
:100A9000FE8BFDBBED1B23EAAD7282A1299971BDCE
:100AA000F095C103DD7BC2B23C2854D368A472C860
:100AB0006696E0D1D87FF8D1262BF7ADBA55CA1586
:100AC000B932C3E588978E5CFB92258BBFA2455552
:100AD0007AA76F8B575BCF0ECB1DFB208277A88C3C
:100AE000CC16CE1DFADECC0B62FECCE1B7F0C38192
:100AF000647340A0C24D8911753355338DE84AFDAA
:100B0000EA6E300BD7312CDE47E3BFF85542E27F67
:100B100059E517EF99346991B1238E20872DA8FEEE
:100B2000D58AF3843AF037E4090054EE674993E438
:100B30008170E3904DEFFE41B7997BC183BA621299
:100B40006F7DDE6BAFDA16F95551EEA60C2B02A3C2
:100B5000FD8DFB3017E46FDF3671C4CA872548B0BE
:100B600047ECEAB4BFA54D9B9F0293C4E3E4E8427F
:100B70002D6881150AEB845BD6A874FB7D1DCB2CF8
:100B8000DA462A7662CEBC5C9E8BE7CFBE78F57CD7
:100B9000EBB33A9CAA6FCC72D159F21123D63F48DD
:100BA000D1B7CEB0BFCBEA80DE57D45E972F75D1D8
:100BB000508E802C6679BF724BBD8A816CD3E10167
:100BC000DCD21526C536DA2C1AC02794EDB79B85E2
:100BD0000B5E8097C5EC4FEC885D50073547DC0B0A
:100BE0003B3DDD60AFA85D813824255D5C15D1DE1D
:100BF000B3ABEC0569EF83ED5754B864641116325A
:100C000069DA9F2D7F36BB445A34E87FBF03EB007F
:100C10007F59682279CF736C2C29A7A15F38A11D59
:100C2000F02053E01A6314587110AA080C3E161AEB
:100C30006022827FBAA443A0D0AC1BD56B64B514EC
:100C400093319E5350D05766EE5A4FFB032A695892
:100C500076F183F74EBA8C4206605D6DCE6088AE49
:100C6000A4C3F103A54B98A1FF67E1ACA2B862D77A
:100C70006FA031B4D277AF211006C69AFF1D0917B5
:100C80000E5FF1AA54344B458A8763A6DCF9243001
:100C900067C6B2D6613369EE50615728E77EEEEC45
:100CA0003A5A734EA88DE418EAEC4164C8E2E8664B
:100CB000B62DB6FB6A6C16B3DD4643B973006A7194
:100CC000ED4E9D251AC33C4A95159935811402D6DF
:100CD000989BECD8233B8429AF0C9983A69A344F78
:100CE000FAE8D03C4BD0FBB668B89E8FCDF7602DAC
:100CF0007A22E57DAB651B95A7A87FB677477B5F1A
:100D00008B1272D0D491EFDE19503CA78BC4A9B3DB
:100D100023CB76E681F0C1048FA3B8545B97AC195E
:100D2000FF3F55272FE01D429B57FC4B4E0FCE989F
:100D3000A9435703BDE7C894DF6E367332B4EF2E74
:100D4000857A6EFC6C188275359007F3E49F3EDC63
:100D500068F3B5F31980920699A2E86FFF2E7FAE73
:100D600042A45FFBD40E812BC304FF2BB3744E3619
:100D70005B9C1500C6472BE88B3DF19C039A587F7E
:100D80009B9CBF854979352E567B41143947832674
:100D9000AA078998111B86E7737AD87D786153E991
:100DA00079F5368D449284F91350583BA46A366520
:100DB000498E3C0EF16FD284C47E8E3F39AE7C8466
:100DC000F163378E3CCC3E448145F14BB9ED6B3637
:100DD0005DBB20601A0FA3AA55773AA9AE374DBA6A
:100DE000B8866BBC0850F6CCA4BD1D4072A586FA2F
:100DF000E210AE3D584B97F34374A99EEB21B70127
:100E0000A4869397EE2F4F3B86A1416F41269078A1
:100E10005C7F30384B3FAAECED5C6F0EAD4387FD35
:100E20009335E601EF412690999EFB195BADD29177
:100E30008AE046AF65FA4F84C1A12DCF458BD3859B
:100E400050557CF96788D44EE9D76B6154A1A4A6AC
:100E5000A2C2BF309C409F5FD7692B24825ED9D647
:100E6000A712541AF7559F7650A99584E66B6DB575
:100E70009654D6CDB3A19B46A7944DC494B498E3A1
:100E8000E1E234D533160754CDB77753DB4F4D46E7
:100E90009DE9D49C8A36B6B838266C0EFF9C1B435D
:100EA0008B80CCB93DDAC7F18AF26DB8D7742F7E4A
:100EB0001EB7D34AB4ACFC79486CBC96B69446577E
:100EC0002DB0A3FC1EB95260852D41D043011E1CDC
:100ED000D57DFCF3960DC7CB2A299A93DD882D3753
:100EE0005DAAFB4968A09C50867F685657F979181F
:100EF00039D4E001843361CAA5D2D6E4C98A4A2331
:100F0000444EBCF0DC24A1A0C4E2073C10C4B525CB
:100F10004B6563F480E7CF61B1718221872CF59135
:100F200000320CECA9B59A7485E3368F764F9C6D30
:100F3000CEBCAD0A4BED7604CBC3B9339E0193967C
:100F4000697DC5A245799B045C8409ED8843C7ABE4
:100F5000931426A140B5CE4EBF2A42853E2C3B5469
:100F6000E8121F0E9759B22789FAF2DF8E6859DC12
:100F700006BCB6850D0622ECB1CBE504E63DB3B068
:100F80004173083F3C588663EB50EE1D2C3774A923
:100F9000D318A3476E9354AD0A5DB82A555D78F611
:100FA000EEBE8E3C7669B940C234EC2AB9ED7E20A3
:100FB000E48D0038C7E68F44A886CEEB2AE990F18D
:100FC0004CDF32FB731B6D921E95FEB4DB65DF4D6B
:100FD00023548948BF4A2E70D6D762B43329B13A18
:100FE000334C236DA676A5216348E6905DED909580
:100FF0000B7A84BEB80D5E630C62264C145AB3ACF7
:1010000023A474A76F333005600142A028B7EE19FE
:1010100038F164808243E141271F1F90547AD52321
:101020002ED13DCB28BA587FDC7C9124E92851830E
:101030006EC5562142EDA05622A140806BA8F794C0
:10104000CA136B0C39D9FDE9F36FA69EFC708AB305
:10105000BC593C1E1D6CF97CAFF9887195EB5700AB
:10106000BD9F8C4FE12483C522EAFDD30CE2171803
:101070007C6A4CDE77B4539B4C81CD2360AA0E254D
:10108000739C02793230DF74DF7519F4A5145CF7B4
:101090007AA8A591847C6003063BCD50B6279CFEC0
:1010A000B1DDCCD3B05924B2CAE21C81229D078F96
:1010B0008EB9BE4EFAFC3965BABF9D12375E977E77
:1010C000F389F55DF5E3098C62B5209D0C538A68C0
:1010D0001BD28F75175DD4E5DA756219146A262D57
:1010E000EBF8AF37F06CA455B1BCE233C09ACAB08C
:1010F00011494F689B3B6B3CCC13F6C78561684236
:10110000AEBBDDCD4516291DEADBC803943CEE4F8E
:101110008211C3EC28BD970599DED7BB5E221FD490
:10112000EB64D992D985B76A056AE42441F1CDF020
:10113000D83FF89E0ECD0B7A706B5A750A6A3388C9
:10114000EC17750870102F24CFC4E942006194CACF
:101150001F3A7606FAD24881F077600345D961F4E8
:10116000A46F3DD930C3046B542AB7EC3BF44BF564
:10117000685226CEFF5D1991A0A3A5A9B1E023C4B2
:101180000A774DF95120A3A5A9B1C10082868E7FAF
:101190005D1991A0A3C4EB540B756852078C9A9704
:1011A0008D79706246EF5C1B95897141E121A1A1A7
:1011B000A1C002674C1AB6CFFD785324ABB5C9F174
:1011C0006023A5C812876D5813858892876D5832A1
:1011D000C70C9A97ACDA36EE5E3EDF1DB8F2662F8A
:1011E000BDF87247ED5813858892878C7B5509901E
:1011F000A2C6EF3DF85324ABD42AB7EC5A36EE5EC4
:101200003EDF3CFA764FFD5930E246EF3DF853059C
:101210006931C10082868E7F5D19B0E227CCFB74F4
:101220004B148B948B756833C50892878C9AB6CF14
:101230001CBAD70D98B2E62FDC1B9589716023C4C8
:101240000A968F9CBAF66E3FFC5B15A8D226AFBDFE
:10125000F872662FDC1BB4CB148B94AAB7CDF9516E
:10126000018082866F3DD930E227CCFB744B14AAF3
:10127000B7CDF97043046B35C9F16023A5C8F345B8
:101280000892876D5832E62FBDF872664E1EBEFE7C
:101290007E7E7E5F1D9991A0A3C40A774D1893A40A
:1012A000ABD40B754910A2C6EF3DF85324ABB5E89B
:1012B00033E44A16AEDE1FBCDB15A8B3C508734580
:1012C000E931C1E121A1A1A1C002866F5C3AD70D2D
:1012D0009893A4CA16AEDE1F9D99B0E246EF3DF882
:1012E00072470C9AB6CFFD5911A0A3A5C8F34508C3
:1012F00092876D39F043048A96AEDE3EDF1D9991E8
:10130000A0C2066F3DF872470C9A978D9893858816
:101310007345E931E023A5A9D003848A96AEDE1F88
:10132000BCDB15A8D226CEFF5D1991818082672D86
:10133000D813A4ABD40B94AAB7CDF95120A3A5C858
:10134000F345E95022C6EF5C3AD70D989385887330
:10135000644AF74DF95120A3C40A96AEDE3EFE7EE4
:101360007E7E5F3CFA764FFD7872662FBDD930C322
:10137000E54812878C7B5528D2078C9A97ACDA17F0
:101380008D795120A3C4EB540B948B94AAD62EBF15
:10139000FC5B15A8D226AFDC1BB4EA37EC3BF46A41
:1013A00037CD1893856931C1E140E325C812878C98
:1013B0009AB6CFFD5911A0C2068E7F5D38F2470C58
:1013C0007B746A37EC5A36EE3FFC7A764F1C9B955D
:1013D000897141006344EB542AD60F9CBAD70D980B
:1013E00093856931C10082868E9EBEDF3CFA572C00
:1013F000DA36EE3FFC5B158971410082868E7F5D97
:1014000038F247ED5813A4CAF74DF95101806344EF
:10141000EB542AD62EBFDD1991A0A3A5A9B1E042B5
:10142000068E7F5D1991A0A3C40A968F7D787247BE
:101430000C7B746A562EDE1FBCFA570D7951016180
:1014400021A1C0E325A9B1C1E14002674C1A978DE3
:101450009893A4ABD42AD60F9C9BB4CB14AAB7CD37
:10146000F95120A3C4EB35C9F16042068E7F7C7A26
:10147000766E3FFC7A766E5E3EFE7E5F3CDB1589C3
:101480007141E121C0E344EB542AB7CDF9706227E2
:10149000ADD832C70C7B744B14AAB7EC3BD528D21D
:1014A000076D39D120C2E74C1A978D98B2C70C59F5
:1014B00028F39B09025400030100A0FA090400006C
:1014C000010301010009211101000122400007056B
:1014D0008103080001090401000103010200092140
:1014E00011010001224700070582030800010904D9
:1014F0000200010300000009211101000122320055
:10150000070583032000011201000200000008F813
:10151000A832180002010200013E03430068006186
:101520000072007900620064006900730020004EC0
:101530000061006E006F0020002800330078003545
:10154000002B0033002900200045006C0069007466
:101550000065002D00430000002403420061007379
:1015600000740061007200640020004B0065007987
:101570000062006F006100720064007300000004EC
:101580000309040011241FBECFEFDAE0DEBFCDBF98
:1015900004B603FE18C08091FA039091FB03A0915A
:1015A000FC03B091FD038730904BA740B04B59F43A
:1015B0001092FA031092FB031092FC031092FD03A9
:1015C000E0E0F8E3099512E0A0E0B1E0E4EFFBE62B
:1015D00002C005900D92A636B107D9F723E0A6E622
:1015E000B2E001C01D92AA3FB207E1F70E948D2E22
:1015F0000C94B1350C940000E8EDF0E080818E7F12
:1016000080831092E2001092DA001092E100A0EEC6
:10161000B0E08C9181608C9380818F77808319BC3E
:10162000A7EDB0E08C918E7F8C9380818F7E80833C
:101630001092DB0308952091E4003091E50095E6D7
:10164000A9012091EC00822F817020FF06C08091BB
:10165000E80080FF06C080E008952091E80022FDA8
:101660001AC08091E803882389F0853089F0809141
:10167000EB0085FD0FC02091E4003091E50042179A
:101680005307F9F29150E1F684E0089582E008955D
:1016900083E0089581E008958091EA0387FF13C0F5
:1016A0008091E80082FF06C08091E8008B778093EC
:1016B000E80004C08091E8038111F2CF0895809181
:1016C000E8038823D9F38091E80080FFF8CF809168
:1016D000E8008E77ECCF982F9093E900242F762F97
:1016E00050E0891731F07091EC002091ED0050919D
:1016F000F00021FD07C09F5F973071F78093E900EC
:1017000081E008953091EB003E7F3093EB00309103
:10171000ED003D7F3093ED003091EB003160309370
:10172000EB007093EC002093ED005093F0002091BB
:10173000EE0027FDE0CF80E00895B0E0A0E0E3EA0E
:10174000FBE00C94F834C8EDD0E088818F7E88836C
:10175000E7EDF0E080818160808384E082BF81E0FA
:101760008093DB0388818E7F888302EE10E0F8018E
:1017700010821092DA0081EEC82ED12CF601108270
:1017800088818F77888388818068888388818F7D2E
:10179000888319BC1092E8031092E9031092E703C2
:1017A0001092E60390EEE92EF12CF70180818B7FF9
:1017B000808388818160888342E060E080E00E94CD
:1017C0006B0BF60180818E7F8083F80180818160C0
:1017D0008083808188608083F70180818E7F808311
:1017E000888180618883CDB7DEB7E8E00C9414353A
:1017F000FC018091F0039091F10386179707A0F008
:101800006115710529F49091E8009E779093E800A6
:1018100090E06115710551F4911108C08091E800C4
:1018200082FF34C080E00895BC01F2CF8091E803CC
:101830008823C1F18530C1F18091E80083FD30C07B
:101840008091E80082FDEACF8091E80080FFE1CF3F
:101850008091F3002091F200382F6115710519F085
:101860002830310558F091E02830310509F090E03A
:101870002091E8002E772093E800CBCF81918093D0
:10188000F100615071092F5F3F4FE7CF8091E8036E
:10189000882341F0853041F08091E80083FFBECF7E
:1018A00081E0089582E0089583E008958091DD034A
:1018B0000895CF92DF92EF92FF922FB7F894C090E5
:1018C000D703D090D803E090D903F090DA032FBF6C
:1018D000A7019601261B370B480B590BCA01B9010A
:1018E000FF90EF90DF90CF9008959C014FB7F89450
:1018F0008091D7039091D803A091D903B091DA03D6
:101900004FBF821B930B08952FB7F8946091D703B4
:101910007091D8038091D9039091DA032FBF089575
:101920009C01FC0132969FEF80E04191461751F0F7
:101930009F3F19F4411101C0982F8F5F8630A9F79E
:101940009F3F09F40895290F311D97FD3A95F9013C
:1019500062830895A3E0B0E0E0EBFCE00C94FE3479
:101960002091D4033091D50328173907A1F0909323
:10197000D5038093D403E091D203F091D303309741
:1019800051F024E029839B838A830680F781E02D30
:10199000CE01019609952396E2E00C941A35A3E056
:1019A000B0E0E5EDFCE00C94FE342091D0033091E2
:1019B000D10328173907A1F09093D1038093D00366
:1019C000E091D203F091D303309751F023E02983C3
:1019D0009B838A830680F781E02DCE0101960995CD
:1019E0002396E2E00C941A35E091D203F091D303F0
:1019F000309721F00480F581E02D09950895CF926C
:101A0000DF92EF92FF92CF93DF93EC01C090C1037E
:101A1000D090C203E090C303F090C403C701B601A5
:101A20000E94590C643F714081059105F8F4C09201
:101A3000BD03D092BE03E092BF03F092C00384EFD7
:101A400091E0A0E0B0E08093B9039093BA03A09333
:101A5000BB03B093BC03D093C903C093C803DF9109
:101A6000CF91FF90EF90DF90CF9008950E94840C6B
:101A70006093BD037093BE038093BF039093C00334
:101A800082E390E0A0E0B0E0DECFFC018581862318
:101A900051F492819923B9F06923818583FF05C0B0
:101AA00081E061110FC080E00895892F8F709295B9
:101AB0009F70982B862F8F7062956F70682B81E0D6
:101AC0009613F1CF089581E0FDCFBC014091B5039D
:101AD0008091B603942F891301C00895292F30E017
:101AE000F901EE0FFF1FE355FC4F0190F081E02D4F
:101AF000E617F707A1F485E0869FF001879FF00DB8
:101B00001124E852FE4F8481806484839413E5CFCE
:101B10002F5F3F4F237033272093B50308952F5F26
:101B20003F4F922F9370D7CF1092620310926103B0
:101B3000E8EDF1E0848187FF1482359682E0E030A1
:101B4000F807C1F70895FC01680F791F8FEF91E343
:101B50002191822728E030E087FF09C0880F89277C
:101B600021503109C9F7E617F70791F70895880F53
:101B7000F7CF80913C0380FD16C081FD16C082FD29
:101B800016C080913B038823A1F0803580F428E0C3
:101B9000829FC001112460E570E00E943935862FD4
:101BA000672B39F0089582E0089584E0089588E075
:101BB000089581E0089580913C0380FD17C081FD68
:101BC00017C082FD17C020913A032223A9F08EE1AD
:101BD0002034A0F4289F9001112486E035952795A4
:101BE0008A95E1F7822F232B51F0089587E008951D
:101BF0008FE008958EE1089585E00895089581E0CD
:101C0000089580E00895F894E82FE295EF70F0E0F1
:101C100031A1282F2F7081E090E001C0880F2A9514
:101C2000EAF7982F9095932391A392A1892B82A3F1
:101C3000789408959091220392FF06C0282F28716E
:101C40002830F9F4877F846093FF06C0282F28711D
:101C50002831F1F4877E84612091230320FF06C0A0
:101C6000382F38713830D9F4877F816021FF06C062
:101C7000282F28712831D1F4877E816194FD877ED9
:101C80000895282F24712430F9F68B7F8860DCCFEB
:101C9000282F2471243101F78B7E8861DDCF382F06
:101CA0003171313019F78E7F8860E0CF282F217194
:101CB000213121F78E7E8861E1CF82389105B9F11B
:101CC000B0F48133910509F47DC048F4893291055F
:101CD00009F46DC08A32910509F47BC008958533FB
:101CE000910509F45FC08933910509F10895833E98
:101CF0009105D9F138F4803E910529F1823E910594
:101D000079F10895863E9105D9F1873E910509F450
:101D10003EC0843E910541F52091230321FF24C05C
:101D20008091220384FD19C087EE90E008952091F0
:101D30002203237009F05AC02091230323FF14C00B
:101D400089E290E008952091220320FD38C030916F
:101D5000230330FF09C024FF43C090E080E00895D2
:101D60002091220322FDF7CF08952091220322FD26
:101D70003AC03091230330FD39C024FFF5CFEDCFB9
:101D80002091220323FFF0CF24FDE7CFCDCF209178
:101D9000220323FD2EC03091230331FFEECF84EECA
:101DA00090E008952091220325FFDECFC9CF209136
:101DB000220325FD21C02091230323FFD5CF89E3F2
:101DC00090E0D2CF2091220326FFCECF8AE290E08E
:101DD00008952091220326FFC7CF81E390E0089564
:101DE00083EE90E0089582EE90E0089580EE90E01A
:101DF000089586EE90E0089585E390E00895972F8A
:101E00007830B8F46530A8F48A30B0F470E025E09A
:101E1000929F600D711D1124FB0198E2899FE00DD6
:101E2000F11D1124EE0FFF1FEB56FE4F859194918B
:101E3000089580E090E0089581E0FCCF1F93CF9358
:101E4000DF930E945D0EEC01C11580E5D807F0F527
:101E5000C11580E4D80708F09CC0C03ED10520F52C
:101E6000CD3CD10508F082C0C83AD10578F4C53A16
:101E7000D10508F073C0C130D10519F1209709F1DF
:101E8000C430D105F0F4D0E0C0E01BC0C33CD105A4
:101E9000D0F7C85AD0E0CC0FDD1FCA5EDD4F0990E5
:101EA000D881C02DD4640DC0C11580E2D80708F0D8
:101EB000D1C0C11581E0D80708F05AC0C83ED1058D
:101EC00010F7CE01DF91CF911F910895C03682E5C2
:101ED000D80718F5C03482E5D80708F06BC0C032C7
:101EE00082E5D80708F05FC0C11582E5D80708F47D
:101EF00097C02C2F2695269580E2289F90011124CB
:101F00008C2F8370C1E0D0E002C0CC0FDD1F8A951A
:101F1000E2F7C22BD32BDD68D4CFC03A82E5D807D5
:101F200060F4C03882E5D80708F459C0CF71D0E01A
:101F3000DC2FCC27C46FD06AC4CFC03C82E5D80761
:101F400008F462C0C03E82E5D80708F09CCFDC2FC1
:101F5000CC27CC27DF71C06FD06AB3CFC55AD0E091
:101F6000CD5EDD4FC881D0E0D064ABCFD065A9CFC6
:101F70008D2F0E941A0E182FCE0199270E945D0EF8
:101F8000C12FD0E0DC2FCC27CC27DF71C82BD92B79
:101F900098CFCE0199270E945D0ECC27DF70C82B09
:101FA000D92BD06A8ECFCF71D0E0DC2FCC27C16F78
:101FB000D06A87CF2C2F26952695277080E2289F00
:101FC000900111248C2F8370C1E0D0E002C0CC0FAF
:101FD000DD1F8A95E2F7C22BD32BDC6872CF2C2F42
:101FE00026952695277080E2289F900111248C2F3A
:101FF0008370C1E0D0E002C0CC0FDD1F8A95E2F70C
:10200000C22BD32BDA685DCF8C2F8F710E941A0EF2
:10201000C82FD0E0DC2FCC27CC27DF71D06251CF86
:102020008C2F8F710E941A0E55E0D695C7955A9540
:10203000E1F7CF70D0E0DC2FCC27282F30E084FFF1
:1020400005C044E0220F331F4A95E1F7C22BD32B82
:10205000D06937CF8D2F8F710E941A0E182FCE01A5
:1020600099270E945D0EC12FD0E0DC2FCC27CC2712
:10207000DF71C82BD92BD2CF8091DA028111109257
:10208000DA02089580959091CD0398239093CD0323
:102090000895EAE6F2E09191891303C0DF011197F8
:1020A0001C9292E0E037F907B1F708952091D00231
:1020B00090918F02291302C080E0089530E0F90169
:1020C00053E0EE0FFF1F5A95E1F7E057FD4F5181A6
:1020D000561306C05081581303C05281541304C0D4
:1020E0002F5F3F4F2770E6CF81E008958091D002A7
:1020F00090918F02981301C008958F5F8770FACF77
:10210000B0E0A0E0E6E8F0E10C94F7347C01009147
:1021100020031091210380911E0390911F03082B2F
:10212000192BCFE0D0E0CC24C394D12CBC2EC60117
:102130000C2E02C0880F991F0A94E2F78023912386
:10214000892B49F4219790F7B12C8B2DCDB7DEB7B1
:10215000E9E00C941335B7018C2F0E94FF0E0E940A
:102160001E0F019779F3F1CFCF93DF93EC010E941B
:102170008010BE010E94FF0E0E941E0FDF91CF91C2
:102180000895983078F5853068F5E82FF0E085E01F
:10219000989FE00DF11D11249E2F977083E0F69516
:1021A000E7958A95E1F7EE0FFF1FEE0FFF1FED5841
:1021B000FD4F50E040E080E0219130E0092E02C068
:1021C000369527950A94E2F721703327042E01C033
:1021D000220F0A94EAF7822B4F5F5F4F443051057C
:1021E00059F7089580E00895983098F5853088F57E
:1021F000E82FF0E085E0989FE00DF11D11248E2F6F
:10220000877041E001C0440F8A95EAF783E0F695B4
:10221000E7958A95E1F7EE0FFF1FEE0FFF1FED58D0
:10222000FD4F30E020E070E05191DF011197CB01CC
:10223000022E02C0969587950A94E2F781708195E7
:102240008527842385278C932F5F3F4F24303105CA
:1022500059F708959093210380932003089521E076
:1022600030E002C0220F331F8A95E2F720953095A7
:102270008091200390912103822393230E942A11AD
:1022800008959091D102809589238093D102282FBF
:10229000277091F4282F082E000C330B9217130689
:1022A00059F09091230392FF07C0859585958595F8
:1022B0000E942F111092D102089521E030E002C057
:1022C000220F331F8A95E2F780912003909121031A
:1022D000822B932B0E942A11089590931F038093C1
:1022E0001E030895FC0183819481892B29F080814C
:1022F000918189238F3FF1F480E008950E941E0FA1
:1023000092959F70963089F058F4925F9F7092304A
:1023100098F7803F19F030F4883E70F781E0089517
:102320009A5FF4CF843F41F7F9CF883EB8F3813FFD
:1023300019F7F4CF86819781009701F78081918109
:102340000E94B410DDCFA5E0B0E0E9EAF1E10C9421
:10235000FD349C01FC01868197810097E1F485E0C2
:10236000DE01119601900D928A95E1F7F901228123
:1023700089819A81222399F0662389F00E94801036
:10238000182F682F89819A810E94F41069817A81BF
:10239000812F0E94FF0E2596E3E00C9419350E94D0
:1023A000C110182FF3CF9C013A9521153F4150F5EC
:1023B000FC01EE27F170BC0166277270AC01442766
:1023C00054709C012227387094FF0EC080E1EF2BDF
:1023D00009F480E0672B09F08062452B09F08064E6
:1023E000232B89F08068089581E0EF2B09F480E0C9
:1023F000672B09F08260452B09F08460232B19F0CC
:102400008860089580E00895FC018281823021F483
:1024100080E092E00E946D110895FC01828182307B
:1024200021F480E091E00E946D110895FC01828109
:10243000823021F480E890E00E946D110895FC0143
:102440008281823021F480E490E00E946D11089531
:10245000FC018281823021F480E290E00E946D11C3
:102460000895FC018281823021F480E190E00E9495
:102470006D110895FC018281823021F488E090E0A2
:102480000E946D110895FC018281823021F484E064
:1024900090E00E946D110895FC018281823021F448
:1024A00082E090E00E946D110895FC0182818230EB
:1024B00021F481E090E00E946D1108959091DA027C
:1024C0008091CD03892B0E941A0E982F927281E081
:1024D00009F480E008950F931F93CF93DF938B014E
:1024E000EA019091E803943061F58093E9008FEF61
:1024F0009091E800815095FD06C095ED9A95F1F711
:1025000000008111F5CF8091E80085FF1AC00E947C
:102510001B0B811111C08091E80085FD06C08091E0
:10252000E8008E778093E800F2CFF80181918F0167
:102530008093F100219779F78091E8008E7780935E
:10254000E800DF91CF911F910F91089543E050E093
:10255000BC0183E00E946B12089545E050E0BC018D
:1025600082E00E946B120895CF93DF93EC0148E064
:1025700050E0BC0181E00E946B1288E0FE01AEEDEC
:10258000B3E001900D928A95E1F7DF91CF91089524
:1025900081E08093E00080E28093D8001092C9002F
:1025A0008FE19EE40197F1F700C0000087E090EB17
:1025B000DC018093FA039093FB03A093FC03B09398
:1025C000FD0388E19CE00FB6F894A8958093600025
:1025D0000FBE90936000FFCFB0E0A0E0E2EFF2E129
:1025E0000C94F6347C015B016A0180910F0301E0D9
:1025F00010E08A3010F40AE010E0C1E0D0E0B5014C
:10260000C701F6010995811104C021960C171D0719
:102610002CF4CDB7DEB7EAE00C941235CC9F9001D4
:10262000CD9F300D300D112490E080E045E34A95B8
:10263000F1F70000019682179307C1F7E0CF809170
:10264000EB02811110C08091D80080618093D80086
:102650008AE18A95F1F700C08091D90080FF0AC015
:1026600081E08093EB0281E09091EB02913009F0E0
:1026700080E0089582E08093EB020E94FC0A1092B1
:10268000E803F1CF0E941F13882359F0E091D20391
:10269000F091D303309729F00190F081E02D099556
:1026A000089580E008950E941F1391E089270895FE
:1026B000CF93DF93EC010E945313811106C0CE012A
:1026C0000E94D313DF91CF910895D0935E03C093FE
:1026D0005D03F8CF8091F70386FF05C084E690E0A4
:1026E0000E945813089587FF09C08295837024E6DD
:1026F000829FC001112488539F4FF2CF8F7028EC26
:10270000829FC001112480579E4FEACFCF930E9431
:10271000531328E030E043E060E080EF0E94303265
:10272000C82F811105C00E9408338C2FCF910895C6
:1027300085E08A95F1F70000F8CFA2E0B0E0E3EA87
:10274000F3E10C94FB34182FF62E0E948613082F09
:10275000811106C000E0802F2296E5E00C94173529
:10276000103549F00E945313E2EFF3E0882311F093
:10277000E3EFF3E0108210681983FA8262E070E000
:10278000CE0101960E94D832892B21F78AEB8A95D7
:10279000F1F700C00E94083383E492E00197F1F75B
:1027A00000C00000D8CFCF93DF93EC010E945313F9
:1027B000CE0164E670E00E942535615071096837EA
:1027C000710510F067E770E08FE00E949D13DF91C4
:1027D000CF910895CF93C82F0E9486138823C9F004
:1027E0008C2F0E94A8328FE792E00197F1F700C08A
:1027F00000000E94C032C82F95E09A95F1F70000C2
:102800000E94083385E68A95F1F700008C2FCF915E
:102810000895C0E0FBCF0E9453138FE00E94EA139B
:102820008F5F24E6829FC00111240895A6E1B0E0E5
:10283000ECE1F4E10C94FC344A8B5B8B6C8B7D8B6C
:102840008E8B8E01095F1F4F86E0F80111928A95E9
:10285000E9F70E9453130E9453138823A1F180913A
:10286000F30381113DC060E080E50E949D1381115A
:102870002DC086E0FE013796DE01119601900D9283
:102880008A95E1F786E0FE013196DE011796019008
:102890000D928A95E1F78F8183FF4FC085E0FE019D
:1028A0007296DE011D9601900D928A95E1F72D85B5
:1028B0003E854F855889698970E080E090E0669692
:1028C000E4E00C9418358091F203CBCF0E945313AF
:1028D000E2EFF3E0882311F0E3EFF3E081E080839F
:1028E0000E948613882329F280E50E94A832FAEB21
:1028F000FA95F1F700C066E070E0C8010E94F0327E
:102900008F81877049F00E945313E2EFF3E0882330
:1029100011F0E3EFF3E010820E94083389859A8575
:102920009195819591099A8789878B859C85919549
:10293000819591099C878B879CCF898187FD03C0F6
:1029400010925F03ABCF2B813C818D819E814091A2
:102950005F03411103C041E040935F0320384FEF14
:1029600034078CF02038310514F02FE730E0803840
:10297000EFEF9E0754F08038910514F08FE790E058
:102980002B8B8C8B8BCF20E8F2CF80E8F9CF0F9385
:102990001F93CF93DF930E9453130E9428320E940B
:1029A0008613882309F48AC025ED2A95F1F70000E3
:1029B0000E94083385ED8A95F1F700006AE58AE305
:1029C0000E949D13882309F479C09FEFE0E7F2E0AD
:1029D0009150E040F040E1F700C0000082E00E942A
:1029E000EA1383E00E94EA1384E00E94EA1385E080
:1029F0000E94EA1386E00E94EA136DE183E10E94DF
:102A00009D13882309F45AC08FE39CE90197F1F7DD
:102A100000C0000068E183E10E949D130E948613BC
:102A2000882309F44BC082EE0E94A83290E59A9563
:102A3000F1F7C5EBD4E003EB14E1FE0184910E94B1
:102A4000A832F0E5FA95F1F721960C171D07A9F7C2
:102A50008FE193E00197F1F700C000008AE20E9445
:102A6000EA1360E080E10E949D130E940833EFE3C7
:102A7000FCE93197F1F700C000000E9453136FE0AA
:102A80008FE00E949D138FE99FE00197F1F700C04E
:102A9000000060E080E10E949D1367EE81E10E94EA
:102AA0009D1362E083E60E949D1380E00E94EA137A
:102AB0008FE30E94EA138AE20E94EA13DF91CF912A
:102AC0001F910F9108958091CD039091CC03892B94
:102AD000809368029091DA02992391F0892B809378
:102AE000680220E08AE692E0FC013191CF013111C9
:102AF0002F5FF2E080379F07B9F721110E943C1049
:102B00008091C50380959091680289239091C603B6
:102B1000892B8093680248E050E062ED72E088E61D
:102B200092E00E949B35892BA9F088E0E8E6F2E06C
:102B3000A2EDB2E001900D928A95E1F7E091D20307
:102B4000F091D303309731F00280F381E02D88E6D5
:102B500092E009950895CF93DF93EC01EA85FB8518
:102B6000309719F06C857D8509958B81982F90950C
:102B70008091CC0389238093CC038C810E944210E6
:102B80000E94631586E0FE0111928A95E9F7DF91B4
:102B9000CF910895CF93DF93EC018D8181FD18C013
:102BA00082608D838091CC039B81892B8093CC03A1
:102BB0008091CD039C81892B8093CD030E94631566
:102BC000E885F985309721F06C857D85CE010995E2
:102BD0001092CF031092CE038D8180FD03C0CE01F1
:102BE0000E94AB15DF91CF910895809160038823F7
:102BF00049F08091CC038D7D8093CC030E946315B6
:102C0000109260030895882339F09091CC03982B9B
:102C10009093CC030E9463150895882321F00E94AD
:102C200042100E9463150895882339F09091CD03D6
:102C3000982B9093CD030E946315089545E050E0D2
:102C400061E473E084E593E00E949B35892B21F0D9
:102C500084E593E00E94F40C9091540385E0E4E550
:102C6000F3E0DF01282F1D922A95E9F79093540392
:102C7000A1E4B3E001900D928A95E1F70895A9E1EE
:102C8000B0E0E5E4F6E10C94F9340E941F138823C8
:102C900009F40FC16091590370915A0380915B034D
:102CA00090915C030E94590C672B682B692B09F4E7
:102CB00000C10E94840C6093590370935A0380935F
:102CC0005B0390935C030E9453138111F6C0409103
:102CD00054035091550360915603709157038091AE
:102CE00058030E94161420935403309355034093C5
:102CF0005603509357036093580385E0E4E5F3E0EF
:102D0000DE01169601900D928A95E1F7D090550359
:102D1000D194DF8285E0FE013696DE015096019067
:102D20000D928A95E1F785E0FE017096DE0111961D
:102D300001900D928A95E1F785E0FE013196A4E5B8
:102D4000B3E001900D928A95E1F785E0E4E5F3E0C8
:102D5000DE01559601900D928A95E1F7E0905503BA
:102D600010915603F0905703009158030E941F13CF
:102D7000882309F46EC08091F70386FF42C020913A
:102D80004803309149032D0D311DD7FC3A953093FE
:102D90004903209348038091460390914703810F94
:102DA000911D17FD9A959093470380934603A901BF
:102DB00037FF04C044275527421B530B47305105AA
:102DC0004CF00FEF121613060CF401E010924903B9
:102DD000109248039C0197FF04C022273327281B29
:102DE000390B273031055CF0FF24FA9418161906C8
:102DF00014F4FF24F394109247031092460310E05A
:102E0000E12CEE8A1F8BF88E098F85E0FE01759606
:102E1000DE011B9601900D928A95E1F785E0FE0197
:102E20003B96DE01119601900D928A95E1F785E0BF
:102E3000FE013196DE01169601900D928A95E1F71A
:102E400085E0FE013696DE01559601900D928A9539
:102E5000E1F7EE8A1F8BF88E098F85E0FE017596EB
:102E6000DE01169601900D928A95E1F785E0FE014C
:102E70003696DE011B9601900D928A95E1F785E06A
:102E8000FE013B96A4E5B3E001900D928A95E1F72F
:102E900085E0EAE4F3E0DE011B9601900D928A954D
:102EA000E1F7809154039B85892B809354030E9402
:102EB0001E166996E7E00C94153585E0EFE4F3E023
:102EC000A4E5B3E001900D928A95E1F716CF9091B9
:102ED000230392FB222720F9281779F080FB92F92F
:102EE00090932303609122037091230384E090E088
:102EF0000E94853582E00E94411108959091F70368
:102F00009F70811115C08FEF980F9F708091F7030C
:102F1000807F982B9093F7030E946A134091F703E8
:102F200050E070E060E08FE090E00E947935089515
:102F300081E0EACF9091F70392959370811117C0C9
:102F40008FEF980F93709295907F8091F7038F7C0D
:102F5000982B9093F7030E946A134091F70350E077
:102F600070E060E08FE090E00E947935089581E0A4
:102F7000E8CFA4E0B0E0EFEBF7E10C94FC34609113
:102F8000F4027091F5028091F6029091F7020E948E
:102F9000590C11E0643671058105910590F10E948C
:102FA0001F13882399F10E94840C6E5F7F4F8F4F0F
:102FB0009F4F69837A838B839C83809116019091C4
:102FC000170188509D4F4091150150E04530510543
:102FD00010F044E050E0BE016F5F7F4F0E94A835C3
:102FE00082E090E00E947834182F882351F00E94EC
:102FF000840C6093F4027093F5028093F602909330
:10300000F702812F2496E4E00C9418350E94840C7A
:1030100000911003109111032091120330911303BA
:10302000600F711F821F931FC0CF4F925F927F92DC
:103030008F929F92AF92BF92CF92DF92EF92FF92C8
:103040000F931F93CF93DF930F92CDB7DEB7C62EAA
:103050004A015901482E880F5508C2010E94783450
:10306000782E882309F473C0C20133E0880F991FBA
:103070003A95E1F7FC01EB5FFE4F438150E04115CB
:10308000510511F041E050E08B5F9E4FFC016481DF
:10309000758168507D4FCE0101960E94A835F401DC
:1030A00060817181828193810E94590C643671051F
:1030B0008105910540F4B701C8010E94A30D9981D3
:1030C000891709F444C00C2C000CDD08C6010E94CD
:1030D0007834782E811113C0712C872D0F90DF91D9
:1030E000CF911F910F91FF90EF90DF90CF90BF9005
:1030F000AF909F908F907F905F904F900895C60102
:1031000023E0880F991F2A95E1F7FC01EB5FFE4F42
:10311000438150E0E416F50608F4A7018B5F9E4F4B
:10312000FC016481758168507D4FC5010E94A835FE
:10313000B701C8010E94A30D99818913CDCF0E94C8
:10314000840CF4016083718382839383C6CFA701CB
:10315000B801C5010E94A835C0CFAAE0B0E0E3EBFA
:10316000F8E10C94FA340E945313882309F454C0F4
:1031700085E0E82EF12C02E013E09E012A5F3F4F2C
:103180004BE053E064E083E00E941518882391F03F
:1031900095E0FE013696DE01119601900D929A950A
:1031A000E1F795E0FE013196AFE4B3E001900D92B6
:1031B0009A95E1F700915D0310915E0301151105E9
:1031C00039F12091090330910A032017310701F1E9
:1031D000109308030093070380912E0190912F0113
:1031E00088509D4F40912D0150E04330510510F023
:1031F00042E050E067E073E00E94A83585E090E08F
:103200000E947834882321F010930A030093090365
:103210002A96E6E00C94163581E0FACFA4E0B0E0FF
:10322000E4E1F9E10C94F8346B0184E0E82EF12C30
:1032300009EF12E09E012F5F3F4F40EF52E061E047
:1032400080E00E941518882361F049815A816B81C2
:103250007C814093EC025093ED026093EE027093F8
:10326000EF024091EC025091ED026091EE027091FC
:10327000EF02F60140835183628373832496E8E072
:103280000C9414351F920F920FB60F9211242F93A6
:103290003F934F935F936F937F938F939F93AF93DE
:1032A000BF93EF93FF938091E10082FF09C080916B
:1032B000E20082FF05C08091E1008B7F8093E100F6
:1032C0008091DA0080FF24C08091D80080FF20C068
:1032D0008091DA008E7F8093DA008091D90080FFA0
:1032E0009DC080E189BD82E189BD09B400FEFDCFAA
:1032F00081E08093E8038091DB03811109C00E9483
:10330000FC0A0E949D0B8091E20084608093E200A1
:103310008091E10080FF17C08091E20080FF13C020
:103320008091E2008E7F8093E2008091E2008061D4
:103330008093E2008091D80080628093D80019BC0D
:1033400085E08093E8038091E10084FF2BC08091A9
:10335000E20084FF27C080E189BD82E189BD89B593
:10336000982F917080FFFBCF8091D8008F7D809344
:10337000D8008091E1008F7E8093E1008091E2008F
:103380008F7E8093E2008091E20081608093E20072
:103390008091E903882309F447C084E08093E8031F
:1033A0008091E8038091E10083FF27C08091E200D3
:1033B00083FF23C08091E100877F8093E10082E05A
:1033C0008093E8031092E9038091E1008E7F80935F
:1033D000E1008091E2008E7F8093E2008091E20024
:1033E00080618093E20042E060E080E00E946B0B2D
:1033F0008091F00088608093F000FF91EF91BF9181
:10340000AF919F918F917F916F915F914F913F917C
:103410002F910F900FBE0F901F90189519BC10920E
:10342000E8031092DB0374CF8091E30087FD93E003
:103430009093E803B5CF78941F921FB61F92112482
:103440008F939F93AF93BF938091D7039091D803AD
:10345000A091D903B091DA030196A11DB11D80930B
:10346000D7039093D803A093D903B093DA03BF9105
:10347000AF919F918F911F901FBE1F9018952FB7EE
:10348000F8948091D7039091D803A091D903B0917B
:10349000DA032FBF08950E943F1A9C0190914B03BD
:1034A00080914C03982B21F03093400320933F03ED
:1034B00090914D0380914E03982B21F030933E0361
:1034C00020933D038AE493E00E94F40C0895109247
:1034D000CD03EAE6F2E086E0DF011D928A95E9F786
:1034E00090E080E00E94CF0C90E080E00E94AA0C67
:1034F0001092CC030E94631585E0EAE4F3E0DF015B
:103500001D928A95E9F710923A0310923B031092AC
:103510003C030E944B1A0895AAE2B0E0E2E9FAE106
:103520000C94FD348AEE93E02091F100DC012D93A0
:10353000CD01B3E0823F9B07B9F78091EB03833065
:1035400009F472C0B8F4813009F449C0823009F43A
:10355000B3C08091E80083FF86C28091EA03909116
:10356000EB039A3008F07FC2E92FF0E0ED54FA4CFB
:103570000C944D358A3009F48EC08B3009F471C03B
:10358000893039F78091EA03813219F78091EE038F
:103590009091EF03009711F00297D9F68091E8001F
:1035A000877F8093E8008091E80082FF38C0909187
:1035B000F3008091F200029731F48091F1008130A4
:1035C00011F0863021F48091F1008093DD03809129
:1035D000E8008B778093E8000E944C0BBACF809173
:1035E000EA03813A09F0B5CF8091E800877F8093A4
:1035F000E8008091EE039091EF03892B61F468E07D
:103600008EED93E070E00E94F80B8091E8008B77DC
:103610008093E8009ECF60E090E080E0F3CF80915F
:10362000E8038111C0CF95CF8091EA03813A09F078
:1036300090CF8091EE039091EF03892B09F089CF11
:103640008091E800877F8093E8008091E80080FF08
:10365000FCCF809101028093F1008091E8008E7789
:10366000B9CF8091EA03813209F073CF8091EE03E4
:103670009091EF03892B09F06CCF8091E800877F50
:103680008093E8000E944C0B8091EC038093010230
:103690000E94671A5ECF8091EA03813209F059CF08
:1036A0008091E800877F8093E8000E944C0B809116
:1036B000ED038093DC034DCF8091EA03813A09F05A
:1036C00048CF8091E800877F8093E8008091E800F0
:1036D00080FFFCCF8091DC03BECF803899F0823828
:1036E00009F0C1C18091EE038F70873008F0BBC133
:1036F0008093E9008091EB0085FB882780F9109288
:10370000E90006C08091E6039091E7039111826081
:103710009091E800977F9093E8008093F1001092D9
:10372000F1008091E8008E779AC1882309F488C15E
:10373000823009F098C18091EC0381118BC1809196
:10374000EE038F702FEF280F263008F08CC1809386
:10375000E9002091EB0020FF7DC1933031F480918E
:10376000EB0080628093EB0075C19091EB0090615B
:103770009093EB0021E030E001C0220F8A95EAF738
:103780002093EA001092EA008091EB008860EACF73
:10379000811169C11091EC031F778091E30080785B
:1037A000812B8093E3008091E800877F8093E8007D
:1037B0000E944C0B8091E80080FFFCCF8091E300D9
:1037C00080688093E30082E0111183E08093E80336
:1037D0004AC18058823008F046C12091EC033091F4
:1037E000ED032C3DE3E03E07A1F583E08A838AE206
:1037F00089834FB7F894DE01139620E03EE051E252
:10380000E32FF0E050935700E49120FF03C0E295CE
:10381000EF703F5FEF708E2F90E0EA30C0F0C796F8
:103820008D939D932F5F243159F74FBF8091E8000E
:10383000877F8093E8006AE270E0CE0101960E94E3
:10384000F80B8091E8008B778093E8000CC1C0965C
:10385000E7CF8091EE039091EF03432F552743303C
:10386000510509F44AC078F54130510509F47AC090
:1038700084E590E0E3EBF4E14230510509F0F3C058
:103880002091E800277F2093E8002091F0033091F9
:10389000F1038217930708F49C0140E021153105DC
:1038A00009F065C0411163C08091E80082FDC9CF75
:1038B0008091E803882329F2853019F28091E8008D
:1038C00083FFF2CFBECF4132510509F43CC04232F2
:1038D000510509F0C8C08330910508F0C4C0FC014F
:1038E000EE0FFF1FE65AFD4F0190F081E02D895A3F
:1038F0009D4FDC018C9190E01AC0332721303105B7
:10390000D1F02115310561F02230310509F0ABC04D
:10391000E9E1F5E1E4918E2F90E0E9E1F5E107C0FE
:10392000EFE7F5E1E4918E2F90E0EFE7F5E1009706
:1039300009F499C0A5CFE9E5F5E1E4918E2F90E077
:10394000E9E5F5E1F4CF8330910508F08CC0880FEC
:10395000991FFC01E05AFD4F0190F081E02D89E0B4
:1039600090E08ECF82E190E0E7E0F5E189CF8091B1
:10397000E803882309F465CF853009F462CF80918C
:10398000E80083FD5ECF8091E80082FD8DCF8091BD
:10399000E80080FF83CF9091F3008091F200211521
:1039A000310519F08830910550F041E0089709F091
:1039B00040E08091E8008E778093E8006FCF4491DB
:1039C0004093F1003196215031090196E8CF8038BB
:1039D00009F049C08091E800877F8093E8008091DA
:1039E000E9038093F1009DCE81113DC01091EC035D
:1039F0001230C8F58091E800877F8093E80010932B
:103A0000E9030E944C0B112311F084E005C0809162
:103A1000E30087FDFACF81E08093E80342E061ECA8
:103A200081E00E946B0B42E061EC82E00E946B0B34
:103A300042E261EC83E00E946B0B8091E80313C0CB
:103A40008091EC03813079F481E0933009F080E0DB
:103A50008093E7031092E9008091E800877F8093CC
:103A6000E8000E944C0B8091E80083FF0AC080911F
:103A7000E800877F8093E8008091EB00806280936C
:103A8000EB00AA96E3E00C9419351F920F920FB643
:103A90000F9211242F933F934F935F936F937F93D4
:103AA0008F939F93AF93BF93CF93DF93EF93FF9346
:103AB000D091E900DF708091EC00C82FC17080FDCB
:103AC000C0E81092E9008091F000877F8093F000B9
:103AD00078940E948C1A1092E9008091F00088601E
:103AE0008093F000CD2BCF70C093E900FF91EF9150
:103AF000DF91CF91BF91AF919F918F917F916F9106
:103B00005F914F913F912F910F900FBE0F901F909B
:103B100018950E94671A2FEF84E39CE021508040A3
:103B20009040E1F700C0000088E19CE00FB6F894F7
:103B3000A895809360000FBE90936000FFCFFC01BA
:103B40008281823069F40E94671AFFEF24E38CE0DF
:103B5000F15020408040E1F700C000000E94C812F0
:103B60000895662309F472C08D3C41F40E94DB0D78
:103B7000819580934C030E944B1A08958E3C19F452
:103B80000E94DB0DF6CF8F3C31F40E94DB0D819556
:103B900080934B03F0CF803D19F40E94DB0DF8CFEA
:103BA000893D29F40E94B90D80934D03E4CF8A3DED
:103BB00021F40E94B90D8195F7CF8B3D31F40E941D
:103BC000B90D819580934E03D6CF8C3D19F40E9498
:103BD000B90DF8CF9FE2980F983020F5282F215D7E
:103BE000330BA90121E030E001C0220F4A95EAF72A
:103BF00090914A03922B90934A03815D21E030E03B
:103C0000A90102C0440F551F8A95E2F7CA0120910D
:103C10005403662309F493C0822B809354030E94BB
:103C20001E1608958D3D31F480913C038160809390
:103C30003C03A1CF8E3D21F480913C038260F7CFFD
:103C40008F3D19F580913C038460F1CF90914B0337
:103C50008D3C59F420914C0327FF0DC010924C036A
:103C600091110BC010923A0308C08E3CB1F4209120
:103C70004C0312169CF39923B1F090914D032091BF
:103C80004E03922B11F410923B03482F415D550BCC
:103C90004830510508F4B1CF6ECF8F3C39F497FF0F
:103CA000EACF10924B0390914C03DACF803D19F488
:103CB0001916BCF3E0CF20914D03893D29F412166B
:103CC000D4F610924D03D7CF8A3D19F427FFD3CFF6
:103CD000F8CF20914E038B3D29F427FFCCCF1092D3
:103CE0004E03C9CF8C3D19F41216CCF3C4CF2FE28A
:103CF000280F283088F4282F215D330BA90121E0FB
:103D000030E001C0220F4A95EAF7209530914A032E
:103D1000232320934A03AFCF20913C032E7F8D3D78
:103D200059F020913C032D7F8E3D31F08F3D09F0FD
:103D3000A2CF20913C032B7F20933C039CCF809506
:103D400082236BCF882381F19CEF980F913A28F45E
:103D50000E9449100E946315089590E2980F9830D0
:103D600050F4877091E001C0990F8A95EAF7892F86
:103D70000E944210EFCF9BE5980F933028F490E01B
:103D800080E00E94CF0C089598E5980F9B3128F4AD
:103D900090E080E00E94AA0C089593E3980F93317D
:103DA00018F460E00E94B11D0895FF920F931F93D5
:103DB000CF93DF93F82E0091CA031091CB03011526
:103DC000110509F449C01092C9031092C80310925A
:103DD000C5031092C603D8011796CD91DC919E01C0
:103DE0003A9521153F4108F4D07ED1E0C11101C0C0
:103DF000D0E0D8011A96ED91FC911B97309731F0E5
:103E00001C966D917C9180E00995D823DD2339F0D3
:103E10008CEF8C0F813A30F58C2F0E944910FF20D7
:103E200099F0E091CA03F091CB03818584FD0CC029
:103E30008091C703882341F0808191819C012150AA
:103E400031092F333E47A0F00E9463151092CB0337
:103E50001092CA031092C703C801CDB7DEB7E5E0E0
:103E60000C9417350E9463158C2F0E94A21ED7CF89
:103E70000E94FF0CE9CFCF93C82F8823A9F08CEFC5
:103E80008C0F813A98F4EAE6F2E08191C81709F4C0
:103E900041C082E0E037F807C1F76C2F88E692E076
:103EA0000E94900C0E946315CF91089580E28C0FC0
:103EB000883068F4C77021E030E001C0220FCA9555
:103EC000EAF78091CD03822B8093CD03EBCFEBE516
:103ED000EC0FE33040F4F0E0ED5EFD4F808190E0C8
:103EE0000E94CF0CE1CFE8E5EC0FEB3150F4F0E0AD
:103EF000EE0FFF1FEA5EFD4F808191810E94AA0CA8
:103F0000D3CF83E38C0F833178F661E08C2F0E944E
:103F1000B11DCACF8C2F0E9449100E946315BDCFDE
:103F20000F931F93CF93DF93C62FD42F022FFC0143
:103F300082818823A9F06093F6030E943F1A909330
:103F4000F5038093F403C77081E001C0880FCA9520
:103F5000EAF70E941416DF91CF911F910F910895F7
:103F60008091F603681335C08091F4039091F503B6
:103F70000E94750C883C910560F510E21D0FCD176D
:103F8000B9F080E28C0F883040F4C77081E001C046
:103F9000880FCA95EAF70E940D16183048F481E0A0
:103FA0009D2F977001C0880F9A95EAF70E9414160A
:103FB000802F0E943B1F802F0E94A21E183058F6AF
:103FC000D77081E001C0880FDA95EAF70E940D16DC
:103FD000C2CFC77081E001C0880FCA95EAF7F6CF5B
:103FE000A5E1B0E0E6EFFFE10C94F3348E01075F4A
:103FF0001F4F88E0D8011D928A95E9F78EE4882E3C
:1040000082E0982E93E5E92E92E0F92E77247394BE
:10401000CC24C394D12C37E5A32E32E0B32EF40187
:1040200081914F018F3F09F443C0F894E82FE29546
:10403000EF70F0E021A18F70A60102C0440F551F60
:104040008A95E2F7CA01922F982B91A392A18095AD
:10405000892382A3789400C063E572E0F801472DBC
:104060004095DB019D91BD0180819F3F09F465C0B2
:10407000292F22952F7030E0D90190962C9130E0B5
:104080009F7002C0359527959A95E2F720FD55C09F
:10409000872980833196A616B70619F7F401319760
:1040A00080818F3F11F00E94030EB0EABA95F1F7BC
:1040B000770CE814F90409F0B2CF48E050E0B801F9
:1040C00084E193E00E949B35009741F028E0F801DD
:1040D000A4E1B3E001900D922A95E1F700911D0350
:1040E000892B69F181E08093DF020E943F1A90934F
:1040F000DE028093DD028091DD029091DE020E945B
:10410000750C059700F110E00C5D1C4F44E050E089
:1041100064E173E0C8010E949B35A12C892B51F00A
:1041200084E0E4E1F3E0D80101900D928A95E1F793
:10413000AA24A3941092DF0207C08423AACF8091FF
:10414000DF028111D8CFA12C0E941F13B82EE0915D
:104150001D03882309F47BC019821A821B821C82EA
:104160000E2F10E00C5D1C4F80910F038A30A8F5D4
:104170004EE059E1BE016F5F7F4FC8010E94EC1213
:10418000882309F453C049EB57E1BE016F5F7F4FAD
:10419000C8010E94EC12882309F448C04DEA58E196
:1041A000BE016F5F7F4FC8010E94EC128823F1F1BE
:1041B00010920F0380911C0390E044E050E0BE0198
:1041C0006F5F7F4F8C5D9C4F0E949B3521E0209359
:1041D000EA02892BC1F4B12C23C08091E0029091B6
:1041E000E1020E94750C843F914010F68091EA0232
:1041F000882389F384E0FE013196DF011D928A95C0
:10420000E9F71092EA02E0911C03F0E0EC5DFC4F4C
:1042100089819A81AB81BC8180839183A283B3839E
:104220008B2D8A296596EDE00C940F3580910F0354
:104230008F3F31F08F5F80930F038A3008F4BACF3D
:104240000E943F1A9093E1028093E002CFCFF0E00A
:10425000EC5DFC4F84E0A9EFB2E001900D928A95ED
:10426000E1F764E070E089EF92E00E94A30D809393
:10427000F802C090FD02D090FE02E090FF02F090A4
:1042800000038091E6029091E702A091E802B091CC
:10429000E902C816D906EA06FB06D1F0C092E6028A
:1042A000D092E702E092E802F092E9020E941F1326
:1042B00081110EC00E94840CC61AD70AE80AF90AB6
:1042C000C0921003D0921103E0921203F0921303F4
:1042D0000E9453138111A4CF6091E2027091E30216
:1042E0008091E4029091E5020E94590C672B682BA3
:1042F000692B09F495CF0E94840C6093E2027093BD
:10430000E3028093E4029093E5020E940B149C0167
:1043100098E0E1E0F3E0DE01119601900D929A95AC
:10432000E1F78F819885009729F02817390711F058
:104330000E94D313FE01719685E0DF011D928A95DC
:10434000E9F749895A896B897C898D890E941614FD
:104350002A833B834C835D836E8365E070E0CE01EE
:1043600002960E94A30D898388E0FE013196A1E0A8
:10437000B3E001900D928A95E1F72DCFA3E0B0E074
:10438000E4ECF1E20C94EE348C01DC0113968D9197
:104390009C911497892B39F08C9111969C918923CB
:1043A0008F3F09F02AC62396E2E10C940A35882350
:1043B00031F00E945E1291E089270E947E17F80179
:1043C0003280332009F465C02A813B812E354CE7C9
:1043D000340709F448C02F355CE7350741F02D3527
:1043E0003C4709F056C0809104018823E1F1109206
:1043F000040180E00E94D51E39C0882301F30E9489
:104400005E12DBCF8823D9F20E945E1291E08927E9
:104410000E949A17D4CF882391F20E945E12F8CF9F
:104420009091F70380FB97F99093F7030E946A132A
:10443000C6CF882321F29091F703892F97FB87F944
:1044400080588093F703F2CF9091F70380FB96F9A1
:10445000EBCF882309F4B3CF9091F703892F8F7B9B
:1044600096FF8064EECF81E0809304018091D102B9
:10447000877009F498CFD80112968C91882309F49B
:1044800092CF8091230382FF8ECF82E00E94411160
:104490008ACF80910401882309F4DBC48A809B8041
:1044A00080EE881A91082090DA028091CD03282AA4
:1044B00098E08916910408F086C02A813B81277014
:1044C000332781E090E001C0880F2A95EAF7332076
:1044D00009F476C0282AF801808191810E94C110D8
:1044E00021E030E0290102C0440C551C8A95E2F716
:1044F0006090CA037090CB03A0907002B0907102DC
:1045000019822981E22FF0E0EE0FFF1FE050FF4FEC
:10451000E080F180E114F10409F404C5211005C024
:10452000D70112968C9181118CC0F70183819481FF
:1045300084219521892B09F484C08185982F977057
:1045400009F487E0F8E08F16910408F058C0332092
:1045500009F451C086958170882309F472C0D7018F
:10456000CD90DC90EA81FB81EC15FD0519F4332038
:1045700009F467C0E614F70409F463C0D7011E9676
:10458000ED91FC91309721F08081882309F459C086
:10459000622DC7010E94450D882309F452C0EA81AB
:1045A000FB81EC15FD0509F09FC5EF2B09F4A1C5B2
:1045B0003110A1C5CA14DB0409F043C0312C9BC5DE
:1045C0008095282288CF332009F493C4AA81BB8127
:1045D000B0937102A09370020E94840C6093C10397
:1045E0007093C2038093C3039093C4031092C903D2
:1045F0001092C80370CF82FB882780F9ADCF33209B
:1046000001F18170A9CF0E94A21E94C50497813A3E
:10461000910558F46C2D88E692E00E94900C3320AE
:1046200009F417C40E94631521CF0E9463158FE31C
:104630009CE90197F1F700C000008C2D0E943B1F00
:10464000EECF99819F5F99835CCFFC0120813181FE
:104650004A815B814217530709F0F4C33110F4C358
:104660001092C70380E00E94D51EF3C39A818B810C
:104670003BC4FA01858181FF69C4CA010E94AB1560
:1046800065C41092CD030E943C100E943F1A8857C7
:104690009C4E909338038093370381E080936003AE
:1046A000E5CEAA81BB81A115B045C0F18A819B816D
:1046B0003CC02A813B81243B42E5340709F47BC49A
:1046C00038F4C901805692458034910578F773C457
:1046D0008A819B81805C9245809740F76CC485817C
:1046E000807F01F58B818F718231A9F080F4823057
:1046F00091F00E94F515EA81FB81E851FC47E73013
:10470000F10508F058C4E354FA4C0C944D3584314B
:1047100091F3863171F71092CC03EBCFF8018581CC
:10472000807F49F38A819B8199271092CC0388323C
:10473000910548F48E31910560F40497D0F282E03F
:104740008093CC0306C08D329105C9F328F48A9773
:1047500081F60E946315CFCF8C349105D1F38D3251
:104760009240B9F3C6CF26E241EE61EEC8010E9445
:10477000901F7CCE27E245EE65EEF8CF26E241EEB3
:1047800060EEF4CF27E245EE64EEF0CF26E241EE94
:1047900062EEECCF27E245EE66EEE8CF28E241E09C
:1047A000EBCF8091220381608093220395C080919A
:1047B00023038860809323038FC08091220382604B
:1047C000F3CF809122038460EFCF80912203886031
:1047D000EBCF809123038160EDCF80912303826032
:1047E000E9CF809122038061DFCF80912203806234
:1047F000DBCF809122038064D7CF0E94671A80911B
:1048000022038068D1CF809122038C60CDCF80912C
:1048100023038360CFCF809122038E7FC5CF809109
:104820002303877FC7CF809122038D7FBDCF8091E7
:1048300022038B7FB9CF80912203877FB5CF8091F0
:1048400023038E7FB7CF809123038D7FB3CF8091D9
:1048500022038F7EA9CF809122038F7DA5CF8091E7
:1048600022038F7BA1CF0E94671A809122038F774A
:104870009BCF80912203837F97CF809123038C7FEE
:1048800099CF8091220382FB992790F921E092270A
:1048900090FB82F990FB83F987CF80912303982FB7
:1048A000909591708E7F892B90FB81F983CF9091A9
:1048B0002203892F8F7B96FF806476CF0E94671A30
:1048C00090912203892F97FB87F980586DCF61E083
:1048D0008EE090E00E94673560912203709123037F
:1048E00084E090E00E9485350E94671ABFCD60E0A9
:1048F000EFCF90912203892F8F7E94FF806154CF58
:1049000090912203892F8E7F90FF81604DCF9091EF
:104910002303892F877F93FF88604CCF85E3E1C312
:104920000E94671ABFEFE4E3FCE0B150E040F040C2
:10493000E1F700C000000E94C8126FEF7FEF90E027
:1049400080E00E9485350E94891D8091230382FBAF
:10495000882780F991E089270E946717F8018681EE
:104960009781009709F440C00E941E0F8A839983A3
:10497000D8011296FC9012971596DC90D2943FE0E5
:10498000D3228091D1028770F1F0CF2CFF20E1F08B
:10499000892F807F803451F08A81805E883098F042
:1049A000D11004C0892F807E803269F0809123036A
:1049B00082FF09C082E00E9441118091D10287707C
:1049C000CC24C3948111C12CB980B2942FE0B222BF
:1049D000BBE0BB1508F48AC0EB2DF0E0EC53FA4CB9
:1049E0000C944D3580E0B8CF82810190F081E02DAC
:1049F000FB83EA83882379F0CF010E948010F82E90
:104A0000682F8A819B810E94F4106A817B818F2D9F
:104A10000E94FF0EA9CF8A819B810E94C110F82EAF
:104A2000F4CFE981EF70EE2EF981F07F19F0E29476
:104A300090EFE922FF20C1F0EE2071F08A81805EC4
:104A4000883018F02A81211109C08091CD03E82A0D
:104A5000E092CD030E9463158A8146C08091CC0309
:104A6000E82AE092CC03F6CF8A810E94A21EEE20B3
:104A7000E9F18A81805E883018F03A81311104C0F2
:104A80008E2D0E94421006C0E0948091CC03E82253
:104A9000E092CC030E94631529C049814F70E42E37
:104AA0005981507F503219F0E29480EFE8226A81F8
:104AB000662351F0613009F469C0FF2009F473C026
:104AC000DD2009F469C0C8CF2091230322FD37C03F
:104AD000FF2079F1EE2039F08091CD03E82AE092B1
:104AE000CD030E94631580E00E943B1FAB2DA850B0
:104AF000BB0B149710F40E944213CC20A9F08091B4
:104B0000D10280FD11C0F8011282859585958595A9
:104B10000E945D11C8010E94BE218091D10285953D
:104B2000859585950E942F1160E0C8010E94A31110
:104B30003ACC80E00E94A21EEE20C1F2A1CFFF205D
:104B400099F09091DA028E2D892BD11003C00E942A
:104B50001416CCCFA1E0DA12FACF22FFC7CF891703
:104B600029F28093DA02C2CFD11006C00E943C1015
:104B70008E2D0E940D16BACFB1E0DB1609F4B6CF28
:104B80008E2D0E940D160E943C10B0CFFF2031F0F8
:104B9000E5E0ED1508F4AACF8E2DD9CFF4E0FD1590
:104BA00008F4A4CFE5CFDD2019F32A81293349F495
:104BB0003FEF47EE53E0315040405040E1F700C036
:104BC00000008A810E94A21E91CF898186958695D8
:104BD000837069F0813009F089CF8A81998193705F
:104BE000F11002C080E090E00E94AA0C7FCF8A8181
:104BF00099819370F11002C080E090E00E94CF0C88
:104C000075CF6F2D8A810E94B11D70CF898183700D
:104C100009F041C0F1106ACF4A814295469547702C
:104C2000440F440F2A812F7030E0042E02C0220F5F
:104C3000331F0A94E2F76A8190E080E064FF09C0C4
:104C40008FE090E002C0880F991F4A95E2F78095A7
:104C50009095A981A695A695A370A23099F078F4B5
:104C600040911E0350911F03A13039F0822B932BEA
:104C7000842395230E946D1139CF242B352B822B51
:104C8000932BF8CF822B932B20911E0330911F037F
:104C900082279327EFCF8695FF2011F089818170BD
:104CA000882309F423CF4A81429546954770440FE3
:104CB000440F2A812F7030E0042E02C0220F331FD0
:104CC0000A94E2F7BA8190E080E0B4FF09C08FE077
:104CD00090E002C0880F991F4A95E2F78095909561
:104CE000E981E695E695E370E23099F078F4409139
:104CF000200350912103E13039F0822B932B842340
:104D000095230E942A11F2CE242B352B822B932B34
:104D1000F8CF822B932B20912003309121038227FF
:104D20009327EFCFF981FF70F983FF2029F08F2FB0
:104D30000E945D118A810BCF8A810E940D168981A4
:104D40000E942F11D3CE2A81223F81F160F4203FAF
:104D5000C1F0213F89F0FF2009F463C0D1107CCE5F
:104D600089818F7127C03A81333F39F1343F99F7F8
:104D70008091230382FD32C089818F71FF2001F36E
:104D800019C0FF2071F044E04D1508F4AFCE5981F1
:104D90005F7181E090E002C0880F991F5A95E2F799
:104DA000BACF65E06D1508F4A1CEF1CF89818F717E
:104DB000F110C6CF0E945D1199CE90E080E0FF20F7
:104DC00009F49FCF89818F71898381E090E0098008
:104DD00002C0880F991F0A94E2F793CFFF20B1F029
:104DE00099819F719983892F0E945D11809123037E
:104DF00082FF0AC0B981A8E0BA9FC0011124836074
:104E00008093D1028B2FD6CF8981D4CF81E00E94AD
:104E10004111E1E0ED1508F069CE82E00E944111F8
:104E200065CEDD2061F0FA81F93309F0CACE2FEFAB
:104E300037EE43E0215030404040E1F7C0CE898159
:104E40008F717ECF332029F0DC0119968C9185FF7C
:104E500009CC8A819B8197558F3F910511F008F00D
:104E60000BC1CA80DB80DD242A81BEE02B9FF001CC
:104E70001124AF01425C5E4F7A01D80112968C91E9
:104E8000ED5BFE4F908180FB90F99083882309F4BD
:104E9000F0CB0E943F1A9093360380933503F701BD
:104EA00082818F5F82838091CC039091CD03892B87
:104EB00083838091DA0284830680F781E02D309726
:104EC00031F0D7011C966D917C91C70109958EE058
:104ED0008C9DF0018D9DF00D1124E25CFE4F8581CB
:104EE00081FFC4CB90E080E09093CE038093CF030A
:104EF0002DC08091700290917102EA81FB81E817C8
:104F0000F90781F410927102109270021092C1039D
:104F10001092C2031092C3031092C4031092C903EB
:104F20001092C8038091CA039091CB03009709F4B3
:104F300090CFA8E08A16910408F087CB622D0E94DA
:104F4000450D811103C081E00E94D51E8091600350
:104F5000882309F4D0CBE090CD03F090DA020E94D0
:104F60003F1A88579C4E9093380380933703F8017B
:104F70008281882309F4BFCB8F2D8E298D7909F08A
:104F8000B8CB2A813B81203442E5340708F091CB2D
:104F9000211552E5350778F4211560E4360708F04D
:104FA00080CB211580E2380708F099CBC901263E55
:104FB000310509F0BACBD80112968C91882309F4F7
:104FC00085C01092F6038A819B819057839708F0E1
:104FD00067C084E090E00E94613590932303809342
:104FE0002203EA81FB81E150F047E232F10508F04B
:104FF000D8CBE053FA4C0C944D3561E0C8010E94C7
:10500000A3119B838A83D80112968C91882331F156
:105010008091CE039091CF03009701F1EA81FB814B
:10502000E817F907D9F0FEE08F9FC0011124FC01B9
:10503000ED5BFE4F208124602083825C9E4FEA81DD
:10504000FB81DC01ED93FC930E94CA151092CC0306
:1050500061E0C8010E94A3119B838A83D801129644
:105060008C91EA81FB81FE57E830F10508F0A7C971
:10507000EE50FA4C0C944D35EA81FB81E337FC4746
:1050800009F064CFD80112968C91882309F4EEC9F7
:1050900080916003882309F4F4CA0E94F515E6C9DB
:1050A0004A815B8146315C4709F077C08091CD032E
:1050B0008A7A91E009F490E09093720269E281119A
:1050C00065E388E692E00E94900CACCA8A819B81DD
:1050D00086319C4709F042CC8091720281111ECC2E
:1050E00089E20E9449109ECAC114D10409F062CA23
:1050F000312CD12CC12C80E00E94D51EF092CB0324
:10510000E092CA0381E08093C703D70116968C9181
:105110008093C50331100EC0CD2861F0D7018D9169
:105120009C919C0124503109213A310508F06BCA49
:105130000E944910F701C780D084C6019A95811555
:105140009F4110F420EED222BB24B394C6010197F4
:105150008F339E4708F0B12CD7011A96ED91FC9140
:105160001B97309731F01C966D917C9181E00995E9
:10517000B822BB2079F0F701878190850E94D31176
:105180008093C603C601F8E08F16910408F03ECA6A
:105190000E94FF0C0E94631542CAEA81FB81E33042
:1051A0002CE7F20709F4C9CB50F4E1154CE7F407FA
:1051B00009F4B6CBE130FC4709F4C5CBCFCB8A81EB
:1051C0009B818B35ACE79A0709F40CCC8C35BCE796
:1051D0009B0709F4BACB8A359C4709F0BFCB81E025
:1051E000BBCBCF93DF9380918C02807F09F04BC0C3
:1051F00080918902882309F446C08091D002C09131
:105200008F02409187025091880260918A027091CA
:105210008B02D42FD523C817B1F190E06115710529
:10522000A9F1DF3F99F1FC0123E0EE0FFF1F2A9562
:10523000E1F7DF01A057BD4F11962C91119725136F
:1052400025C02C91241322C012962C911297211163
:105250001DC013962D913C91261B370B283C310520
:10526000A8F480918C028F70806180938C02EB5641
:10527000FD4F80818F708061808387E892E00E947B
:10528000BE210E947610DF91CF910895019687701C
:10529000C2CFA5E1B0E0EFE4F9E20C94F4348C0164
:1052A00085E0F801DE01519601900D928A95E1F7B3
:1052B000F801E28087E8882E82E0982E40918A02E9
:1052C00050918B024115510509F454C19091870208
:1052D00020918802892F82238F3F09F44BC1D0800F
:1052E000C180A380B480F0908902B501641B750B66
:1052F000FF2009F41BC180918C02382F307F683C5D
:10530000710508F0CFC0311181C0FE2C2C111DC0D9
:105310009D111BC040918D0250918E0226813781D4
:105320004217530791F4E11010C08F708061809391
:105330008C02C4010E94BE2180918C02F8018583F9
:105340008F2D6596ECE00C941035A114B104C9F1D1
:105350008D2D8C218F3FA9F181E08E2580FF05C026
:105360004E2D6C2D8D2D0E945610A114B10459F1B3
:105370008D2D8C218F3F39F181E08E25F82FF17032
:10538000BF2E80FF39C04E2D6C2D8D2D0E945610E2
:10539000A82E811131C0D98ACA8A89899A890E9426
:1053A000B410292F22952F70243078F49F7022306A
:1053B000A8F09923B9F0F8019581907F99F4FA2C1F
:1053C000BFCF80E0CBCF80E0D9CF2A5F2F702230D3
:1053D00068F0C8010E94BE21AB2CF1CF992311F0D7
:1053E000882369F3805E883050F3F3CF803F38F331
:1053F000815F833070F7E3CFEE2009F4A1CF809175
:105400008C02816080938C02F12C9ACF2C111AC0EF
:105410009D1118C040918D0250918E0226813781D6
:105420004217530779F4E1100DC08583C8010E942B
:10543000BE2188E0F801A7E8B2E001900D928A95BC
:10544000E1F77ECFC8010E947211882339F1EE2066
:1054500029F180918C028032A0F020918702309156
:1054600088023A8729871B86BD86AC868E87809105
:105470008D0290918E02988B8F87CE0109960E94A3
:10548000BE2188E0F801A7E8B2E001900D928A956C
:10549000E1F70E94F128FF24F39452CFC8010E9443
:1054A000BE21F9CF31110AC087E892E00E94BE21E7
:1054B00088E0F40111928A95E9F7A6CF2C1117C064
:1054C0009D1115C040918D0250918E022681378129
:1054D0004217530761F4E1100AC08583C8010E9496
:1054E000BE2188E0F40111928A95E9F729CFC8011D
:1054F0000E947211882391F2EE2081F280918C0239
:10550000803208F4BECF20918702309188023A831E
:1055100029831B82BD82AC828E8380918D02909103
:105520008E0298878F83CE010196A9CF683C7105C2
:10553000C0F6FE2CEE2009F4B1CF2C110DC09D1148
:105540000BC020918D0230918E02868197812817A1
:10555000390711F488E06FCFC8010E9472118111E0
:1055600090CF80918C02816080938C02C8010E9450
:10557000BE21E6CEEE2009F491CFC8010E9472113F
:10558000F82E882309F48ACF88E0F801A7E8B2E072
:1055900001900D928A95E1F780918702909188029F
:1055A0000E94B4100E94F128CBCEA0E1B0E0EBED58
:1055B000FAE20C94FE3429873A874B875C876D8723
:1055C0007E878F87988BCE0109960E944929811189
:1055D00012C088E0FE013996DE01119601900D920D
:1055E0008A95E1F78C859D85892B29F089859A8597
:1055F00089238F3F81F58091D00290918F0289138A
:1056000017C06096E2E00C941A3593E0AA0FBB1F16
:105610009A95E1F7A057BD4F98E0FE0131960190B1
:105620000D929A95E1F780938F020E947610E3CF56
:10563000B8E08B9FC001112480579D4F0E944929DB
:105640008823F9F28091D00290E001968770992723
:105650008093D002D0CFA0918F02B0E0CD0101960F
:10566000877099272091D0022817190671F60E9499
:10567000671A10928F021092D00288E0E7E8F2E0F9
:10568000DF011D928A95E9F7B6CF0F931F93CF9351
:10569000DF9380916403E0916303CCE081111AC031
:1056A000DF91CF911F910F910895D1E0DE0FD0933C
:1056B00063030E2F10E0EC9FF0011124EB59FC4F17
:1056C00083819481892B29F08081918189238F3F67
:1056D00051F4ED2F80916403E81738F310926403BE
:1056E00010926303DDCFC09FD001C19FB00D112484
:1056F000AB59BC4F16968D919C911797892B29F425
:1057000018968D919C91019651F4208131814281AE
:10571000538164817581868197810E94D52AC09FBB
:10572000F001C19FF00D1124EB59FC4F148213823C
:105730001092CC03CECF1092B8031092B703109200
:1057400000028091B6038093B5030E94940D0E94DD
:10575000452B0895A3E0B0E0E0EBFBE20C94EE34BF
:105760002091B5032983E5E0FE2E01E010E0FCE086
:10577000BF2EAEEFEA2E8091B6039981891308C03F
:105780000E94452B0E94940D2396E2E10C940A3569
:105790007981672F70E07B836A83FB01EE0FFF1F27
:1057A000E355FC4F80819181F89EF001F99EF00D48
:1057B0001124E852FE4FA480A6FC5CC02091640333
:1057C0002983A5E6B3E0412C30E020E01F01798178
:1057D000271708F04DC01A966D907C901B97F10129
:1057E00080809180512C4FEF5FEFC52CD12CF601BA
:1057F000EE0FFF1FE80DF91D65917491661677068F
:1058000009F4A601672B11F05394EFCF4F3F5407D3
:10581000D9F1B80102C0660F771F4A95E2F7462A10
:10582000A801052C02C0440F551F0A94E2F741500D
:1058300051094416150621F5B29EF001B39EF00DF4
:105840001124EB59FC4FF89ED001F99EB00D1124A4
:10585000A852BE4F12962D913C9113973783268301
:10586000E082E182918780872A2D206814962C930C
:105870000E94650D8A819B810196837089837BCF0D
:1058800014961C921E9213972F5F3F4F1C969FCF2A
:10589000A7E1B0E0EEE4FCE20C94EE34498B5A8BC5
:1058A0006B8B7C8B8D8B61111092CC031D861E86B9
:1058B0001F86188A85E0FE017196DE011996019017
:1058C0000D928A95E1F78C859D85892B31F089852C
:1058D0009A8589238F3F09F0BDC129853A854B857B
:1058E0005C856D857E858F8598890E94D52ADEC06E
:1058F00021E5C2162CE7D20629F4882379F00E940C
:105900009B2BEBCF32E5C3163CE7D30639F4882353
:1059100029F0809100028111F2CFACC108ED11E0B5
:10592000E12CB12CA12C88248394912CF801608166
:10593000718166246A94762C90E0492F50E0FA0138
:10594000EE0FFF1FE60FF71F25913491C216D30605
:1059500009F43A01232B11F09F5FEFCFF12CFFEFF9
:105960006F167F0609F464C0F8018481482F4074E3
:10597000F09000022F2D86FD20E0F22FF170FF2E17
:105980002B85222309F4F3C0FF2309F4F0C087FD1F
:1059900016C09401062C01C0220F0A94EAF7822B4C
:1059A000F80184832091610330916203283C310522
:1059B00030F428EC30E03093620320936103A401BB
:1059C00002C0440F551F9A95E2F7CA010197F801EA
:1059D00024812F732817190659F58091B7039091E8
:1059E000B803009751F00E94750C893C910528F08E
:1059F000F8018481806484831BC08091B503609129
:105A0000B603982FF0E0E0E0861354C09093B503FE
:105A1000E017F10769F090E0FC01EE0FFF1FE3557E
:105A2000FC4FB182A0820196837099278093B603C0
:105A3000EF28FFEFAF1ABF0A0B5F1F4F28E0A21637
:105A4000B10409F073CF8B85882309F4EEC0EE20F2
:105A500009F4EBC00E943F1A9093B8038093B703F8
:105A600080916403863010F591E0980F9093640361
:105A700098E0FE013996DE01119601900D929A95FB
:105A8000E1F73CE0839FC00111248B599C4F28E033
:105A9000FE013196DC0101900D922A95E1F72FEF7E
:105AA0003FEFFC0131872087D386C2866796E2E10B
:105AB0000C940A35682E712CF301EE0FFF1FE3558D
:105AC000FC4F20813181F5E0F29FD001F39FB00DB2
:105AD0001124A852BE4F2D913C9111973F8B2E8BD4
