:100000000C94AB0A0C94E30A0C94E30A0C94392B7D
:100010000C94E30A0C94E30A0C94E30A0C94E30AAC
:100020000C94E30A0C94E30A0C94961B0C94521B58
:100030000C94F4250C94E30A0C94E30A0C94E30A60
:100040000C94E30A0C94E30A0C94E30A0C94E30A7C
:100050000C94E30A0C946F1C0C94E30A0C94E30ACE
:100060000C94E30A0C94E30A0C94E30A0C94E30A5C
:100070000C94E30A0C94E30A0C94E30A0C94E30A4C
:100080000C94E30A0C94E30A0C94E30A0C94E30A3C
:100090000C94E30A0C94E30A0C94E30A0C94E30A2C
:1000A0000C94E30A0C94E30A0C94E30A050109801A
:1000B000A101850319012AB700150126B700950192
:1000C00075108100C0050C0901A101850419012AE0
:1000D000A002150126A002950175108100C005013E
:1000E0000902A1010901A10005091901290815004A
:1000F0002501950875018102050109300931158135
:10010000257F95027508810609381581257F95019F
:1001100075088106050C0A38021581257F95017541
:10012000088106C0C00660FF0961A10109621500CF
:1001300026FF009520750881020963150026FF003F
:10014000952075089102C005010906A1010507194E
:10015000E029E715002501950875018102950175D3
:100160000881010507190029FF150026FF009506E3
:100170007508810005081901290595057501910289
:10018000950175039101C00000000000000000000F
:10019000000000000000000000000000000000005F
:1001A00000000000000000000000007E0F00D4FFEF
:1001B000FFFFC70000007800000000000000002AD8
:1001C0002B280000000000000000000000000000DC
:1001D000000029000000002C1E3420212224342697
:1001E00027252E362D3738271E1F20212223242590
:1001F000263333362E37381F0405060708090A0B45
:100200000C0D0E0F101112131415161718191A1BB6
:100210001C1D2F3130232D350405060708090A0B54
:100220000C0D0E0F101112131415161718191A1B96
:100230001C1D2F3130354C01048E966E773EFE7EAC
:100240005F1DB8F2664EFF5D19B0C20469542AD62C
:100250002EBFDD19B0C3E529B1E023A5A9B1C100C6
:1002600082674C1A978D795120C7068E7C7C7A76EE
:100270004FFD5930E2460E9EBEDF1D9991A0A5A10B
:10028000A9D022C6EF5C1B958990A2A7CCFB55286C
:10029000B3E44AF76C3BF46A562EDE1F9DB8D305D3
:1002A0008892A6CE1EBEDF1D99B0E246EF5C071114
:1002B0005D980B9D9497EE4E45336B44C7295627A6
:1002C00030C6A7D5F256DFB43862CBA0B6E30F84B0
:1002D000062405656F7689B577412782666582CCED
:1002E000D5E620D52717C5F803237C5F64A51DC17B
:1002F000D636CB4CD4DB66D78BB1997E6F4C36406B
:1003000006D6EBD7A2E4F495515A5496D55344D768
:100310008CE0B94068D218E9DD9A239248EE7F4319
:10032000AFEA7738848C0A72AF69F8DDF12483A3D1
:10033000F84ABFF59413DBBBD8B4B3A0FB455060BB
:100340003059123171A2D313E7FAE7CE0F63150BC0
:100350006B94BB378326059DFB4692FC0A15D10D95
:100360007392D68C1B8CB8558ACEBDFE8EFCED09DF
:1003700012839182513123FBB40C76AD7CD9B44BFE
:10038000B26714099C7F0C18BA3BD68E142AE41B62
:10039000529F2B7DE1FB6A3302FAAC5AF23E887E13
:1003A000AED1F378E805D1E3DC21F6E19ABD170E72
:1003B000D9469B8803EAF666BE0E1B5049964097C5
:1003C000F1F1E480A66EE87734BF294044C2FF4EC5
:1003D00098D39CA3322B76510409E7A9D1A632B158
:1003E0002353E247ABD6F5695C3E5FFAAE4520E5A4
:1003F000D244FF39326DFD27575CFDF0DEC1B5995F
:10040000E5F51C770175C56D5892F2B247000126DB
:10041000967A30FFB7F0EF77C18A5DDCC0D1293022
:100420001E77387A94F1B87A7EEFA4D1AC314AF2D3
:100430005D643DB2E2F00899FC70EE24A77EEE1EEA
:1004400020697D44BF8742DF883B0CDA42C904F94A
:100450004550FC838F116A72BC9995F0AC3DA73B67
:10046000CD1CE2887937115F3989950A16847AF6AE
:100470008AA428E4ED83803BB123A50310F466EA47
:10048000BB0C0FC5EC6C69C5D324ABD42AB79988D3
:100490007608A0A8957CD8386DCD5902514BF1B59E
:1004A0002B50E3B6BDD072CF9EFD6EBB44C8248AEC
:1004B00077188A1306EF977DFA81F031E6FA77ED27
:1004C0003106315B548A9F3068DBE240F84E73FAA4
:1004D000AB748B105813DCD2E678D1322E8A9F2C65
:1004E00058064827C5A95E8147894621910370A413
:1004F0003E889CDA330ACEBC8B8ECF9FD37180436B
:10050000CF6BA95183763082C56A853911501A8222
:10051000DC1E1CD57DA9719933471997B35AB1DFF9
:10052000EDA4F2E62684A2289A9EDFA66AF4D6FC01
:100530002E5B9D1A2A2768FBC183214B90E036DD94
:100540005B314255A013F7D089537199570929C5DA
:10055000F321F8372F40F3D4AF16083602FC77C5E5
:100560008B049056B9C9679A99E800D386FF972DF6
:1005700008E9B7B391BCDF45C6ED0F8C4C1EE65BB6
:100580006E3830E4AAE395DEB9E49AF5B2559A875D
:100590009BF66AB2F2779A31F47A31D11D04C07CAD
:1005A00032A29E9AF562F8278DBF51FFD3DF6437E0
:1005B0003F2A6F763A7D77069E777F5EEB3251F960
:1005C00016669A09F3B008A470964630FFDA4FE930
:1005D0001BED8DF8741F3192B3731736DB9130D653
:1005E00088556B3477877AE7EE06C61C8C190C4861
:1005F00046235E9C075CBFB47ED64F749CE2C55018
:100600008BC58B159060625729D01343A1808891C8
:100610000044C74D1986CC2F2A755AFCEB972A70D7
:10062000E378D891B04F9907A395EA2421D5DE51FC
:100630002093270A3073A8FF8A97E9A76A8E0DE8EE
:10064000F0DFECEAB46C1D392A622D3D5A8B65F857
:1006500090052E7E912C78EF8E7AC12FAC78EEAF7C
:100660002845064C26AF3BA2DBA39306B53CA5D894
:10067000EE8FAF25CC3F856848A962CC978F7F2A43
:10068000EAE0150AAD6207BD45F841D836CB4CDB30
:100690006EE63AE7DA15E9291E1210A0142C0E3D79
:1006A000F4BF394192750B257BA3CE399C1564C8E4
:1006B000FA3DEF7327FE262ECEDA6EFD718EDDFE3B
:1006C00076EEDC125C02C53A4E4E4FBFCA4015C7EB
:1006D0006E8D41F110E04F7E977F1CAE478E6BB15F
:1006E0002531B073C71B9779F980D3662230077420
:1006F0001EE4D08021D6EE6B6C4FBFF5B7D90987C9
:100700002FA914BE27D9725001D41373A6A7510282
:100710007525E1B345347DA88EEBF31649CB4F8C9C
:10072000A1B9368539755D0800AEEBF6EAD7133A04
:10073000215A5F3084522695C914F257556BB11077
:10074000C2E1BD3B51C0B7554C711226C70DF951DE
:10075000A43802057FB8F1724BBF718914F3773862
:10076000D97124F30011A1D8D46927083735C911EC
:100770009D901C0EE71CFF2D1EE892E11810957C41
:10078000E080F4964321F975216438DD9F1E9516AB
:10079000DA561D4F9A53B2E2E418CB6B1A65EB564A
:1007A000C63BE5FED8263F3A84597266A2F375FF30
:1007B000FB60B322AD3F2D6BF9EBEA057CD88F6D62
:1007C0002C989E2B93F15E46F08749297368D77F5A
:1007D000F9F0E57DDB1D7519F3C4589B1788A892C5
:1007E000E0BEBD8B1D8D9F5676ADAF29E2D9D552A7
:1007F000F6B55635573AC8E156431994D3049B6D64
:1008000035D80B5F4D198EECFA64910A72202BBC1F
:100810001A4AFE8BFDBBED1B23EAAD7282A129991A
:1008200071BDF095C103DD7BC2B23C2854D368A4EE
:1008300072C86696E0D1D87FF8D1262BF7ADBA55AD
:10084000CA15B932C3E588978E5CFB92258BBFA28F
:1008500045557AA76F8B575BCF0ECB1DFB20827758
:10086000A88CCC16CE1DFADECC0B62FECCE1B7F024
:10087000C381647340A0C24D8911753355338DE82F
:100880004AFDEA6E300BD7312CDE47E3BFF8554204
:10089000E27F59E517EF99346991B1238E20872DB6
:1008A000A8FED58AF3843AF037E4090054EE67498C
:1008B00093E48170E3904DEFFE41B7997BC183BA19
:1008C00062126F7DDE6BAFDA16F95551EEA60C2B76
:1008D00002A3FD8DFB3017E46FDF3671C4CA872594
:1008E00048B047ECEAB4BFA54D9B9F0293C4E3E434
:1008F000E8422D6881150AEB845BD6A874FB7D1D48
:10090000CB2CDA462A7662CEBC5C9E8BE7CFBE78D3
:10091000F57CEBB33A9CAA6FCC72D159F21123D675
:100920003F48D1B7CEB0BFCBEA80DE57D45E972F19
:1009300075D1508E802C6679BF724BBD8A816CD385
:10094000E101DCD21526C536DA2C1AC02794EDB7A2
:100950009B850B5E8097C5EC4FEC885D5007354753
:10096000DC0B3B3DDD60AFA85D813824255D5C1567
:10097000D1DEB3ABEC0569EF83ED5754B864641175
:10098000163269DA9F2D7F36BB445A34E87FBF03A5
:10099000EB007F59682279CF736C2C29A7A15F38AF
:1009A000A11DF02053E01A6314587110AA080C3EE0
:1009B000161A6022827FBAA443A0D0AC1BD56B6408
:1009C000B51493319E5350D05766EE5A4FFB032A0D
:1009D000695876F183F74EBA8C4206605D6DCE6041
:1009E00088AEA4C3F103A54B98A1FF67E1ACA2B800
:1009F00062D76FA031B4D277AF211006C69AFF1D1F
:100A000009170E5FF1AA54344B458A8763A6DCF9B7
:100A1000243067C6B2D6613369EE50615728E77E4D
:100A2000EEEC3A5A734EA88DE418EAEC4164C8E241
:100A3000E866B62DB6FB6A6C16B3DD4643B97300A3
:100A40006A71ED4E9D251AC33C4A9515993581145E
:100A500002D6989BECD8233B8429AF0C9983A69AA5
:100A6000344FFAE8D03C4BD0FBB668B89E8FCDF738
:100A7000602D7A22E57DAB651B95A7A87FB67747E9
:100A80007B5F8B1272D0D491EFDE19503CA78BC4E0
:100A9000A9B323CB76E681F0C1048FA3B8545B974A
:100AA000AC19FF3F55272FE01D429B57FC4B4E0FC3
:100AB000CE98A9435703BDE7C894DF6E367332B4AE
:100AC000EF2E857A6EFC6C188275359007F3E49FE3
:100AD0003EDC68F3B5F31980920699A2E86FFF2E09
:100AE0007FAE42A45FFBD40E812BC304FF2BB374F3
:100AF0004E365B9C1500C6472BE88B3DF19C039A54
:100B0000587F9B9CBF854979352E567B41143947C8
:100B10008326AA078998111B86E7737AD87D7861A6
:100B200053E979F5368D449284F91350583BA46A01
:100B30003665498E3C0EF16FD284C47E8E3F39AE4D
:100B40007C84F163378E3CCC3E448145F14BB9ED5A
:100B50006B365DBB20601A0FA3AA55773AA9AE3752
:100B60004DBAB8866BBC0850F6CCA4BD1D4072A52A
:100B700086FAE210AE3D584B97F34374A99EEB21E1
:100B8000B701A4869397EE2F4F3B86A1416F412674
:100B900090785C7F30384B3FAAECED5C6F0EAD4334
:100BA00087FD9335E601EF412690999EFB195BADD9
:100BB000D2918AE046AF65FA4F84C1A12DCF458B13
:100BC000D38550557CF96788D44EE9D76B6154A121
:100BD000A4A6A2C2BF309C409F5FD7692B24825E2F
:100BE000D9D6A712541AF7559F7650A99584E66B6B
:100BF0006DB59654D6CDB3A19B46A7944DC494B47D
:100C000098E3E1E234D533160754CDB77753DB4F81
:100C10004D469DE9D49C8A36B6B838266C0EFF9CAA
:100C20001B438B80CCB93DDAC7F18AF26DB8D7741B
:100C30002F7E1EB7D34AB4ACFC79486CBC96B694F0
:100C400046572DB0A3FC1EB95260852D41D04301FB
:100C50001E1CD57DFCF3960DC7CB2A299A93DD88FF
:100C60002D375DAAFB4968A09C50867F685657F9CE
:100C7000791839D4E001843361CAA5D2D6E4C98A8F
:100C80004A23444EBCF0DC24A1A0C4E2073C10C4BB
:100C9000B5254B6563F480E7CF61B1718221872C64
:100CA000F59100320CECA9B59A7485E3368F764F36
:100CB0009C6DCEBCAD0A4BED7604CBC3B9339E011F
:100CC0009396697DC5A245799B045C8409ED8843B0
:100CD000C7AB931426A140B5CE4EBF2A42853E2C09
:100CE0003B54E8121F0E9759B22789FAF2DF8E683B
:100CF00059DC06BCB6850D0622ECB1CBE504E63D19
:100D0000B3B04173083F3C588663EB50EE1D2C375F
:100D100074A9D318A3476E9354AD0A5DB82A555DE4
:100D200078F6EEBE8E3C7669B940C234EC2AB9ED55
:100D30007E20E48D0038C7E68F44A886CEEB2AE9F2
:100D400090F14CDF32FB731B6D921E95FEB4DB6598
:100D5000DF4D23548948BF4A2E70D6D762B4332959
:100D6000B13A334C236DA676A5216348E6905DED3C
:100D700090950B7A84BEB80D5E630C62264C145AB3
:100D8000B3AC23A474A76F333005600142A028B729
:100D9000EE1938F164808243E141271F1F90547A95
:100DA000D5232ED13DCB28BA587FDC7C9124E9286D
:100DB00051836EC5562142EDA05622A140806BA8FA
:100DC000F794CA136B0C39D9FDE9F36FA69EFC703A
:100DD0008AB3BC593C1E1D6CF97CAFF9887195EB48
:100DE0005700BD9F8C4FE12483C522EAFDD30CE25E
:100DF00017187C6A4CDE77B4539B4C81CD2360AAD4
:100E00000E25739C02793230DF74DF7519F4A51456
:100E10005CF77AA8A591847C6003063BCD50B62789
:100E20009CFEB1DDCCD3B05924B2CAE21C81229D14
:100E3000078F8EB9BE4EFAFC3965BABF9D12375E78
:100E4000977EF389F55DF5E3098C62B5209D0C531F
:100E50008A681BD28F75175DD4E5DA756219146A3A
:100E6000262DEBF8AF37F06CA455B1BCE233C09A35
:100E7000CAB011494F689B3B6B3CCC13F6C78561E8
:100E80006842AEBBDDCD4516291DEADBC803943CA4
:100E9000EE4F8211C3EC28BD970599DED7BB5E22C9
:100EA0001FD4EB64D992D985B76A056AE42441F16D
:100EB000CDF0D83FF89E0ECD0B7A706B5A750A6A4A
:100EC0003388EC17750870102F24CFC4E9420061F5
:100ED00094CA1F3A7606FAD24881F077600345D962
:100EE00061F4A46F3DD930C3046B542AB7EC3BF4D2
:100EF0004BF5685226CEFF5D1991A0A3A5A9B1E0DC
:100F000023C40A774DF95120A3A5A9B1C100828657
:100F10008E7F5D1991A0A3C4EB540B756852078CAA
:100F20009A978D79706246EF5C1B95897141E1213A
:100F3000A1A1A1C002674C1AB6CFFD785324ABB56E
:100F4000C9F16023A5C812876D5813858892876DF3
:100F50005832C70C9A97ACDA36EE5E3EDF1DB8F217
:100F6000662FBDF87247ED5813858892878C7B55A4
:100F70000990A2C6EF3DF85324ABD42AB7EC5A36F9
:100F8000EE5E3EDF3CFA764FFD5930E246EF3DF82B
:100F900053056931C10082868E7F5D19B0E227CC8E
:100FA000FB744B148B948B756833C50892878C9AAD
:100FB000B6CF1CBAD70D98B2E62FDC1B95897160AD
:100FC00023C40A968F9CBAF66E3FFC5B15A8D22606
:100FD000AFBDF872662FDC1BB4CB148B94AAB7CDCF
:100FE000F951018082866F3DD930E227CCFB744BEA
:100FF00014AAB7CDF97043046B35C9F16023A5C8B5
:10100000F3450892876D5832E62FBDF872664E1E82
:10101000BEFE7E7E7E5F1D9991A0A3C40A774D1807
:1010200093A4ABD40B754910A2C6EF3DF85324AB83
:10103000B5E833E44A16AEDE1FBCDB15A8B3C5081D
:101040007345E931C1E121A1A1A1C002866F5C3ADB
:10105000D70D9893A4CA16AEDE1F9D99B0E246EF55
:101060003DF872470C9AB6CFFD5911A0A3A5C8F35D
:10107000450892876D39F043048A96AEDE3EDF1D47
:101080009991A0C2066F3DF872470C9A978D98937C
:1010900085887345E931E023A5A9D003848A96AEFB
:1010A000DE1FBCDB15A8D226CEFF5D1991818082A0
:1010B000672DD813A4ABD40B94AAB7CDF95120A3B4
:1010C000A5C8F345E95022C6EF5C3AD70D98938541
:1010D0008873644AF74DF95120A3C40A96AEDE3EE8
:1010E000FE7E7E7E5F3CFA764FFD7872662FBDD91C
:1010F00030C3E54812878C7B5528D2078C9A97AC71
:10110000DA178D795120A3C4EB540B948B94AAD693
:101110002EBFFC5B15A8D226AFDC1BB4EA37EC3B34
:10112000F46A37CD1893856931C1E140E325C812CF
:10113000878C9AB6CFFD5911A0C2068E7F5D38F21A
:10114000470C7B746A37EC5A36EE3FFC7A764F1CBC
:101150009B95897141006344EB542AD60F9CBAD702
:101160000D9893856931C10082868E9EBEDF3CFA60
:10117000572CDA36EE3FFC5B158971410082868E72
:101180007F5D38F247ED5813A4CAF74DF95101803D
:101190006344EB542AD62EBFDD1991A0A3A5A9B1B3
:1011A000E042068E7F5D1991A0A3C40A968F7D78D8
:1011B00072470C7B746A562EDE1FBCFA570D7951AC
:1011C000016121A1C0E325A9B1C1E14002674C1A28
:1011D000978D9893A4ABD42AD60F9C9BB4CB14AA1A
:1011E000B7CDF95120A3C4EB35C9F16042068E7F1B
:1011F0007C7A766E3FFC7A766E5E3EFE7E5F3CDBEE
:1012000015897141E121C0E344EB542AB7CDF9704F
:101210006227ADD832C70C7B744B14AAB7EC3BD510
:1012200028D2076D39D120C2E74C1A978D98B2C7E2
:101230000C5928F39B14001A00080015001700042D
:10124000281624072109220A001D441B0006001944
:101250000005002B41000029432C4200001300121E
:10126000000C0018001C0034380F240E310D320B16
:101270000038443700360010001100284600002ACC
:10128000454C00000000000000000000000000E3EA
:1012900000E200E000E100000000000000000000AB
:1012A00000000001000000000000000000450042B6
:1012B0000041004000460044003F003E003D004722
:1012C0000043003C003B003A0048000000000000E2
:1012D000000000000000000000000000000000E32B
:1012E00000E200E000E1000000000000000000005B
:1012F00000000000000000000001000000000000ED
:101300000000000000000039004F00520051005062
:10131000004D004B004E004A004900280000002A02
:10132000000000000000002278207821780000AC46
:1013300000AA00A800A900AB000000000000000304
:101340007C007CAD0000000100AE00000000002128
:1013500078207822780000AB00A900A800AA00AC91
:1013600000000000000000037C007CAD000000AE27
:101370000000000000000000000000007E027EE38C
:1013800000E200E000E10000000100067E047E03B0
:101390007C007CD3000000D200D1000000000000DF
:1013A000000000007E027EE300E200E000E10000B9
:1013B000000100067E047E037C007CD3000000D187
:1013C00000D20000002F002400250026003000334A
:1013D000002100220023002E0035001E001F0020E7
:1013E0000031002D00000037002700000000000041
:1013F00000000000000000E300E200E000E1000067
:1014000000000000000000000000000000000001DB
:1014100000000000002F02240225022602300233C1
:10142000022102220223022E0235021E021F022086
:101430000231022D020000260227020000000000F7
:1014400000000000000000E300E200E000E1000016
:10145000000000000000000000000001000000008B
:10146000000000000009027400040100A0FA090451
:1014700000000103010100092111010001224000C7
:1014800007058103080001090401000203000000B0
:101490000921110100012222000705830320000118
:1014A00007050403200001090402000103010200F2
:1014B00009211101000122470007058203080001EC
:1014C00009040300010300000009211101000122A9
:1014D0003200070585032000011201000200000010
:1014E00008F8A830180002010200013E034300681A
:1014F00000610072007900620064006900730020DE
:10150000004E0061006E006F00200028003300785C
:101510000035002B0033002900200045006C0069D5
:1015200000740065002D00430000002403420061A8
:10153000007300740061007200640020004B0065BD
:1015400000790062006F00610072006400730000A7
:1015500000040309040011241FBECFEFDAE0DEBF50
:10156000CDBF04B603FE18C080918D0290918E020B
:10157000A0918F02B09190028730904BA740B04B62
:1015800059F410928D0210928E0210928F021092D6
:101590009002E0E0F8E3099511E0A0E0B1E0ECEDA5
:1015A000FAE502C005900D92A439B107D9F722E0FF
:1015B000A4E9B1E001C01D92AD38B207E1F70E9485
:1015C0001B260C940B2D0C940000E8EDF0E08081BC
:1015D0008E7F80831092E2001092DA001092E10078
:1015E000A0EEB0E08C9181608C9380818F778083B6
:1015F00019BCA7EDB0E08C918E7F8C9380818F7E9B
:10160000808310926E0208952091E4003091E500ED
:1016100095E6A9012091EC00822F817020FF06C081
:101620008091E80080FF06C080E008952091E800E6
:1016300022FD1AC080917B02882389F0853089F0D1
:101640008091EB0085FD0FC02091E4003091E50012
:1016500042175307F9F29150E1F684E0089582E0D1
:10166000089583E0089581E0089580917D0287FFC9
:1016700013C08091E80082FF06C08091E8008B775C
:101680008093E80004C080917B028111F2CF08951D
:1016900080917B028823D9F38091E80080FFF8CF06
:1016A0008091E8008E77ECCF982F9093E900242F5B
:1016B000762F50E0891731F07091EC002091ED0009
:1016C0005091F00021FD07C09F5F973071F7809324
:1016D000E90081E008953091EB003E7F3093EB000C
:1016E0003091ED003D7F3093ED003091EB003160A3
:1016F0003093EB007093EC002093ED005093F000DA
:101700002091EE0027FDE0CF80E00895B0E0A0E05A
:10171000ECE8FBE00C945F2CC8EDD0E088818F7E74
:101720008883E7EDF0E080818160808384E082BF80
:1017300081E080936E0288818E7F888302EE10E0C4
:10174000F80110821092DA0081EEC82ED12CF60139
:10175000108288818F7788838881806888838881D8
:101760008F7D888319BC10927B0210927C021092AC
:101770007A021092790290EEE92EF12CF701808125
:101780008B7F808388818160888342E060E080E095
:101790000E94540BF60180818E7F8083F801808146
:1017A00081608083808188608083F70180818E7F63
:1017B0008083888180618883CDB7DEB7E8E00C94B0
:1017C0007B2CFC01809183029091840286179707FD
:1017D000A0F06115710529F49091E8009E7790932F
:1017E000E80090E06115710551F4911108C08091F5
:1017F000E80082FF34C080E00895BC01F2CF809100
:101800007B028823C1F18530C1F18091E80083FD1E
:1018100030C08091E80082FDEACF8091E80080FF2F
:10182000E1CF8091F3002091F200382F611571050E
:1018300019F02830310558F091E02830310509F0D1
:1018400090E02091E8002E772093E800CBCF8191A3
:101850008093F100615071092F5F3F4FE7CF809176
:101860007B02882341F0853041F08091E80083FFBE
:10187000BECF81E0089582E0089583E008958091CD
:10188000700208959C014FB7F89480916A0290917C
:101890006B02A0916C02B0916D024FBF821B930B43
:1018A00008952FB7F89460916A0270916B0280914D
:1018B0006C0290916D022FBF08959C01FC0132963D
:1018C0009FEF80E04191461751F09F3F19F441117D
:1018D00001C0982F8F5F8630A9F79F3F09F40895C4
:1018E000290F311D97FD3A95F90162830895A3E010
:1018F000B0E0EDE7FCE00C94652C2091670230919C
:10190000680228173907A1F0909368028093670254
:10191000E0916502F0916602309751F024E029834E
:101920009B838A830680F781E02DCE01019609957D
:101930002396E2E00C94812CA3E0B0E0E2EAFCE024
:101940000C94652C209163023091640228173907AA
:10195000A1F09093640280936302E0916502F0919C
:101960006602309751F023E029839B838A830680A7
:10197000F781E02DCE01019609952396E2E00C94C3
:10198000812CFC01680F791F8FEF91E32191822751
:1019900028E030E087FF09C0880F892721503109EE
:1019A000C9F7E617F70791F70895880FF7CF80E09A
:1019B0000895F894E82FE295EF70F0E031A1282F18
:1019C0002F7081E090E001C0880F2A95EAF7982FE8
:1019D0009095932391A392A1892B82A37894089543
:1019E0009091350292FF06C0282F28712830F9F413
:1019F000877F846093FF06C0282F28712831F1F477
:101A0000877E84612091360220FF06C0382F38710E
:101A10003830D9F4877F816021FF06C0282F2871D4
:101A20002831D1F4877E816194FD877E0895282F27
:101A300024712430F9F68B7F8860DCCF282F247145
:101A4000243101F78B7E8861DDCF382F3171313041
:101A500019F78E7F8860E0CF282F2171213121F77F
:101A60008E7E8861E1CF82389105B9F1B0F481337F
:101A7000910509F47DC048F48932910509F46DC0DF
:101A80008A32910509F47BC008958533910509F4E4
:101A90005FC08933910509F10895833E9105D9F11D
:101AA00038F4803E910529F1823E910579F108953F
:101AB000863E9105D9F1873E910509F43EC0843EEA
:101AC000910541F52091360221FF24C08091350215
:101AD00084FD19C087EE90E00895209135022370AF
:101AE00009F05AC02091360223FF14C089E290E029
:101AF00008952091350220FD38C03091360230FF24
:101B000009C024FF43C090E080E008952091350291
:101B100022FDF7CF08952091350222FD3AC0309181
:101B2000360230FD39C024FFF5CFEDCF20913502CC
:101B300023FFF0CF24FDE7CFCDCF2091350223FD49
:101B40002EC03091360231FFEECF84EE90E0089542
:101B50002091350225FFDECFC9CF2091350225FD2A
:101B600021C02091360223FFD5CF89E390E0D2CF68
:101B70002091350226FFCECF8AE290E00895209191
:101B8000350226FFC7CF81E390E0089583EE90E011
:101B9000089582EE90E0089580EE90E0089586EE3C
:101BA00090E0089585E390E008951F93CF93DF932D
:101BB0000E94330DEC01C11580E5D807F0F5C11581
:101BC00080E4D80708F0AAC0C03ED10520F5CD3C7E
:101BD000D10508F090C0C83AD10578F4C53AD105CE
:101BE00008F081C0C130D10519F1209709F1C43046
:101BF000D105F0F4D0E0C0E01BC0C33CD105D0F764
:101C0000C85AD0E0CC0FDD1FC25CDE4F0990D881EE
:101C1000C02DD4640DC0C11580E2D80708F0C9C03A
:101C2000C11581E0D80708F068C0C83ED10510F79B
:101C3000CE01DF91CF911F910895C03682E5D8077C
:101C400018F5C03482E5D80708F079C0C03282E5C3
:101C5000D80708F06DC0C11582E5D80708F48FC019
:101C60002C2F2695269580E2289F900111248C2FF9
:101C70008370C1E0D0E002C0CC0FDD1F8A95E2F78F
:101C8000C22BD32BDD68D4CFC03C82E5D807F8F453
:101C9000C03A82E5D80708F067C0C03882E5D807A7
:101CA00008F0A8CF2C2F26952695277080E2289F34
:101CB000900111248C2F8370C1E0D0E002C0CC0FC2
:101CC000DD1F8A95E2F7C22BD32BDA68B1CFC03E75
:101CD00082E5D80708F08ECFDC2FCC27CC27DF7128
:101CE000C06FD06AA5CFC55AD0E0C55CDE4FC881B1
:101CF000D0E0D0649DCFD0659BCF8D2F0E94F00C9B
:101D0000182FCE0199270E94330DC12FD0E0DC2F70
:101D1000CC27CC27DF71C82BD92B8ACFCE019927AE
:101D20000E94330DCC27DF70C82BD92BD06A80CF0F
:101D3000CF71D0E0DC2FCC27C16FD06A79CF2C2FA8
:101D400026952695277080E2289F900111248C2FDC
:101D50008370C1E0D0E002C0CC0FDD1F8A95E2F7AE
:101D6000C22BD32BDC6864CF8C2F8F710E94F00CB8
:101D7000C82FD0E0DC2FCC27CC27DF7159CF8C2F98
:101D80008F710E94F00C55E0D695C7955A95E1F7F2
:101D9000CF70D0E0DC2FCC27282F30E084FF05C0A7
:101DA00044E0220F331F4A95E1F7C22BD32BD069B1
:101DB0003FCF8D2F8F710E94F00C182FCE019927E5
:101DC0000E94330DC12FD0E0DC2FCC27CC27DF7150
:101DD000C82BD92BD0622CCF2091E5019091B40172
:101DE00056E0291302C080E0089530E0529FF001D0
:101DF000539FF00D1124EB54FE4F7181761306C0F2
:101E00007081781303C07281741304C02F5F3F4F39
:101E10002770E7CF81E008958091E5019091B401AA
:101E2000981301C008958F5F8770FACF292F9830DB
:101E300078F5853068F590E035E0239F800D911DA1
:101E40001124682F677023E0969587952A95E1F70E
:101E5000FC01EE0FFF1FE80FF91FE156FE4F50E0A7
:101E600040E080E0219130E0062E02C036952795B3
:101E70000A94E2F721703327042E01C0220F0A943E
:101E8000EAF7822B4F5F5F4F4330510559F70895B2
:101E900080E00895292F983098F5853088F590E0F6
:101EA00035E0239F800D911D1124282F277041E0DC
:101EB00001C0440F2A95EAF723E0969587952A9565
:101EC000E1F7FC01EE0FFF1FE80FF91FE156FE4F8F
:101ED00030E020E070E05191DF011197CB01022E3C
:101EE00002C0969587950A94E2F7817081958527BF
:101EF000842385278C932F5F3F4F2330310559F77B
:101F000008958093330208958091EF010E94F00CB0
:101F1000982F927281E009F480E008950F931F9347
:101F2000CF93DF938B01EA0190917B02943061F5AE
:101F30008093E9008FEF9091E800815095FD06C0F5
:101F400095ED9A95F1F700008111F5CF8091E800A9
:101F500085FF1AC00E94040B811111C08091E80016
:101F600085FD06C08091E8008E778093E800F2CF6F
:101F7000F80181918F018093F100219779F7809189
:101F8000E8008E778093E800DF91CF911F910F9149
:101F9000089543E050E0BC0185E00E948E0F089553
:101FA00045E050E0BC0182E00E948E0F0895CF937F
:101FB000DF93EC0148E050E0BC0181E00E948E0F0D
:101FC00088E0FE01A1E7B2E001900D928A95E1F769
:101FD000DF91CF91089581E08093E00080E28093CB
:101FE000D8001092C9008FE19EE40197F1F700C07C
:101FF000000087E090EBDC0180938D0290938E02CD
:10200000A0938F02B093900288E19CE00FB6F89401
:10201000A895809360000FBE90936000FFCFB0E062
:10202000A0E0E5E1F0E10C945D2C7C015B016A012C
:102030008091240201E010E08A3010F40AE010E000
:10204000C1E0D0E0B501C701F6010995811104C0D6
:1020500021960C171D072CF4CDB7DEB7EAE00C94DF
:10206000792CCC9F9001CD9F300D300D112490E044
:1020700080E045E34A95F1F7000001968217930747
:10208000C1F7E0CF80910002811110C08091D8008B
:1020900080618093D8008AE18A95F1F700C0809131
:1020A000D90080FF0AC081E08093000281E0909116
:1020B0000002913009F080E0089582E080930002F0
:1020C0000E94E50A10927B02F1CF0E944210882301
:1020D00059F0E0916502F0916602309729F0019085
:1020E000F081E02D0995089580E008950E94421046
:1020F00091E089270895CF930E94761028E030E080
:1021000043E060E080EF0E949729C82F811105C04D
:102110000E946F2A8C2FCF91089585E08A95F1F760
:102120000000F8CFCF93DF93EC010E94761081116D
:1021300006C0CE010E944211DF91CF910895D09345
:102140006102C0936002F8CF80918A0286FF05C0C9
:1021500084E690E00E949210089587FF09C082955E
:10216000837024E6829FC001112488539F4FF2CFD1
:102170008F7028EC829FC001112480579E4FEACFB8
:10218000CF93C82F82958170C11101C080E09091DA
:102190008A0280FB97F990938A020E94A410C09350
:1021A0003402CF9108959091340221E030E0F9019A
:1021B00001C0EE0F8A95EAF7D90102C0AA0FBB1F32
:1021C0006A95E2F7EA2B01C0220F4A95EAF7892FB8
:1021D0008E23E81305C0292B822F0E94C01008957A
:1021E00020952923F9CF21E030E001C0220F8A9504
:1021F000EAF720958091340282230E94C01008954E
:1022000021E030E001C0220F8A95EAF78091340284
:10221000822B0E94C0100895A2E0B0E0E2E1F1E15B
:102220000C94622C182FF62E0E947B10082F81111F
:1022300006C000E0802F2296E5E00C947E2C10353D
:1022400049F00E947610E5E8F2E0882311F0E6E814
:10225000F2E0108210681983FA8262E070E0CE0129
:1022600001960E943F2A892B21F78AEB8A95F1F784
:1022700000C00E946F2A83E492E00197F1F700C04A
:102280000000D8CFCF93DF93EC010E947610CE01EF
:1022900064E670E00E948C2C61507109683771050A
:1022A00010F067E770E08FE00E940C11DF91CF9192
:1022B0000895CF93C82F0E947B108823C9F08C2FDC
:1022C0000E940F2A8FE792E00197F1F700C000000B
:1022D0000E94272AC82F95E09A95F1F700000E94E6
:1022E0006F2A85E68A95F1F700008C2FCF9108952B
:1022F000C0E0FBCF0E9476108FE00E9459118F5FE3
:1023000024E6829FC00111240895CF93DF93C6E590
:10231000D2E060E0CE010E94C12C2196C11584E07C
:10232000D807B9F7DF91CF9108951F93CF93DF932B
:10233000122F8730E0F46830D0F44530C0F4C42F59
:10234000D0E0CC0FDD1F9AE0699FC00DD11D112494
:1023500090E5899FC00DD11D1124632FCE01869673
:102360000E94C12C612FCE0187960E94C12CDF9163
:10237000CF911F910895AF92BF92CF92DF92EF92CB
:10238000FF921F93CF93DF9385E3C82E82E1D82E6F
:10239000D0E07601C0E014C0F50125913491412FC1
:1023A0006C2F8D2F0E94951182E0A80EB11C1F5F2B
:1023B000153091F78AE0E80EF11CCF5FC83019F0B4
:1023C000570110E0E9CFDF5F80E5C80ED11CD730A0
:1023D00001F7DF91CF911F91FF90EF90DF90CF90A9
:1023E000BF90AF900895CF93C82F6FEF811163E234
:1023F00082E290E00E94C12C6FEFC11163E083E2A2
:1024000090E00E94C12C6FEFC11169E284E290E07C
:102410000E94C12CCF91089580E00E94F31160E0EA
:1024200085E290E00E94C12C0E94BB110E948511A0
:1024300081E00E94F31108950F931F93CF93DF93D0
:10244000873030F5683020F5453010F5C42FD0E0E6
:10245000CC0FDD1F2AE0629FC00DD11D112430E595
:10246000839FC00DD11D1124CE0186960E94AD2CF4
:10247000082F10E0102F0027CE0187960E94AD2C68
:102480009801282BC901DF91CF911F910F910895D9
:1024900090E080E0F8CF462F783040F4653030F49B
:1024A000873020F4672F0E941C12089590E080E08E
:1024B0000895CF92DF92FF920F931F93CF93DF93F4
:1024C0006C010091340280913302082BC6E0D0E009
:1024D00010E0FC2EC8010C2E02C0959587950A9439
:1024E000E2F780FD0CC02197A0F7F12C8F2DDF9132
:1024F000CF911F910F91FF90DF90CF900895B6017B
:102500008C2F0E944B120E94D50D019761F3EECFE4
:10251000CF93DF93EC010E945912BE010E944B122F
:102520000E94D50DDF91CF910895FC0183819481A4
:10253000892B29F08081918189238F3F51F480E09C
:102540000895843FE1F717C0883EA8F0813FB9F7AE
:1025500012C0808191810E94881292959F7096305E
:1025600099F358F4925F9F70923048F7803F19F0CA
:1025700040F7883E20F781E008959A5FF4CF82E229
:1025800090E00E94AD2C833289F483E290E00E94B7
:10259000AD2C833059F484E290E00E94AD2C91E0A0
:1025A000893209F090E0892F8170089580E0FCCF96
:1025B000A6E1B0E0EEEDF2E10C94632C4A8B5B8B6C
:1025C0006C8B7D8B8E8B8E01095F1F4F86E0F8012F
:1025D00011928A95E9F70E9476100E94761088235E
:1025E000A1F18091860281113DC060E080E50E94EA
:1025F0000C1181112DC086E0FE013796DE01119687
:1026000001900D928A95E1F786E0FE013196DE0198
:10261000179601900D928A95E1F78F8183FF4FC045
:1026200085E0FE017296DE011D9601900D928A955D
:10263000E1F72D853E854F855889698970E080E0F6
:1026400090E06696E4E00C947F2C80918502CBCFDD
:102650000E947610E5E8F2E0882311F0E6E8F2E067
:1026600081E080830E947B10882329F280E50E940C
:102670000F2AFAEBFA95F1F700C066E070E0C801A6
:102680000E94572A8F81877049F00E947610E5E8F2
:10269000F2E0882311F0E6E8F2E010820E946F2A4F
:1026A00089859A859195819591099A8789878B85E6
:1026B0009C859195819591099C878B879CCF898179
:1026C00087FD03C010926202ABCF2B813C818D81CC
:1026D0009E8140916202411103C041E04093620239
:1026E00020384FEF34078CF02038310514F02FE7F5
:1026F00030E08038EFEF9E0754F08038910514F0F9
:102700008FE790E02B8B8C8B8BCF20E8F2CF80E88B
:10271000F9CF0F931F93CF93DF930E9476100E94FF
:102720008F290E947B10882309F48AC025ED2A9501
:10273000F1F700000E946F2A85ED8A95F1F70000FD
:102740006AE58AE30E940C11882309F479C09FEF9F
:10275000E0E7F2E09150E040F040E1F700C0000017
:1027600082E00E94591183E00E94591184E00E9486
:10277000591185E00E94591186E00E9459116DE1BE
:1027800083E10E940C11882309F45AC08FE39CE96D
:102790000197F1F700C0000068E183E10E940C118D
:1027A0000E947B10882309F44BC082EE0E940F2AFE
:1027B00090E59A95F1F7C7E3D2E005E312E1FE0157
:1027C00084910E940F2AF0E5FA95F1F721960C17F3
:1027D0001D07A9F78FE193E00197F1F700C0000012
:1027E0008AE20E94591160E080E10E940C110E946F
:1027F0006F2AEFE3FCE93197F1F700C000000E9477
:1028000076106FE08FE00E940C118FE99FE0019736
:10281000F1F700C0000060E080E10E940C1169E661
:1028200081E10E940C1162E083E60E940C1180E0BD
:102830000E9459118FE30E9459118AE20E94591196
:10284000DF91CF911F910F9108958091EF019091A9
:10285000EE01892B8093960148E050E066EE71E02E
:1028600086E991E00E94F52C892BA9F088E0E6E941
:10287000F1E0A6EEB1E001900D928A95E1F7E091CA
:102880006502F0916602309731F00280F381E02D0D
:1028900086E991E009950895882341F0809590910B
:1028A000EF0189238093EF010E9425140895882366
:1028B00039F09091EF01982B9093EF010E9425142D
:1028C000089545E050E069E472E087E592E00E94F7
:1028D000F52C892B61F0E0916502F091660230974A
:1028E00031F00480F581E02D87E592E00995909123
:1028F000570285E0E7E5F2E0DF01282F1D922A95D7
:10290000E9F790935702A9E4B2E001900D928A95FD
:10291000E1F70895A9E1B0E0E0E9F4E10C94602C5E
:102920000E944210882309F40AC140915C02509130
:102930005D0260915E0270915F022FB7F894809102
:102940006A0290916B02A0916C02B0916D022FBF50
:10295000481759076A077B0709F4F1C00E94510C18
:1029600060935C0270935D0280935E0290935F02BD
:102970000E9476108111E7C0409157025091580291
:102980006091590270915A0280915B020E94D812A4
:1029900020935702309358024093590250935A02A1
:1029A00060935B0285E0E7E5F2E0DE0116960190B8
:1029B0000D928A95E1F7D0905802D194DF8285E09C
:1029C000FE013696DE01509601900D928A95E1F750
:1029D00085E0FE017096DE01119601900D928A95B8
:1029E000E1F785E0FE013196A7E5B2E001900D9296
:1029F0008A95E1F785E0E7E5F2E0DE015596019082
:102A00000D928A95E1F7E090580210915902F090EA
:102A10005A0200915B020E944210882309F46EC0A2
:102A200080918A0286FF42C020915002309151026B
:102A30002D0D311DD7FC3A95309351022093500251
:102A400080914E0290914F02810F911D17FD9A9532
:102A500090934F0280934E02A90137FF04C0442790
:102A60005527421B530B473051054CF00FEF121600
:102A700013060CF401E010925102109250029C01D6
:102A800097FF04C022273327281B390B2730310535
:102A90005CF0FF24FA941816190614F4FF24F3943A
:102AA00010924F0210924E0210E0E12CEE8A1F8B22
:102AB000F88E098F85E0FE017596DE011B96019068
:102AC0000D928A95E1F785E0FE013B96DE011196B5
:102AD00001900D928A95E1F785E0FE013196DE01C5
:102AE000169601900D928A95E1F785E0FE013696E3
:102AF000DE01559601900D928A95E1F7EE8A1F8BC3
:102B0000F88E098F85E0FE017596DE01169601901C
:102B10000D928A95E1F785E0FE013696DE011B965F
:102B200001900D928A95E1F785E0FE013B96A7E5BD
:102B3000B2E001900D928A95E1F70E9461146996C6
:102B4000E7E00C947C2C85E0E2E5F2E0A7E5B2E05A
:102B500001900D928A95E1F725CF2FE2280F2830BA
:102B600078F481E090E001C0880F2A95EAF720917F
:102B70005702662331F0822B809357020E94611422
:102B8000089580958223F8CF882309F442C09CEFF2
:102B9000980F913A80F4E8E9F1E02EE931E0919163
:102BA000891303C0DF0111971C922E173F07B9F755
:102BB0000E942514089590E2980F983088F4877049
:102BC00021E030E0A90102C0440F551F8A95E2F7C9
:102BD000CA0180959091EF0189238093EF01E8CF9E
:102BE0009BE5980F933028F490E080E00E949C0CC5
:102BF000089598E5980F9B3128F490E080E00E94BA
:102C0000770C089593E3980F933118F460E00E94D5
:102C1000AD150895CF93C82F8823B1F08CEF8C0F9A
:102C2000813A00F5E8E9F1E08EE991E0DF012D91CC
:102C3000C21761F08A179B07D1F76C2F86E991E0E4
:102C40000E945D0C0E942514CF9108952191C2131A
:102C500003C0DF0111971C928E179F07B9F70E94DE
:102C60002514EBCF80E28C0F883068F4C77021E028
:102C700030E001C0220FCA95EAF78091EF01822B64
:102C80008093EF01DFCFEBE5EC0FE33040F4F0E0B1
:102C9000E55CFE4F808190E00E949C0CD5CFE8E57A
:102CA000EC0FEB3150F4F0E0EE0FFF1FE25CFE4F53
:102CB000808191810E94770CC7CF83E38C0F833191
:102CC00018F661E08C2F0E94AD15BECF1F93CF93F5
:102CD000DF93182FD0E0C0E0893311F4C0E5D0E0D5
:102CE000812F0E940A16209739F4812F0E94C41563
:102CF000DF91CF911F9108958FE99FE00197F1F740
:102D000000C000002197EFCF1092EF01E8E9F1E059
:102D100086E0DF011D928A95E9F790E080E00E944D
:102D20009C0C90E080E00E94770C1092EE010E94D3
:102D300025140895AAE2B0E0E0EAF6E10C94642CD0
:102D40008DE792E02091F100DC012D93CD01B2E0FE
:102D500085389B07B9F780917E02833009F472C0F1
:102D6000B8F4813009F449C0823009F4B3C08091CD
:102D7000E80083FF91C280917D0290917E029A309B
:102D800008F08AC2E92FF0E0E35FF24D0C94A02C2A
:102D90008A3009F48EC08B3009F471C0893039F75C
:102DA00080917D02813219F7809181029091820297
:102DB000009711F00397D9F68091E800877F809300
:102DC000E8008091E80082FF38C09091F300809184
:102DD000F200029731F48091F100813011F08630D9
:102DE00021F48091F100809370028091E8008B774C
:102DF0008093E8000E94350BBACF80917D02813A22
:102E000009F0B5CF8091E800877F8093E80080913A
:102E1000810290918202892B61F468E081E792E05F
:102E200070E00E94E10B8091E8008B778093E800CE
:102E30009ECF60E090E080E0F3CF80917B02811133
:102E4000C0CF95CF80917D02813A09F090CF8091DB
:102E5000810290918202892B09F089CF8091E8004C
:102E6000877F8093E8008091E80080FFFCCF80910D
:102E700039018093F1008091E8008E77B9CF80917D
:102E80007D02813209F073CF80918102909182029C
:102E9000892B09F06CCF8091E800877F8093E80050
:102EA0000E94350B80917F02809339010E94841625
:102EB0005ECF80917D02813209F059CF8091E80088
:102EC000877F8093E8000E94350B80918002809379
:102ED0006F024DCF80917D02813A09F048CF8091F9
:102EE000E800877F8093E8008091E80080FFFCCFB6
:102EF00080916F02BECF803899F0823809F0CCC142
:102F0000809181028F70873008F0C6C18093E900FC
:102F10008091EB0085FB882780F91092E90006C0BC
:102F20008091790290917A02911182609091E800EB
:102F3000977F9093E8008093F1001092F1008091C8
:102F4000E8008E77A5C1882309F493C1823009F087
:102F5000A3C180917F02811196C1809181028F70FF
:102F60002FEF280F263008F097C18093E9002091B9
:102F7000EB0020FF88C1933031F48091EB00806238
:102F80008093EB0080C19091EB0090619093EB00F7
:102F900021E030E001C0220F8A95EAF72093EA0091
:102FA0001092EA008091EB008860EACF811174C131
:102FB00010917F021F778091E3008078812B8093AE
:102FC000E3008091E800877F8093E8000E94350B42
:102FD0008091E80080FFFCCF8091E30080688093BF
:102FE000E30082E0111183E080937B0255C1805899
:102FF000823008F051C120917F02309180022C3D37
:10300000E3E03E07A1F583E08A838AE289834FB734
:10301000F894DE01139620E03EE051E2E32FF0E069
:1030200050935700E49120FF03C0E295EF703F5F9B
:10303000EF708E2F90E0EA30C0F0C7968D939D938D
:103040002F5F243159F74FBF8091E800877F80932D
:10305000E8006AE270E0CE0101960E94E10B8091E7
:10306000E8008B778093E80017C1C096E7CF809186
:10307000810290918202432F55274330510509F474
:103080004AC078F54130510509F47AC084E790E0F0
:10309000E5E6F4E14230510509F0FEC02091E80078
:1030A000277F2093E80020918302309184028217C9
:1030B000930708F49C0140E02115310509F065C033
:1030C000411163C08091E80082FDC9CF80917B02ED
:1030D000882329F2853019F28091E80083FFF2CF2E
:1030E000BECF4132510509F43CC04232510509F0CE
:1030F000D3C08430910508F0CFC0FC01EE0FFF1F54
:10310000ED57FE4F0190F081E02D81589E4FDC017C
:103110008C9190E01AC0332721303105D1F0211570
:10312000310561F02230310509F0B6C0EBEEF4E173
:10313000E4918E2F90E0EBEEF4E107C0E1E5F5E1DC
:10314000E4918E2F90E0E1E5F5E1009709F4A4C049
:10315000A5CFEBE2F5E1E4918E2F90E0EBE2F5E113
:10316000F4CF8430910508F097C0880F991FFC01B7
:10317000E557FE4F0190F081E02D89E090E08ECF81
:1031800082E190E0E9EDF4E189CF80917B02882330
:1031900009F465CF853009F462CF8091E80083FDA2
:1031A0005ECF8091E80082FD8DCF8091E80080FFA6
:1031B00083CF9091F3008091F2002115310519F031
:1031C0008830910550F041E0089709F040E0809187
:1031D000E8008E778093E8006FCF44914093F10030
:1031E0003196215031090196E8CF803809F054C05A
:1031F0008091E800877F8093E80080917C02809333
:10320000F1009DCE811148C010917F02123008F06C
:1032100043C08091E800877F8093E80010937C0290
:103220000E94350B112311F084E005C08091E3006A
:1032300087FDFACF81E080937B0242E061EC81E080
:103240000E94540B42E061EC82E00E94540B42E287
:1032500061EC85E00E94540B42E261EC83E00E9445
:10326000540B42E260EC84E00E94540B80917B029C
:1032700013C080917F02813079F481E0933009F0AE
:1032800080E080937A021092E9008091E800877FC5
:103290008093E8000E94350B8091E80083FF0AC00C
:1032A0008091E800877F8093E8008091EB00806246
:1032B0008093EB00AA96E3E00C94802C0E94841685
:1032C0002FEF84E39CE0215080409040E1F700C064
:1032D000000088E19CE00FB6F894A8958093600008
:1032E0000FBE90936000FFCF90918A029F70811172
:1032F00015C08FEF980F9F7080918A02807F982B66
:1033000090938A020E94A41040918A0250E070E0DB
:1033100060E08FE090E00E94D32C089581E0EACF36
:1033200090918A0292959370811117C08FEF980F38
:1033300093709295907F80918A028F7C982B9093C6
:103340008A020E94A41040918A0250E070E060E07E
:103350008FE090E00E94D32C089581E0E8CFA4E0B4
:10336000B0E0E5EBF9E10C94632C40910902509137
:103370000A0260910B0270910C022FB7F8948091B1
:103380006A0290916B02A0916C02B0916D022FBF06
:10339000841B950BA60BB70B11E084369105A10594
:1033A000B10590F10E944210882399F10E94510CBE
:1033B0006E5F7F4F8F4F9F4F69837A838B839C8390
:1033C0008091110190911201835F9D4F40911001F6
:1033D00050E04530510510F044E050E0BE016F5F11
:1033E0007F4F0E94022D82E090E00E94DF2B182F79
:1033F000882351F00E94510C6093090270930A02D5
:1034000080930B0290930C02812F2496E4E00C949D
:103410007F2C0E94510C00912502109126022091D0
:10342000270230912802600F711F821F931FC0CFA7
:103430004F925F927F928F929F92AF92BF92CF9264
:10344000DF92EF92FF920F931F93CF93DF930F9230
:10345000CDB7DEB7C62E4A015901482E880F550850
:10346000C2010E94DF2B782E882309F480C0C2019C
:1034700033E0880F991F3A95E1F7FC01E050FF4FC8
:10348000438150E04115510511F041E050E080507A
:103490009F4FFC0164817581635F7D4FCE01019672
:1034A0000E94022DF40140815181628173812FB706
:1034B000F89480916A0290916B02A0916C02B09195
:1034C0006D022FBF841B950BA60BB70B843691059D
:1034D000A105B10540F4B701C8010E94C10C998152
:1034E000891709F444C00C2C000CDD08C6010E94A9
:1034F000DF2B782E811113C0712C872D0F90DF9157
:10350000CF911F910F91FF90EF90DF90CF90BF90E0
:10351000AF909F908F907F905F904F900895C601DD
:1035200023E0880F991F2A95E1F7FC01E050FF4F37
:10353000438150E0E416F50608F4A70180509F4F40
:10354000FC0164817581635F7D4FC5010E94022D7E
:10355000B701C8010E94C10C99818913CDCF0E9487
:10356000510CF4016083718382839383C6CFA701DA
:10357000B801C5010E94022DC0CFAAE0B0E0E3EC83
:10358000FAE10C94612C0E947610882309F454C04F
:1035900085E0E82EF12C07E112E09E012A5F3F4F03
:1035A00040E252E064E083E00E94181A882391F020
:1035B00095E0FE013696DE01119601900D929A95E6
:1035C000E1F795E0FE013196A2E5B2E001900D929F
:1035D0009A95E1F7009160021091610201151105C1
:1035E00039F120911E0230911F022017310701F19D
:1035F00010931D0200931C028091290190912A01D1
:10360000835F9D4F4091280150E04330510510F0F9
:1036100042E050E06CE172E00E94022D85E090E013
:103620000E94DF2B882321F010931F0200931E02BB
:103630002A96E6E00C947D2C81E0FACFA4E0B0E07D
:10364000E4E2FBE10C945F2C6B0184E0E82EF12CAA
:103650000EE012E09E012F5F3F4F45E052E061E037
:1036600080E00E94181A882361F049815A816B8199
:103670007C81409301025093020260930302709395
:103680000402409101025091020260910302709184
:103690000402F60140835183628373832496E8E039
:1036A0000C947B2C1F920F920FB60F9211242F9324
:1036B0003F934F935F936F937F938F939F93AF93BA
:1036C000BF93CF93DF93EF93FF93D091E900DF7027
:1036D0008091EC00C82FC17080FDC0E81092E90015
:1036E0008091F000877F8093F00078940E949A1672
:1036F0001092E9008091F00088608093F000CD2B5B
:10370000CF70C093E900FF91EF91DF91CF91BF910E
:10371000AF919F918F917F916F915F914F913F9169
:103720002F910F900FBE0F901F9018951F920F9220
:103730000FB60F9211242F933F934F935F936F9384
:103740007F938F939F93AF93BF93EF93FF9380915A
:10375000E10082FF09C08091E20082FF05C08091F4
:10376000E1008B7F8093E1008091DA0080FF24C02C
:103770008091D80080FF20C08091DA008E7F8093F6
:10378000DA008091D90080FF9DC080E189BD82E18F
:1037900089BD09B400FEFDCF81E080937B0280915A
:1037A0006E02811109C00E94E50A0E94860B809179
:1037B000E20084608093E2008091E10080FF17C006
:1037C0008091E20080FF13C08091E2008E7F8093A1
:1037D000E2008091E20080618093E2008091D80055
:1037E00080628093D80019BC85E080937B02809131
:1037F000E10084FF2BC08091E20084FF27C080E1BC
:1038000089BD82E189BD89B5982F917080FFFBCF7A
:103810008091D8008F7D8093D8008091E1008F7EC9
:103820008093E1008091E2008F7E8093E20080919E
:10383000E20081608093E20080917C02882309F499
:1038400047C084E080937B0280917B028091E100FD
:1038500083FF27C08091E20083FF23C08091E100B5
:10386000877F8093E10082E080937B0210927C024C
:103870008091E1008E7F8093E1008091E2008E7F55
:103880008093E2008091E20080618093E20042E058
:1038900060E080E00E94540B8091F000886080938B
:1038A000F000FF91EF91BF91AF919F918F917F9128
:1038B0006F915F914F913F912F910F900FBE0F909D
:1038C0001F90189519BC10927B0210926E0274CF53
:1038D0008091E30087FD93E090937B02B5CF7894CD
:1038E0001F921FB61F9211248F939F93AF93BF9384
:1038F00080916A0290916B02A0916C02B0916D026E
:103900000196A11DB11D80936A0290936B02A09352
:103910006C02B0936D02BF91AF919F918F911F90F8
:103920001FBE1F9018952FB7F89480916A0290914E
:103930006B02A0916C02B0916D022FBF08950F939E
:103940001F93CF93DF93C62FD42F022FFC018281C8
:103950008823A9F0609389020E94931C90938802A7
:1039600080938702C77081E001C0880FCA95EAF78B
:103970000E945714DF91CF911F910F91089580916C
:103980008902681332C080918702909188020E9458
:10399000420C883C910548F510E21D0FCD17B9F097
:1039A00080E28C0F883040F4C77081E001C0880F3E
:1039B000CA95EAF70E944C14183048F481E09D2F14
:1039C000977001C0880F9A95EAF70E945714802FCC
:1039D0000E946616183070F6D77081E001C0880F1B
:1039E000DA95EAF70E944C14C5CFC77081E001C098
:1039F000880FCA95EAF7F6CFA8E0B0E0E2E0FDE173
:103A00000C94592C7C01DC0113968D919C91149798
:103A1000892B39F08C9111969C9189238F3F09F065
:103A20003BC42896EEE00C94752C0E945912182F76
:103A3000682F89819A810E944A0F69817A81812F3A
:103A40000E944B128C01F7018281882309F41FC167
:103A5000980137572038310508F05DC4003108F768
:103A60008FEF93E00E94AD2C8111DBCF96E5E92E1C
:103A700092E0F92E011146C0FE01339686E0DF0187
:103A80001D928A95E9F78AE0682E87010F5F1F4F24
:103A9000C7010E94AD2C89831A82882311F28130DC
:103AA00009F066C06701B2E0CB0ED11CC8010E94CC
:103AB000AD2C8A83882309F4B4CF9FEF980F9330FD
:103AC00080F5E3E0EE0EF11CC6010E94AD2C8B8365
:103AD000882309F4A6CF1C828E010F5F1F4FD801E7
:103AE0002C91222391F2213009F07CC011969C91F7
:103AF000119712968C919130E9F50E5F1F4F0E943D
:103B000066163EC0E114F4E0FF0609F48ACFC7014F
:103B10000E94AD2C811101C001502FEFE21AF20A70
:103B2000A9CF76018430C1F602E010E07601FFEF04
:103B3000EF1AFF0AC6010E94AD2CE1E0F0E0EC0FA5
:103B4000FD1FE00FF11F8083882309F46ACF8C37B3
:103B500041F4E2E0F0E0EC0FFD1FE00FF11F1082F6
:103B6000BBCF0F5F1F4F670107301105F9F659CF23
:103B70007801B2CF923039F40E5F1F4F0E940A16BF
:103B80000F5F1F4FACCF933029F40E5F1F4F0E9481
:103B9000C415F6CF943019F00F5F1F4FF1CF0E5FB1
:103BA0001F4F30E020E0B8016F5F7F4FF801418187
:103BB0008053990B8A30910550F02150310900F360
:103BC0008FE99FE00197F1F700C00000F6CF629EF9
:103BD000F001639EF00D11249C012E0F3F1F842FD6
:103BE0008B01E1CFE22FF0E0E954FE4F7490822F79
:103BF00086958695869590E0FC01E955FE4FC49028
:103C00002770D12C022E02C0D594C7940A94E2F7F3
:103C1000A1E0CA22DD24FC01E956FE4FA490B12C9C
:103C2000022E02C0B594A7940A94E2F7B1E0AB2249
:103C3000BB24FC01E957FE4F8490912C02C095945F
:103C400087942A95E2F7E1E08E229924C114D104E9
:103C500019F081EE0E940A16A114B10419F086EE43
:103C60000E940A16872D0E946616A114B10419F04D
:103C700086EE0E94C415C114D10419F081EE0E9491
:103C8000C4158114910409F47BCF8CE238CFF8017C
:103C9000E150FE47E730F10550F4E95EF24D0C9437
:103CA000A02C0E94840F91E089270E947419C801FA
:103CB0009E578034910508F45EC0F801E851FC4736
:103CC000E730F10508F057C0E25EF24D0C94A02CED
:103CD000882369F30E94840FE8CF882341F30E9470
:103CE000840F91E089270E949019E1CF8823F9F28F
:103CF0000E94840FF8CF90918A0280FB97F99093ED
:103D00008A020E94A410D3CF882389F290918A025C
:103D1000892F97FB87F9805880938A02F2CF909180
:103D20008A0280FB96F9EBCF882309F290918A02F0
:103D3000892F8F7B96FF8064EFCF26E241EE61EE04
:103D4000C7010E949F1C6DCE27E245EE65EEF8CFBD
:103D500026E241EE60EEF4CF27E245EE64EEF0CFCE
:103D600026E241EE62EEECCF27E245EE66EEE8CFCA
:103D700028E241E0EBCFD70112968C91882309F419
:103D8000B3C210928902980130572332310508F0EE
:103D900095C284E090E00E94BB2C90933602809301
:103DA0003502F801E150F047E232F10520F4EB5D15
:103DB000F24D0C94A02C80913502816080933502E5
:103DC00095C0809136028860809336028FC08091C2
:103DD00035028260F3CF809135028460EFCF80910D
:103DE00035028860EBCF809136028160EDCF809103
:103DF00036028260E9CF809135028061DFCF809109
:103E000035028062DBCF809135028064D7CF0E947B
:103E10008416809135028068D1CF809135028C6004
:103E2000CDCF809136028360CFCF809135028E7FD7
:103E3000C5CF80913602877FC7CF809135028D7FB5
:103E4000BDCF809135028B7FB9CF80913502877FBE
:103E5000B5CF809136028E7FB7CF809136028D7FAD
:103E6000B3CF809135028F7EA9CF809135028F7DAF
:103E7000A5CF809135028F7BA1CF0E9484168091BF
:103E800035028F779BCF80913502837F97CF8091CA
:103E900036028C7F99CF8091350282FB992790F969
:103EA00021E0922790FB82F990FB83F987CF8091E4
:103EB0003602982F909591708E7F892B90FB81F917
:103EC00083CF90913502892F8F7B96FF806476CFC8
:103ED0000E94841690913502892F97FB87F98058AC
:103EE0006DCF61E08EE090E00E94C12C60913502C0
:103EF0007091360284E090E00E94DF2C0E948416CC
:103F000090CD60E0EFCF90913502892F8F7E94FFA6
:103F1000806154CF90913502892F8E7F90FF816010
:103F20004DCF90913602892F877F93FF88604CCFC9
:103F300085E3E3C181E00E94001103C081E00E949B
:103F4000F31043E062E081E00E94D3106ACD0130BB
:103F5000BCE71B07D1F00330ECE71E0781F0011529
:103F60001C47A9F40E9484162FEF34E38CE0215003
:103F700030408040E1F700C000000E94EB0F6FEF7F
:103F80007FEF90E080E00E94DF2C0E945E19D70155
:103F90000D911C91882309F1C8010E945912D82E55
:103FA000682FC8010E944A0FB8018D2D0E944B1244
:103FB0000E94D50D182FD82EF701628125812295F8
:103FC0002F70892F82958F70E82EF12C8C30E8F5B8
:103FD000F701E95BF24D0C94A02CC8010E94160F6A
:103FE000D82EE2CF092F0F70907F11F00295007F3D
:103FF000812F6623C9F0002369F090E2910F983079
:1040000010F011110BC08091EF01082B0093EF010C
:104010000E942514812F0E940A1617C08091EE017C
:10402000082B0093EE01F4CF0E94C415002369F021
:104030000095105E183010F0D11012C08091EF0181
:1040400008230093EF010E94251498E0E91AF10873
:10405000A4E0EA16F10408F0E4CC0E946510E1CC7B
:104060008091EE0108230093EE01EDCF892F8F7030
:10407000907F903211F08295807FF1E0DF120CC0CA
:10408000662329F0263008F70E945714DECF25302A
:10409000E0F60E944C14D9CF662319F02223A1F335
:1040A000B9CF2223B1F3193309F0EFC02FEF37EE68
:1040B00083E0215030408040E1F700C00000E5C0BF
:1040C000892F86958695837061F0813009F0BDCF88
:1040D000812F9370611102C080E090E00E94770C04
:1040E000B4CF812F9370611102C080E090E00E94F4
:1040F0009C0CABCF812F0E94AD15A7CF892F837069
:10410000A1F56111A2CF812F829586958770880FC6
:10411000880F412F4F70082E01C0440F0A94EAF710
:10412000212F207114FF07C02FE030E001C0220FC3
:104130008A95EAF72095969596959370923081F03E
:10414000822F842B933030F480913302913029F008
:10415000242B82230E94810F78CF842B822BFACFCD
:10416000242B809133028227F5CF8695662311F0A8
:10417000892F8170882309F468CF812F82958695D5
:104180008770880F880F412F4F70082E01C0440F91
:104190000A94EAF7212F207114FF07C02FE030E0C6
:1041A00001C0220F8A95EAF720959695969593700F
:1041B000923081F0822F842B933030F4809134023E
:1041C000913029F0242B82230E94C0103ECF842BF3
:1041D000822BFACF242B809134028227F5CF092F2E
:1041E0000F70662329F0802F0E940011812F4CCF81
:1041F000812F0E944C14802F0E94F31026CF812F14
:10420000A1EF1A1789F1A11750F0B0EF1B17B9F001
:104210006623B1F12111FECE892F8F7129C0E2EF03
:104220001E1749F1F3EF1F13F3CF80E0662361F20D
:104230009F7181E001C0880F9A95EAF7C5CF662388
:1042400079F0253008F001CF292F2F7181E090E01F
:1042500001C0880F2A95EAF7909134028927B4CFDC
:10426000263008F0F2CEF0CF892F8F71662321F22D
:104270000E940011EACE892F8F716623C9F3BCCF4B
:10428000222339F0893309F411CF812F0E94C415FC
:10429000DCCE892F8F71B0CF85E0F701DE0111965A
:1042A00001900D928A95E1F7F701228189819A8127
:1042B0002111BBCB0E94160F182FBFCB0631FCE794
:1042C0001F0799F58091EF018A7A91E009F490E057
:1042D00090939E0169E2811165E386E991E00E9475
:1042E0005D0C0E9425149DCB06312CE7120749F581
:1042F00080919E0181111CCE89E2E8E9F1E02EE96E
:1043000031E09191891303C0DF0111971C922E17A0
:104310003F07B9F7E6CFF801FE57E830F10508F09E
:10432000C6CCED5AF24D0C94A02C07373CE713078E
:1043300009F400CE08379CE7190709F008CE82E09F
:10434000FACD0737ACE71A0709F4F8CD0837BCE710
:104350001B0709F01CCE82E0F2CD1F93CF93DF93B1
:104360008091B301807F09F04BC08091B001882318
:1043700009F446C08091E501C091B4014091AE01BD
:104380005091AF016091B1017091B201D42FD5234A
:1043900016E0C817A9F190E061157105A9F1DF3F9A
:1043A00099F1189FF001199FF00D1124DF01AB5412
:1043B000BE4F11962C911197251326C02C912413D2
:1043C00023C012962C91129721111EC013962D9185
:1043D0003C91261B370B283C3105B0F48091B3018A
:1043E0008F7080618093B301E654FE4F80818F709F
:1043F000806180838EEA91E00E94FC1C0E940C0F79
:10440000DF91CF911F91089501968770C2CFA1E1EE
:10441000B0E0EDE0F2E20C945B2C8C0185E0F80159
:10442000DE011D9601900D928A95E1F7F801E28078
:104430008EEA882E81E0982E4091B1015091B20110
:104440004115510509F430C19091AE012091AF01A1
:10445000892F82238F3F09F427C1D080C180A38098
:10446000B480F090B001B501641B750BFF2009F416
:10447000E7C08091B301382F307F683C710508F0A8
:10448000ABC0311178C0FE2C2C1114C09D1112C08C
:10449000E11010C08F7080618093B301C4010E944D
:1044A000FC1C8091B301F80185838F2D6196ECE0AF
:1044B0000C94772CA114B104C9F18D2D8C218F3F60
:1044C000A9F181E08E2580FF05C04E2D6C2D8D2D2C
:1044D0000E94EC0EA114B10459F18D2D8C218F3F57
:1044E00039F181E08E25F82FF170BF2E80FF39C0A1
:1044F0004E2D6C2D8D2D0E94EC0EA82E811131C0F9
:10450000DD86CE868D859E850E948812292F229574
:104510002F70243078F49F702230A8F09923B9F0DE
:10452000F8019581907F99F4FA2CBFCF80E0CBCF32
:1045300080E0D9CF2A5F2F70223068F0C8010E9436
:10454000FC1CAB2CF1CF992311F0882369F3805E1A
:10455000883050F3F3CF803F38F3815F833070F7BA
:10456000E3CFEE2009F4A1CF8091B3018160809365
:10457000B301F12C9ACF2C1105C09D1103C0EE2080
:1045800009F477C0C8010E949512882309F1EE2032
:10459000F9F08091B301803270F02091AE0130913A
:1045A000AF0138872F831986BB86AA868C87CE01F8
:1045B00007960E94FC1C86E0F801AEEAB1E001908B
:1045C0000D928A95E1F70E94AD21FF24F3946DCFFF
:1045D000C8010E94FC1CF9CF31110AC08EEA91E09B
:1045E0000E94FC1C86E0F40111928A95E9F7C1CF84
:1045F0002C110EC09D110CC0E1100AC08583C801AA
:104600000E94FC1C86E0F40111928A95E9F74DCFD7
:10461000C8010E9495128823D9F2EE20C9F2809138
:10462000B301803240F22091AE013091AF013A8364
:1046300029831B82BD82AC828E83CE010196B9CFC5
:10464000683C7105F8F6FE2CEE2011F22C111EC00C
:104650009D111CC08091B30180FD0FC0982F907FE9
:1046600061F08583903F31F0982F907F905F8F703D
:10467000892B8583C8010E94FC1C86E0F801AEEA04
:10468000B1E001900D928A95E1F70FCFC8010E9429
:104690009512811190CF8091B30181608093B30115
:1046A000C8010E94FC1C01CFEE2009F491CFC80183
:1046B0000E949512F82E882309F48ACF86E0F8012B
:1046C000AEEAB1E001900D928A95E1F78091AE01DA
:1046D0009091AF010E9488120E94AD21E6CEA7E121
:1046E000B0E0E5E7F3E20C94642C4B8B5C8B6D8BB4
:1046F0007E8B8F8B61111092EE011A8A198A85E0E8
:10470000FE017396DE011D9601900D928A95E1F7E8
:1047100086E0FE013D96DE01179601900D928A9586
:10472000E1F7CE0107960E940722882359F016E090
:104730008091E5019091B401891343C06796E3E04D
:104740000C94802C86E0FE013796DE0111960190D4
:104750000D928A95E1F78A859B85892B41F38F819C
:10476000988589238F3F19F32091B40130E0C90166
:104770000196877099274091E5014817190671F451
:104780000E9484161092B4011092E50186E0EEEAD0
:10479000F1E0DF011D928A95E9F7C9CF96E0929F7B
:1047A000D001939FB00D1124AB54BE4FFE01319642
:1047B00001900D929A95E1F78093B4010E940C0F3D
:1047C000B6CF819FC00111248B549E4F0E940722B7
:1047D000882309F4B3CF8091E50190E001968770BA
:1047E00099278093E501A4CFA5E1B0E0EAEFF3E2D9
:1047F0000C945A2C8E01075F1F4F88E0D8011D9240
:104800008A95E9F786E7882E81E0982E9BE7E92EC6
:1048100091E0F92E77247394CC24C394D12C3FE7F4
:10482000A32E31E0B32EF40181914F018F3F09F4A3
:1048300043C0F894E82FE295EF70F0E021A18F706B
:10484000A60102C0440F551F8A95E2F7CA01922FB4
:10485000982B91A392A18095892382A3789400C07C
:104860006BE771E0F801472D4095DB019D91BD019B
:1048700080819F3F09F465C0292F22952F7030E079
:10488000D90190962C9130E09F7002C03595279504
:104890009A95E2F720FD55C0872980833196A616A8
:1048A000B70619F7F401319780818F3F11F00E940C
:1048B000D90CB0EABA95F1F7770CE814F90409F0CD
:1048C000B2CF48E050E0B80189E292E00E94F52CB6
:1048D000009741F028E0F801A9E2B2E001900D92C2
:1048E0002A95E1F700913202892B69F181E08093EA
:1048F000F4010E94931C9093F3018093F201809144
:10490000F2019091F3010E94420C059700F110E032
:104910000F5B1D4F44E050E069E272E0C8010E9465
:10492000F52CA12C892B51F084E0E9E2F2E0D801CA
:1049300001900D928A95E1F7AA24A3941092F401B4
:1049400007C08423AACF8091F4018111D8CFA12C74
:104950000E944210B82EE0913202882309F47BC0F5
:1049600019821A821B821C820E2F10E00F5B1D4FD2
:10497000809124028A30A8F54EE15BE1BE016F5FB1
:104980007F4FC8010E940F10882309F453C04FEADB
:1049900059E1BE016F5F7F4FC8010E940F1088234D
:1049A00009F448C04DEB5AE1BE016F5F7F4FC8016B
:1049B0000E940F108823F1F110922402809131029D
:1049C00090E044E050E0BE016F5F7F4F8F5B9D4FF2
:1049D0000E94F52C21E02093FF01892BC1F4B12C1A
:1049E00023C08091F5019091F6010E94420C843F12
:1049F000914010F68091FF01882389F384E0FE0145
:104A00003196DF011D928A95E9F71092FF01E0913E
:104A10003102F0E0EF5BFD4F89819A81AB81BC816F
:104A200080839183A283B3838B2D8A296596EDE0E1
:104A30000C94762C809124028F3F31F08F5F80930D
:104A400024028A3008F4BACF0E94931C9093F60196
:104A50008093F501CFCFF0E0EF5BFD4F84E0AEE057
:104A6000B2E001900D928A95E1F764E070E08EE08B
:104A700092E00E94C10C80930D02C0901202D0906F
:104A80001302E0901402F09015028091FB019091C6
:104A9000FC01A091FD01B091FE01C816D906EA06FD
:104AA000FB06D1F0C092FB01D092FC01E092FD0127
:104AB000F092FE010E94421081110EC00E94510C22
:104AC000C61AD70AE80AF90AC0922502D09226022D
:104AD000E0922702F09228020E9476108111A4CF62
:104AE0004091F7015091F8016091F9017091FA013C
:104AF0002FB7F89480916A0290916B02A0916C029A
:104B0000B0916D022FBF481759076A077B0709F458
:104B10008BCF0E94510C6093F7017093F801809342
:104B2000F9019093FA010E947A119C0198E0E6E164
:104B3000F2E0DE01119601900D929A95E1F78F81D6
:104B40009885009729F02817390711F00E94421123
:104B5000FE01719685E0DF011D928A95E9F749898A
:104B60005A896B897C898D890E94D8122A833B835C
:104B70004C835D836E8365E070E0CE0102960E94F7
:104B8000C10C898388E0FE013196A6E1B2E0019074
:104B90000D928A95E1F723CFA5E0B0E0E2EDF5E2D2
:104BA0000C94632C0E94931C8C018091F0019091D5
:104BB000F10180179107A1F08FEF89838A831B820F
:104BC0000E94931C8160782F9D838C8349815A8138
:104BD0006B818D810E946F231093F1010093F0018E
:104BE0002596E4E00C947F2C1F921FB61F9211248F
:104BF0008F939F93AF93BF9380916902811113C0EC
:104C000080916A0290916B02A0916C02B0916D024A
:104C10004196A11DB11D80936A0290936B02A093EF
:104C20006C02B0936D02BF91AF919F918F911F90D5
:104C30001FBE1F901895CDB7DEB7A5970FB6F89495
:104C4000DEBF0FBECDBF85B7806885BF85B78068E2
:104C500085BF84B7877F84BF0FB6F894A8958091ED
:104C60006000886180936000109260000FBE80E851
:104C700090E00FB6F89480936100909361000FBEAE
:104C800087ED9CE090939501809394010E94E50A42
:104C90000E94860B8091E20084608093E200789409
:104CA00080917B028823A1F01091E9001F70909100
:104CB000EC00892F817090FD80E8182B1092E9009C
:104CC0008091E80083FD0E949A161F701093E900FE
:104CD00082E084BD93E095BD9AEF97BD80936E000E
:104CE000109225021092260210922702109228029A
:104CF0000E94BF12811102C00E940C120E94761005
:104D0000809330010E94421081110E94F32A809109
:104D100030018091300194E0811190E09093320253
:104D200084E0891B8093310206E711E0D8018D9160
:104D30008D018F3F11F00E94D90CB1E00B371B079A
:104D4000A9F787EF0E94D90C86E60E94D90C84E966
:104D50000E94D90C85E30E94D90C88E0E1E4F2E0DE
:104D6000DF01282F1D922A95E9F7E9E2F2E0DF0141
:104D70001D928A95E9F78FE090E00E94B52C6F7341
:104D800060938A0290E080E00E94BB2C873E9E4F99
:104D900021F40E94BF12811165C067EE7EEF90E0A2
:104DA00080E00E94DF2C60E082E090E00E94C12C55
:104DB00060E083E090E00E94C12C1092330260E03A
:104DC00074E184E090E00E94DF2C60E086E090E0F7
:104DD0000E94C12C6FEF87E090E00E94C12C40E060
:104DE00050E0BA0188E090E00E94D32C60E08DE0B2
:104DF00090E00E94C12C40E050E0BA0188E190E0D0
:104E00000E94D32C60E087E190E00E94C12C40E03A
:104E100050E0BA018CE190E00E94D32C70E060E099
:104E200080E290E00E94DF2C40E050E0BA0188E18F
:104E300090E00E94D32C80E00E94F3110E940C129B
:104E400010928A0240E050E0BA018FE090E00E94A8
:104E5000D32C0E94A41040E050E0BA0183E190E01E
:104E60000E94D32C82E090E00E94AD2C8093370208
:104E700084E090E00E94BB2C909336028093350230
:104E80000E94F423EFEFF6E721E0E150F0402040EC
:104E9000E1F700C000000E94F4238091410280FFEE
:104EA00008C06FEF7FEF90E080E00E94DF2C0E944F
:104EB000EB0F83E090E00E94AD2C0E94810F809167
:104EC0003402882309F47AC08295817090918A0215
:104ED00080FB97F990938A020E94A4100E944210CE
:104EE000811102C00E94F62A0E947610811102C030
:104EF0000E9489130E94A41081E391E090936602BE
:104F00008093650298E1E92EF12C20E4622E39E4C9
:104F1000C32E32E0D32E40E1742E80917B0212E149
:104F2000853009F482C00E94F42308E312E081E492
:104F3000A82E82E0B82ED501F80191918D9122E042
:104F4000E034F20709F47BC09817B9F30E944210CD
:104F5000282E912CD5018D905D01F80131908F01A3
:104F6000381429F13824512C44244394842D83216E
:104F7000B1F02220A1F059A29AA291E0842D8821BB
:104F800009F490E09BA30E94931C8160782F9DA35D
:104F90008CA349A15AA16BA18DA10E946F235394A8
:104FA000440CF5E05F12E2CFF801319780829394D0
:104FB00028E09212CFCF0E94510C45C080E086CFEE
:104FC00080917B02843019F10E948A141092690248
:104FD0000FB6F894A895E09260000FBE6092600052
:104FE00083B7817F846083BF83B7816083BF7894F8
:104FF000889583B78E7F83BF0FB6F894A89580916C
:105000006000886180936000109260000FBE809104
:105010007A02882351F00E94F423E1E4F2E08191C6
:1050200081115EC1CE16DF06D1F780917B028530FB
:1050300009F4C6CF0E9484160E94651074CF98139D
:1050400085CF0E94CC250E9442100E948A140E94A3
:10505000651090914002891721F0809340020E94D0
:10506000510C80917B02843009F057CF8093E90086
:105070008091E80082FF51CF8091E80090E085FFA9
:1050800005C00E94040B882391F091E08091E80014
:105090008B778093E800992309F43FCFE981E150B1
:1050A000E33160F5F0E0E55AF24D0C94A02C00E2FB
:1050B00010E0CE0101965C018091E80085FD0AC0F8
:1050C0008091E8008B778093E8000E94040B88238E
:1050D00099F3DBCF8091F100D5018D935D010150F3
:1050E000110951F7D2CF1A828CE08B831BC08A81C1
:1050F000823009F40BC128F4813061F08FEF89838D
:1051000011C08330C1F08430C9F71B821C821D821C
:105110001E8208C00E94510C0E94A62C6B837C83C7
:105120008D839E8340E250E0BE016F5F7F4F83E03E
:105130000E948E0FF2CE2B81822F90E0FE013496DA
:10514000245E8830910570F7DC01AF5BBD4F3C9168
:10515000319301962813F5CFE5CF8A81823019F07B
:10516000853001F3CBCF6B817C818D819E810E9444
:10517000A62C85E290E00E94C12CD4CF4C816B819B
:105180008A810E941C129827892798279E838D83E5
:10519000C9CF2D813E813227232732274C816B8155
:1051A0008A810E949511BECF0E94BB11BBCF7A822B
:1051B000B9CF81E08A838AEA98CF8A809B8098243D
:1051C000892498248E010F5F1F4FAC80A00EB12E52
:1051D000B11CC4018A5A9D4FA016B10609F4A2CF92
:1051E000BAEA8B16B1E09B0650F40E94AD2CF80190
:1051F0008483BFEF8B1A9B0A0F5F1F4FEACFD80142
:1052000014961C92F6CF0A811B81102701271027C4
:10521000FE0131964F01AC80A00EB12EB11CC80129
:105220008A5A9D4F0A151B0509F47CCF0A3AF1E012
:105230001F0728F4D40114966C910E94C12CBFEF73
:105240008B1A9B0A0F5F1F4FEACF0E9485116ACF0E
:1052500087E08A8367CFAA80BB80BA24AB24BA24B4
:105260008E010F5F1F4F8C80800E912E911CC50107
:1052700086968016910609F455CFE0E3AE16E2E07B
:10528000BE0658F40E94AD2CD80114968C93FFEF03
:10529000AF1ABF0A0F5F1F4FEACFF8011482F7CF92
:1052A0000A811B81102701271027CE0101964C018E
:1052B000AC80A00EB12EB11CC8018696A016B10616
:1052C00009F430CF0033A2E01A0720F4F40164811E
:1052D0000E94C12CFFEF8F1A9F0A0F5F1F4FECCF68
:1052E00079BC19BD09B400FEFDCF8091D8008F7D37
:1052F0008093D8008091E00082608093E0008091EC
:10530000E00081FDFCCF0E9484168FCE85E290E004
:105310000E94AD2C1B821C821D828E8303CF289A93
:10532000219A229A23982B9880E58CBD089590911C
:105330003A019F3F09F071C08F3F09F46EC06111BF
:1053400044C010928C0290918C02423009F441C00A
:10535000433009F442C094604130E1F141E050E053
:1053600042175307E0F190918C024031510509F446
:1053700052C0C0F54230510509F446C048305105CD
:1053800009F446C09CB520918C02922B9CBD909153
:105390008B02992319F09DB591609DBD80933A01D0
:1053A000E82FE295EF70F0E031A1282F2F7081E017
:1053B00090E001C0880F2A95EAF7382B31A392A11B
:1053C0008095892382A381E0089590E290938C02D6
:1053D000BACF986090938C02C1CF9C60FBCF440FF2
:1053E000551FBECF4034510549F04038510541F0BA
:1053F0004032510539F621E020938B02926001C0C2
:10540000936090938C02BECF91E090938B02BACFC1
:1054100021E020938B029160F4CF80E00895CF9338
:10542000DF938EBD0E94931CEC010DB407FE05C0F6
:105430008EB590E0DF91CF9108950E94931C8C1B54
:105440009D0B8436910588F38EEF9FEFF3CFCF93BA
:10545000DF931EBC0E94931CEC010DB407FE05C037
:105460008EB590E0DF91CF9108950E94931C8C1B24
:105470009D0B8436910588F38EEF9FEFF3CF0F934A
:105480001F93CF93DF93EC018C01060F171FC017FA
:10549000D10719F490E080E005C089910E940F2A9D
:1054A00097FFF5CFDF91CF911F910F9108950F9343
:1054B0001F93CF93DF93EC018C01060F171FC017CA
:1054C000D10739F490E080E0DF91CF911F910F91E7
:1054D00008950E94272A97FDF7CF8993F0CF8091F6
:1054E0003A018F3F29F1E82FE295EF70F0E041A1FA
:1054F0008F7021E030E0B90102C0660F771F8A95F6
:10550000E2F7CB01942F982B91A392A1892B82A330
:105510008FEF80933A018DB58E7F8DBD9CB58091C4
:105520008C02809589238CBD10928C0210928B0284
:1055300008958EE14A9B02C08150E1F74A9BFECF5D
:1055400008955A9880E28A95F1F75A9A0895FC01D5
:105550003BE03A95F1F798E020E080E031E040E16F
:105560004A95F1F7880F4A9B02C08160232742E0E9
:105570004A95F1F7000040E14A95F1F7915079F72B
:1055800090E19A95F1F799B132E03A95F1F7000080
:1055900040E14A95F1F792FB992790F992272081F3
:1055A000920F90830895A1E0B0E0E9EDFAE20C9447
:1055B000612C19828C017C01E60EF11C0E151F0571
:1055C00041F481E09981911180E02196E6E00C940C
:1055D0007D2C0E94992ACE0101960E94A72AF801EB
:1055E00081938F01EBCF529A5A9A089552985A9A02
:1055F000EA9AE9E6F0E080818F7C8083089561502B
:10560000770B91E001C0990F6A95EAF720E031E04D
:10561000911108C0222391F05A9A80E28A95F1F7FD
:105620005A980895492F482339F05A9A232740E27F
:105630004A95F1F79695ECCF5A98F9CF5A98EDCF55
:10564000FF920F931F93CF93DF93EC018C01060F12
:10565000111DC017D10729F4CDB7DEB7E5E00C94D2
:105660007E2CF9900E94A12A68E08F2D0E94FF2ACB
:10567000F0CF1F920F920FB60F9211240F931F932A
:105680002F933F934F935F936F937F938F939F934A
:10569000AF93BF93EF93FF93CF93DF930F92CDB769
:1056A000DEB719820E94992ACE0101960E94A72A8C
:1056B000082F069506950695282F22952570902F80
:1056C0009570290F922F937026952695920F982703
:1056D00097708981982B09F05CC0073008F059C099
:1056E00080E18A95F1F75A9A529A82E08A95F1F709
:1056F00000C05A9888E0089F80011124D801A0506A
:10570000BF4F1696ED91FC9117973097A9F06091D5
:1057100074017091750114962D913C911597260F87
:10572000371F11968D919C911297680F791F1396D0
:105730004C9113978C910995F801E050FF4F6381CC
:10574000662351F020917401309175018481958117
:10575000820F931F0E94202B0E94A12A80E18A952C
:10576000F1F75A9852985A9A80E18A95F1F7F80120
:10577000E050FF4F6081662351F020917401309119
:10578000750181819281820F931F0E94D32A0E940A
:10579000992A0F90DF91CF91FF91EF91BF91AF9137
:1057A0009F918F917F916F915F914F913F912F9139
:1057B0001F910F910F900FBE0F901F9018950F9390
:1057C0001F93CF93DF93EC0107970CF04CC0F89434
:1057D000529A5A9885E08A95F1F700009C2F969589
:1057E00095708C2F8570980F892F8370969596955C
:1057F00023E0CC0FDD1F2A95E1F7980F8E01092BCE
:105800000E94A12A00C068E0802F0E94FF2A80E148
:105810008A95F1F752985A9A4A9B1EC087E090E009
:105820004A991CC0FE01E050FF4F63816623F9F0E6
:10583000209174013091750184819581820F931FAD
:105840000E94D32A811113C0529A5A9A7894DF91F8
:10585000CF911F910F91089500C0DECF019729F4D9
:10586000529A5A9A789480E0F2CF00C0D9CF0E9421
:10587000992A80E28A95F1F75A98529A80E18A959E
:10588000F1F7C050DF4F6881662351F02091740119
:105890003091750189819A81820F931F0E94202B7C
:1058A0000E94A12A789481E0D2CF2F923F924F920A
:1058B0005F926F927F928F929F92AF92BF92CF92A0
:1058C000DF92EF92FF920F931F93CF93DF93CDB7A9
:1058D000DEB7CA1BDB0B0FB6F894DEBF0FBECDBF21
:1058E00009942A88398848885F846E847D848C84F2
:1058F0009B84AA84B984C884DF80EE80FD800C81FB
:105900001B81AA81B981CE0FD11D0FB6F894DEBFDD
:105910000FBECDBFED010895AA1BBB1B51E107C00F
:10592000AA1FBB1FA617B70710F0A61BB70B881F2F
:10593000991F5A95A9F780959095BC01CD010895BE
:10594000EE0FFF1F0590F491E02D0994692796272B
:1059500069277827872778270895F999FECF92BD80
:1059600081BDF89A992780B50895A6E1B0E044E09A
:1059700050E00C94E72CA8E1B0E042E050E00C9439
:10598000E72C262FF999FECF92BD81BDF89A019799
:1059900000B4021639F01FBA20BD0FB6F894FA9A77
:1059A000F99A0FBE08950396272F0E94C22C0E94D9
:1059B000C12C252F0E94C22C242F0C94C22C01969E
:1059C000272F0E94C22C0C94C12CDC01CB01FC01BE
:1059D000F999FECF06C0F2BDE1BDF89A319600B448
:1059E0000D9241505040B8F70895FB01DC0104C00E
:1059F0008D910190801921F441505040C8F7881BC7
:105A0000990B0895FB01DC0102C001900D924150F9
:105A10005040D8F70895F894FFCF7B17A3174C197F
:105A2000A3174C19D617F7174C19F5180219571E5A
:105A3000571E571E7B1E571E8F1E571EA81EAC1EBC
:105A40009D1EA41EB01EB41EB81E151F8A1F1D1F4A
:105A5000E71EEB1E211FEF1E251F311FFB1E831F9C
:105A6000FF1E351F031F391F611F071F3D1F681FC2
:105A70000D1F431F4B1FF31E291FF71E2D1F111F44
:105A8000471F571F711F811FE11E191F911FF21F12
:105A9000F21F3620362060207A20252025207E2007
:105AA000EF20FF20FF20511E681E6D1E761E7B1EFC
:105AB000841E8F1E941E73287728AD28BE28C928FF
:105AC000D4287E287E287E287E287E28D728D9289C
:0C5AD000DD280329252928292B2950292D
