:100000000C94100A0C94480A0C94480A0C947B2C0B
:100010000C94480A0C94480A0C94480A0C94480A18
:100020000C94480A0C94480A0C94C71D0C94831D28
:100030000C942A280C94480A0C94480A0C94480AF8
:100040000C94480A0C94480A0C94480A0C94480AE8
:100050000C94480A0C94A01E0C94480A0C94480A6C
:100060000C94480A0C94480A0C94480A0C94480AC8
:100070000C94480A0C94480A0C94480A0C94480AB8
:100080000C94480A0C94480A0C94480A0C94480AA8
:100090000C94480A0C94480A0C94480A0C94480A98
:1000A0000C94480A0C94480A0C94480A05010980EB
:1000B000A101850319012AB700150126B700950192
:1000C00075108100C0050C0901A101850419012AE0
:1000D000A002150126A002950175108100C005013E
:1000E0000902A1010901A10005091901290815004A
:1000F0002501950875018102050109300931158135
:10010000257F95027508810609381581257F95019F
:1001100075088106050C0A38021581257F95017541
:10012000088106C0C005010906A101050719E029DB
:10013000E715002501950875018102950175088173
:10014000010507190029FF150026FF00950675080F
:100150008100050819012905950575019102950190
:1001600075039101C014001A00080015001700045F
:10017000001600070009000A001D001B00060019F8
:10018000000500215200002A212C22000013001239
:10019000000C0018001C0033000F000E000D000BB7
:1001A00000380037003600100011002252000028ED
:1001B00028060000002078AB00AE00AC000000E391
:1001C00000E200E000E10000000000000000000389
:1001D0007C007C01000000000000000000300026D0
:1001E00000250024002F0056002300220021005784
:1001F00000540020001F001E0055000000000001F8
:100200000006000000000000000000000000005098
:1002100000520051004F0000004A004B004E004DBC
:10022000000000000000000100010000000000AA22
:1002300000A800A9000000E700E600E400E50000D7
:1002400000000000000000037C007C0100000000B2
:10025000000600000001048E966E773EFE7E5F1D54
:10026000B8F2664EFF5D19B0C20469542AD62EBF9B
:10027000DD19B0C3E529B1E023A5A9B1C1008267AA
:100280004C1A978D795120C7068E7C7C7A764FFD6B
:100290005930E2460E9EBEDF1D9991A0A5A1A9D0BE
:1002A00022C6EF5C1B958990A2A7CCFB5528B3E42E
:1002B0004AF76C3BF46A562EDE1F9DB8D305889230
:1002C000A6CE1EBEDF1D99B0E246EF5C07115D9819
:1002D0000B9D9497EE4E45336B44C729562730C685
:1002E000A7D5F256DFB43862CBA0B6E30F8406245C
:1002F00005656F7689B577412782666582CCD5E63C
:1003000020D52717C5F803237C5F64A51DC1D63609
:10031000CB4CD4DB66D78BB1997E6F4C364006D67A
:10032000EBD7A2E4F495515A5496D55344D78CE0B8
:10033000B94068D218E9DD9A239248EE7F43AFEACC
:100340007738848C0A72AF69F8DDF12483A3F84A08
:10035000BFF59413DBBBD8B4B3A0FB455060305954
:10036000123171A2D313E7FAE7CE0F63150B6B942A
:10037000BB378326059DFB4692FC0A15D10D73926F
:10038000D68C1B8CB8558ACEBDFE8EFCED0912832F
:100390009182513123FBB40C76AD7CD9B44BB2675A
:1003A00014099C7F0C18BA3BD68E142AE41B529F6A
:1003B0002B7DE1FB6A3302FAAC5AF23E887EAED165
:1003C000F378E805D1E3DC21F6E19ABD170ED946B2
:1003D0009B8803EAF666BE0E1B5049964097F1F1E2
:1003E000E480A66EE87734BF294044C2FF4E98D31C
:1003F0009CA3322B76510409E7A9D1A632B123532D
:10040000E247ABD6F5695C3E5FFAAE4520E5D244E3
:10041000FF39326DFD27575CFDF0DEC1B599E5F57A
:100420001C770175C56D5892F2B247000126967A85
:1004300030FFB7F0EF77C18A5DDCC0D129301E777D
:10044000387A94F1B87A7EEFA4D1AC314AF25D6487
:100450003DB2E2F00899FC70EE24A77EEE1E206902
:100460007D44BF8742DF883B0CDA42C904F945501E
:10047000FC838F116A72BC9995F0AC3DA73BCD1CF3
:10048000E2887937115F3989950A16847AF68AA449
:1004900028E4ED83803BB123A50310F466EABB0C8E
:1004A0000FC5EC6C69C5D324ABD42AB799887608FC
:1004B000A0A8957CD8386DCD5902514BF1B52B5081
:1004C000E3B6BDD072CF9EFD6EBB44C8248A7718B8
:1004D0008A1306EF977DFA81F031E6FA77ED31065F
:1004E000315B548A9F3068DBE240F84E73FAAB749C
:1004F0008B105813DCD2E678D1322E8A9F2C580606
:100500004827C5A95E8147894621910370A43E888A
:100510009CDA330ACEBC8B8ECF9FD3718043CF6BD6
:10052000A95183763082C56A853911501A82DC1E42
:100530001CD57DA9719933471997B35AB1DFEDA442
:10054000F2E62684A2289A9EDFA66AF4D6FC2E5BE9
:100550009D1A2A2768FBC183214B90E036DD5B3171
:100560004255A013F7D089537199570929C5F32132
:10057000F8372F40F3D4AF16083602FC77C58B044A
:100580009056B9C9679A99E800D386FF972D08E974
:10059000B7B391BCDF45C6ED0F8C4C1EE65B6E38E1
:1005A00030E4AAE395DEB9E49AF5B2559A879BF652
:1005B0006AB2F2779A31F47A31D11D04C07C32A24A
:1005C0009E9AF562F8278DBF51FFD3DF64373F2A2B
:1005D0006F763A7D77069E777F5EEB3251F916662D
:1005E0009A09F3B008A470964630FFDA4FE91BED84
:1005F0008DF8741F3192B3731736DB9130D688555E
:100600006B3477877AE7EE06C61C8C190C484623B4
:100610005E9C075CBFB47ED64F749CE2C5508BC510
:100620008B159060625729D01343A18088910044B4
:10063000C74D1986CC2F2A755AFCEB972A70E378A0
:10064000D891B04F9907A395EA2421D5DE51209384
:10065000270A3073A8FF8A97E9A76A8E0DE8F0DFB2
:10066000ECEAB46C1D392A622D3D5A8B65F8900571
:100670002E7E912C78EF8E7AC12FAC78EEAF284584
:10068000064C26AF3BA2DBA39306B53CA5D8EE8F64
:10069000AF25CC3F856848A962CC978F7F2AEAE0D6
:1006A000150AAD6207BD45F841D836CB4CDB6EE686
:1006B0003AE7DA15E9291E1210A0142C0E3DF4BFFA
:1006C000394192750B257BA3CE399C1564C8FA3D40
:1006D000EF7327FE262ECEDA6EFD718EDDFE76EEEE
:1006E000DC125C02C53A4E4E4FBFCA4015C76E8D34
:1006F00041F110E04F7E977F1CAE478E6BB12531E4
:10070000B073C71B9779F980D366223007741EE453
:10071000D08021D6EE6B6C4FBFF5B7D909872FA9D2
:1007200014BE27D9725001D41373A6A751027525A0
:10073000E1B345347DA88EEBF31649CB4F8CA1B9BC
:10074000368539755D0800AEEBF6EAD7133A215AC3
:100750005F3084522695C914F257556BB110C2E12F
:10076000BD3B51C0B7554C711226C70DF951A43885
:1007700002057FB8F1724BBF718914F37738D971D4
:1007800024F30011A1D8D46927083735C9119D90E9
:100790001C0EE71CFF2D1EE892E11810957CE080EE
:1007A000F4964321F975216438DD9F1E9516DA56BB
:1007B0001D4F9A53B2E2E418CB6B1A65EB56C63B59
:1007C000E5FED8263F3A84597266A2F375FFFB60B6
:1007D000B322AD3F2D6BF9EBEA057CD88F6D2C98D9
:1007E0009E2B93F15E46F08749297368D77FF9F015
:1007F000E57DDB1D7519F3C4589B1788A892E0BEF0
:10080000BD8B1D8D9F5676ADAF29E2D9D552F6B579
:100810005635573AC8E156431994D3049B6D35D8E1
:100820000B5F4D198EECFA64910A72202BBC1A4AA8
:10083000FE8BFDBBED1B23EAAD7282A1299971BD30
:10084000F095C103DD7BC2B23C2854D368A472C8C2
:100850006696E0D1D87FF8D1262BF7ADBA55CA15E8
:10086000B932C3E588978E5CFB92258BBFA24555B4
:100870007AA76F8B575BCF0ECB1DFB208277A88C9E
:10088000CC16CE1DFADECC0B62FECCE1B7F0C381F4
:10089000647340A0C24D8911753355338DE84AFD0C
:1008A000EA6E300BD7312CDE47E3BFF85542E27FCA
:1008B00059E517EF99346991B1238E20872DA8FE51
:1008C000D58AF3843AF037E4090054EE674993E49B
:1008D0008170E3904DEFFE41B7997BC183BA6212FC
:1008E0006F7DDE6BAFDA16F95551EEA60C2B02A325
:1008F000FD8DFB3017E46FDF3671C4CA872548B021
:1009000047ECEAB4BFA54D9B9F0293C4E3E4E842E1
:100910002D6881150AEB845BD6A874FB7D1DCB2C5A
:10092000DA462A7662CEBC5C9E8BE7CFBE78F57C39
:10093000EBB33A9CAA6FCC72D159F21123D63F483F
:10094000D1B7CEB0BFCBEA80DE57D45E972F75D13A
:10095000508E802C6679BF724BBD8A816CD3E101C9
:10096000DCD21526C536DA2C1AC02794EDB79B8544
:100970000B5E8097C5EC4FEC885D50073547DC0B6C
:100980003B3DDD60AFA85D813824255D5C15D1DE7F
:10099000B3ABEC0569EF83ED5754B86464111632BC
:1009A00069DA9F2D7F36BB445A34E87FBF03EB00E2
:1009B0007F59682279CF736C2C29A7A15F38A11DBC
:1009C000F02053E01A6314587110AA080C3E161A4E
:1009D0006022827FBAA443A0D0AC1BD56B64B5144F
:1009E00093319E5350D05766EE5A4FFB032A6958F5
:1009F00076F183F74EBA8C4206605D6DCE6088AEAC
:100A0000A4C3F103A54B98A1FF67E1ACA2B862D7DC
:100A10006FA031B4D277AF211006C69AFF1D091717
:100A20000E5FF1AA54344B458A8763A6DCF9243063
:100A300067C6B2D6613369EE50615728E77EEEECA7
:100A40003A5A734EA88DE418EAEC4164C8E2E866AD
:100A5000B62DB6FB6A6C16B3DD4643B973006A71F6
:100A6000ED4E9D251AC33C4A95159935811402D641
:100A7000989BECD8233B8429AF0C9983A69A344FDA
:100A8000FAE8D03C4BD0FBB668B89E8FCDF7602D0E
:100A90007A22E57DAB651B95A7A87FB677477B5F7C
:100AA0008B1272D0D491EFDE19503CA78BC4A9B33E
:100AB00023CB76E681F0C1048FA3B8545B97AC19C1
:100AC000FF3F55272FE01D429B57FC4B4E0FCE9802
:100AD000A9435703BDE7C894DF6E367332B4EF2ED7
:100AE000857A6EFC6C188275359007F3E49F3EDCC6
:100AF00068F3B5F31980920699A2E86FFF2E7FAED6
:100B000042A45FFBD40E812BC304FF2BB3744E367B
:100B10005B9C1500C6472BE88B3DF19C039A587FE0
:100B20009B9CBF854979352E567B411439478326D6
:100B3000AA078998111B86E7737AD87D786153E9F3
:100B400079F5368D449284F91350583BA46A366582
:100B5000498E3C0EF16FD284C47E8E3F39AE7C84C8
:100B6000F163378E3CCC3E448145F14BB9ED6B3699
:100B70005DBB20601A0FA3AA55773AA9AE374DBACC
:100B8000B8866BBC0850F6CCA4BD1D4072A586FA91
:100B9000E210AE3D584B97F34374A99EEB21B70189
:100BA000A4869397EE2F4F3B86A1416F4126907804
:100BB0005C7F30384B3FAAECED5C6F0EAD4387FD98
:100BC0009335E601EF412690999EFB195BADD291DA
:100BD0008AE046AF65FA4F84C1A12DCF458BD385FE
:100BE00050557CF96788D44EE9D76B6154A1A4A60F
:100BF000A2C2BF309C409F5FD7692B24825ED9D6AA
:100C0000A712541AF7559F7650A99584E66B6DB5D7
:100C10009654D6CDB3A19B46A7944DC494B498E303
:100C2000E1E234D533160754CDB77753DB4F4D4649
:100C30009DE9D49C8A36B6B838266C0EFF9C1B43BF
:100C40008B80CCB93DDAC7F18AF26DB8D7742F7EAC
:100C50001EB7D34AB4ACFC79486CBC96B6944657E0
:100C60002DB0A3FC1EB95260852D41D043011E1C3E
:100C7000D57DFCF3960DC7CB2A299A93DD882D37B5
:100C80005DAAFB4968A09C50867F685657F9791881
:100C900039D4E001843361CAA5D2D6E4C98A4A2393
:100CA000444EBCF0DC24A1A0C4E2073C10C4B5252E
:100CB0004B6563F480E7CF61B1718221872CF59198
:100CC00000320CECA9B59A7485E3368F764F9C6D93
:100CD000CEBCAD0A4BED7604CBC3B9339E019396DF
:100CE000697DC5A245799B045C8409ED8843C7AB47
:100CF000931426A140B5CE4EBF2A42853E2C3B54CC
:100D0000E8121F0E9759B22789FAF2DF8E6859DC74
:100D100006BCB6850D0622ECB1CBE504E63DB3B0CA
:100D20004173083F3C588663EB50EE1D2C3774A985
:100D3000D318A3476E9354AD0A5DB82A555D78F673
:100D4000EEBE8E3C7669B940C234EC2AB9ED7E2005
:100D5000E48D0038C7E68F44A886CEEB2AE990F1EF
:100D60004CDF32FB731B6D921E95FEB4DB65DF4DCD
:100D700023548948BF4A2E70D6D762B43329B13A7A
:100D8000334C236DA676A5216348E6905DED9095E2
:100D90000B7A84BEB80D5E630C62264C145AB3AC59
:100DA00023A474A76F333005600142A028B7EE1961
:100DB00038F164808243E141271F1F90547AD52384
:100DC0002ED13DCB28BA587FDC7C9124E928518371
:100DD0006EC5562142EDA05622A140806BA8F79423
:100DE000CA136B0C39D9FDE9F36FA69EFC708AB368
:100DF000BC593C1E1D6CF97CAFF9887195EB57000E
:100E0000BD9F8C4FE12483C522EAFDD30CE2171865
:100E10007C6A4CDE77B4539B4C81CD2360AA0E25AF
:100E2000739C02793230DF74DF7519F4A5145CF716
:100E30007AA8A591847C6003063BCD50B6279CFE22
:100E4000B1DDCCD3B05924B2CAE21C81229D078FF8
:100E50008EB9BE4EFAFC3965BABF9D12375E977ED9
:100E6000F389F55DF5E3098C62B5209D0C538A6822
:100E70001BD28F75175DD4E5DA756219146A262DB9
:100E8000EBF8AF37F06CA455B1BCE233C09ACAB0EE
:100E900011494F689B3B6B3CCC13F6C78561684298
:100EA000AEBBDDCD4516291DEADBC803943CEE4FF1
:100EB0008211C3EC28BD970599DED7BB5E221FD4F3
:100EC000EB64D992D985B76A056AE42441F1CDF083
:100ED000D83FF89E0ECD0B7A706B5A750A6A33882C
:100EE000EC17750870102F24CFC4E942006194CA32
:100EF0001F3A7606FAD24881F077600345D961F44B
:100F0000A46F3DD930C3046B542AB7EC3BF44BF5C6
:100F1000685226CEFF5D1991A0A3A5A9B1E023C414
:100F20000A774DF95120A3A5A9B1C10082868E7F11
:100F30005D1991A0A3C4EB540B756852078C9A9766
:100F40008D79706246EF5C1B95897141E121A1A109
:100F5000A1C002674C1AB6CFFD785324ABB5C9F1D6
:100F60006023A5C812876D5813858892876D583203
:100F7000C70C9A97ACDA36EE5E3EDF1DB8F2662FEC
:100F8000BDF87247ED5813858892878C7B55099080
:100F9000A2C6EF3DF85324ABD42AB7EC5A36EE5E26
:100FA0003EDF3CFA764FFD5930E246EF3DF85305FF
:100FB0006931C10082868E7F5D19B0E227CCFB7457
:100FC0004B148B948B756833C50892878C9AB6CF77
:100FD0001CBAD70D98B2E62FDC1B9589716023C42B
:100FE0000A968F9CBAF66E3FFC5B15A8D226AFBD61
:100FF000F872662FDC1BB4CB148B94AAB7CDF951D1
:10100000018082866F3DD930E227CCFB744B14AA55
:10101000B7CDF97043046B35C9F16023A5C8F3451A
:101020000892876D5832E62FBDF872664E1EBEFEDE
:101030007E7E7E5F1D9991A0A3C40A774D1893A46C
:10104000ABD40B754910A2C6EF3DF85324ABB5E8FD
:1010500033E44A16AEDE1FBCDB15A8B3C5087345E2
:10106000E931C1E121A1A1A1C002866F5C3AD70D8F
:101070009893A4CA16AEDE1F9D99B0E246EF3DF8E4
:1010800072470C9AB6CFFD5911A0A3A5C8F3450825
:1010900092876D39F043048A96AEDE3EDF1D99914A
:1010A000A0C2066F3DF872470C9A978D9893858879
:1010B0007345E931E023A5A9D003848A96AEDE1FEB
:1010C000BCDB15A8D226CEFF5D1991818082672DE9
:1010D000D813A4ABD40B94AAB7CDF95120A3A5C8BB
:1010E000F345E95022C6EF5C3AD70D989385887393
:1010F000644AF74DF95120A3C40A96AEDE3EFE7E47
:101100007E7E5F3CFA764FFD7872662FBDD930C384
:10111000E54812878C7B5528D2078C9A97ACDA1752
:101120008D795120A3C4EB540B948B94AAD62EBF77
:10113000FC5B15A8D226AFDC1BB4EA37EC3BF46AA3
:1011400037CD1893856931C1E140E325C812878CFA
:101150009AB6CFFD5911A0C2068E7F5D38F2470CBA
:101160007B746A37EC5A36EE3FFC7A764F1C9B95BF
:10117000897141006344EB542AD60F9CBAD70D986D
:1011800093856931C10082868E9EBEDF3CFA572C62
:10119000DA36EE3FFC5B158971410082868E7F5DF9
:1011A00038F247ED5813A4CAF74DF9510180634452
:1011B000EB542AD62EBFDD1991A0A3A5A9B1E04218
:1011C000068E7F5D1991A0A3C40A968F7D78724721
:1011D0000C7B746A562EDE1FBCFA570D79510161E3
:1011E00021A1C0E325A9B1C1E14002674C1A978D46
:1011F0009893A4ABD42AD60F9C9BB4CB14AAB7CD9A
:10120000F95120A3C4EB35C9F16042068E7F7C7A88
:10121000766E3FFC7A766E5E3EFE7E5F3CDB158925
:101220007141E121C0E344EB542AB7CDF970622744
:10123000ADD832C70C7B744B14AAB7EC3BD528D27F
:10124000076D39D120C2E74C1A978D98B2C70C5957
:1012500028F39B00010101010101010101020202C9
:101260000202020202020303030303030303040452
:10127000040404040405050505050606060606071C
:101280000707070708080808090909090A0A0A0BD5
:101290000B0B0C0C0C0D0D0D0E0E0E0F0F0F101076
:1012A00011111112121313141415151616171718FD
:1012B0001819191A1A1B1B1C1D1D1E1E1F20202168
:1012C0002222232424252626272829292A2B2C2DAF
:1012D0002D2E2F30313232333435363738393A3BD0
:1012E0003C3D3E3F404142434445464748494A4CC5
:1012F0004D4E4F50515354555658595A5B5D5E5F91
:10130000616264656668696B6C6D6F707273757726
:10131000787A7B7D7E8082838587888A8C8E8F9188
:10132000939596989A9C9EA0A2A3A5A7A9ABADAFB2
:10133000B1B3B5B7BABCBEC0C2C4C6C9CBCDCFD19C
:10134000D4D6D8DBDDDFE2E4E7E9EBEEF0F3F5F845
:10135000FAFDFF09025400030100A0FA090400008D
:1013600001030101000921110100012240000705CC
:1013700081030800010904010001030102000921A1
:10138000110100012247000705820308000109043A
:1013900002000103000000092111010001223200B6
:1013A000070583032000011201000200000008F875
:1013B000A832180002010200013A034300680061EC
:1013C0000072007900620064006900730020004E22
:1013D0000061006E006F00200028003300780035A7
:1013E000002900200045006C006900740065002D94
:1013F0000043000000240342006100730074006198
:10140000007200640020004B006500790062006FEC
:10141000006100720064007300000004030904000E
:1014200011241FBECFEFDAE0DEBFCDBF04B603FE4E
:1014300018C08091F6039091F703A091F803B09142
:10144000F9038730904BA740B04B59F41092F60344
:101450001092F7031092F8031092F903E0E0F8E31A
:10146000099512E0A0E0B1E0EEE3FDE502C00590D1
:101470000D92AC33B107D9F723E0ACE3B2E001C081
:101480001D92A63FB207E1F70E9451280C94562EF8
:101490000C940000E8EDF0E080818E7F8083109254
:1014A000E2001092DA001092E100A0EEB0E08C9120
:1014B00081608C9380818F77808319BCA7EDB0E029
:1014C0008C918E7F8C9380818F7E80831092D70346
:1014D00008952091E4003091E50095E6A90120915E
:1014E000EC00822F817020FF06C08091E80080FF11
:1014F00006C080E008952091E80022FD1AC0809186
:10150000E403882389F0853089F08091EB0085FD24
:101510000FC02091E4003091E50042175307F9F223
:101520009150E1F684E0089582E0089583E0089503
:1015300081E008958091E60387FF13C08091E80061
:1015400082FF06C08091E8008B778093E80004C09A
:101550008091E4038111F2CF08958091E403882300
:10156000D9F38091E80080FFF8CF8091E8008E7772
:10157000ECCF982F9093E900242F762F50E0891715
:1015800031F07091EC002091ED005091F00021FDC0
:1015900007C09F5F973071F78093E90081E008955D
:1015A0003091EB003E7F3093EB003091ED003D7FBA
:1015B0003093ED003091EB0031603093EB0070938D
:1015C000EC002093ED005093F0002091EE0027FDF9
:1015D000E0CF80E00895B0E0A0E0E1EFFAE00C9405
:1015E000A12DC8EDD0E088818F7E8883E7EDF0E003
:1015F00080818160808384E082BF81E08093D70313
:1016000088818E7F888302EE10E0F80110821092AC
:10161000DA0081EEC82ED12CF601108288818F77F6
:10162000888388818068888388818F7D888319BCBE
:101630001092E4031092E5031092E3031092E20388
:1016400090EEE92EF12CF70180818B7F80838881D9
:101650008160888342E060E080E00E94B90AF60180
:1016600080818E7F8083F80180818160808380818A
:1016700088608083F70180818E7F8083888180618C
:101680008883CDB7DEB7E8E00C94BD2DFC018091D6
:10169000EC039091ED0386179707A0F06115710593
:1016A00029F49091E8009E779093E80090E061150E
:1016B000710551F4911108C08091E80082FF34C097
:1016C00080E00895BC01F2CF8091E4038823C1F14A
:1016D0008530C1F18091E80083FD30C08091E80041
:1016E00082FDEACF8091E80080FFE1CF8091F30096
:1016F0002091F200382F6115710519F0283031055D
:1017000058F091E02830310509F090E02091E80090
:101710002E772093E800CBCF81918093F100615028
:1017200071092F5F3F4FE7CF8091E403882341F099
:10173000853041F08091E80083FFBECF81E00895BD
:1017400082E0089583E008958091D9030895CF92AF
:10175000DF92EF92FF922FB7F894C090D303D0900E
:10176000D403E090D503F090D6032FBFA7019601D4
:10177000261B370B480B590BCA01B901FF90EF909C
:10178000DF90CF9008959C014FB7F8948091D303D8
:101790009091D403A091D503B091D6034FBF821B83
:1017A000930B08952FB7F8946091D3037091D403ED
:1017B0008091D5039091D6032FBF08959C01FC0121
:1017C00032969FEF80E04191461751F09F3F19F408
:1017D000411101C0982F8F5F8630A9F79F3F09F410
:1017E0000895290F311D97FD3A95F90162830895F7
:1017F000A3E0B0E0EEEFFBE00C94A72D2091D00326
:101800003091D10328173907A1F09093D103809329
:10181000D003E091CE03F091CF03309751F024E054
:1018200029839B838A830680F781E02DCE01019670
:1018300009952396E2E00C94C32DA3E0B0E0E3E227
:10184000FCE00C94A72D2091CC033091CD032817F8
:101850003907A1F09093CD038093CC03E091CE03A0
:10186000F091CF03309751F023E029839B838A8343
:101870000680F781E02DCE01019609952396E2E0DE
:101880000C94C32DFC01680F791F8FEF91E3219118
:10189000822728E030E087FF09C0880F8927215080
:1018A0003109C9F7E617F70791F70895880FF7CFC1
:1018B00080934A01809159038370809349010E946B
:1018C0002E1183E080934E010895FF920F931F9392
:1018D000CF93DF93182F062FF42ED0E0C0E02F2DEA
:1018E000402F612FCE010E94C1112196C432D10533
:1018F000B1F7CDB7DEB7E5E00C94C02DAF92BF9243
:10190000CF92DF92FF920F931F93CF93DF93362FE7
:10191000472FE82FF0E0ED5AFD4E71110FC0E49112
:101920008E2F2E2F6E2F722FDF91CF911F910F913F
:10193000FF90DF90CF90BF90AF900895C72FD0E079
:101940002491F22E022F10E056E0659FC001112471
:10195000EFEFF0E0BF010E94CE2D832F90E0880FC3
:10196000991F35E5369FD001379FB00D11248A1B92
:101970009B0B982F990F980F6F01CC1ADD0AC09E10
:10198000D001C19EB00DD09EB00D11248B2F499F68
:10199000A0011124452F55276F01C41AD50AC09EF6
:1019A000A001C19E500DD09E500D11245F01A91AB7
:1019B000B108AC9E6001AD9ED00CBC9ED00C112431
:1019C000CD2CDD24EC19FD09E09FE001E19FD00D55
:1019D000F09FD00D1124ED2F62307105A1F050F46D
:1019E0006115710509F49ECF6130710581F0EB2F0F
:1019F000852F98CF6430710569F080F066307105ED
:101A000009F490CFF4CFE22F2B2F8D2F8BCFE22F25
:101A1000252F88CFEB2F822F2D2F84CF2B2F8F2D8B
:101A2000E52F80CF80E00895F894E82FE295EF70DD
:101A3000F0E031A1282F2F7081E090E001C0880FE5
:101A40002A95EAF7982F9095932391A392A1892B39
:101A500082A3789408959091F90292FF06C0282FEE
:101A600028712830F9F4877F846093FF06C0282FFF
:101A700028712831F1F4877E84612091FA0220FFD9
:101A800006C0382F38713830D9F4877F816021FF44
:101A900006C0282F28712831D1F4877E816194FDFA
:101AA000877E0895282F24712430F9F68B7F886073
:101AB000DCCF282F2471243101F78B7E8861DDCFA4
:101AC000382F3171313019F78E7F8860E0CF282FA1
:101AD0002171213121F78E7E8861E1CF8238910515
:101AE000B9F1B0F48133910509F47DC048F489322D
:101AF000910509F46DC08A32910509F47BC00895FF
:101B00008533910509F45FC08933910509F1089582
:101B1000833E9105D9F138F4803E910529F1823E4A
:101B2000910579F10895863E9105D9F1873E910599
:101B300009F43EC0843E910541F52091FA0221FF4F
:101B400024C08091F90284FD19C087EE90E00895C9
:101B50002091F902237009F05AC02091FA0223FF64
:101B600014C089E290E008952091F90220FD38C068
:101B70003091FA0230FF09C024FF43C090E080E0BA
:101B800008952091F90222FDF7CF08952091F902DE
:101B900022FD3AC03091FA0230FD39C024FFF5CF62
:101BA000EDCF2091F90223FFF0CF24FDE7CFCDCF79
:101BB0002091F90223FD2EC03091FA0231FFEECFC1
:101BC00084EE90E008952091F90225FFDECFC9CF81
:101BD0002091F90225FD21C02091FA0223FFD5CFE3
:101BE00089E390E0D2CF2091F90226FFCECF8AE29E
:101BF00090E008952091F90226FFC7CF81E390E09D
:101C0000089583EE90E0089582EE90E0089580EECE
:101C100090E0089586EE90E0089585E390E00895C1
:101C2000972F7830B8F46530A8F48330B0F470E0C2
:101C300025E0929F600D711D1124FB0198E2899FA0
:101C4000E00DF11D1124EE0FFF1FEB59FE4F8591A2
:101C50009491089580E090E0089581E0FCCF1F9377
:101C6000CF93DF930E946E0DEC01C11580E5D8077C
:101C7000F0F5C11580E4D80708F09CC0C03ED1053E
:101C800020F5CD3CD10508F082C0C83AD10578F4E2
:101C9000C53AD10508F073C0C130D10519F12097BC
:101CA00009F1C430D105F0F4D0E0C0E01BC0C33C62
:101CB000D105D0F7C85AD0E0CC0FDD1FC95ADE4F8E
:101CC0000990D881C02DD4640DC0C11580E2D80719
:101CD00008F0D1C0C11581E0D80708F05AC0C83E4D
:101CE000D10510F7CE01DF91CF911F910895C03635
:101CF00082E5D80718F5C03482E5D80708F06BC034
:101D0000C03282E5D80708F05FC0C11582E5D80768
:101D100008F497C02C2F2695269580E2289F9001E5
:101D200011248C2F8370C1E0D0E002C0CC0FDD1FE6
:101D30008A95E2F7C22BD32BDD68D4CFC03A82E577
:101D4000D80760F4C03882E5D80708F459C0CF71CD
:101D5000D0E0DC2FCC27C46FD06AC4CFC03C82E572
:101D6000D80708F462C0C03E82E5D80708F09CCFCF
:101D7000DC2FCC27CC27DF71C06FD06AB3CFC55A18
:101D8000D0E0CC5ADE4FC881D0E0D064ABCFD06574
:101D9000A9CF8D2F0E942B0D182FCE0199270E94BD
:101DA0006E0DC12FD0E0DC2FCC27CC27DF71C82BE4
:101DB000D92B98CFCE0199270E946E0DCC27DF70CA
:101DC000C82BD92BD06A8ECFCF71D0E0DC2FCC2797
:101DD000C16FD06A87CF2C2F26952695277080E279
:101DE000289F900111248C2F8370C1E0D0E002C0A5
:101DF000CC0FDD1F8A95E2F7C22BD32BDC6872CFA4
:101E00002C2F26952695277080E2289F900111247B
:101E10008C2F8370C1E0D0E002C0CC0FDD1F8A950B
:101E2000E2F7C22BD32BDA685DCF8C2F8F710E9423
:101E30002B0DC82FD0E0DC2FCC27CC27DF71D06250
:101E400051CF8C2F8F710E942B0D55E0D695C795E1
:101E50005A95E1F7CF70D0E0DC2FCC27282F30E067
:101E600084FF05C044E0220F331F4A95E1F7C22BDF
:101E7000D32BD06937CF8D2F8F710E942B0D182F48
:101E8000CE0199270E946E0DC12FD0E0DC2FCC2708
:101E9000CC27DF71C82BD92BD2CF80919E02811124
:101EA00010929E020895809590919D0298239093A0
:101EB0009D020895209192029091610256E02913AB
:101EC00002C080E0089530E0529FF001539FF00D72
:101ED0001124EE59FD4F7181761306C0708178137D
:101EE00003C07281741304C02F5F3F4F2770E7CF88
:101EF00081E008958091920290916102981301C04F
:101F000008958F5F8770FACFB0E0A0E0EAE8FFE0C5
:101F10000C94A02D7C010091F7021091F8028091A1
:101F20009F029091A002082B192BCFE0D0E0CC2487
:101F3000C394D12CBC2EC6010C2E02C0880F991F51
:101F40000A94E2F780239123892B49F4219790F793
:101F5000B12C8B2DCDB7DEB7E9E00C94BC2DB701C9
:101F60008C2F0E94100E0E942F0E019779F3F1CF53
:101F7000CF93DF93EC010E94840FBE010E94100EEC
:101F80000E942F0EDF91CF910895983078F585301B
:101F900068F5E82FF0E085E0989FE00DF11D112431
:101FA0009E2F977083E0F695E7958A95E1F7EE0FFF
:101FB000FF1FEE0FFF1FE95BFD4F50E040E080E0A8
:101FC000219130E0092E02C0369527950A94E2F758
:101FD00021703327042E01C0220F0A94EAF7822BC6
:101FE0004F5F5F4F4430510559F7089580E00895E1
:101FF000983098F5853088F5E82FF0E085E0989FD7
:10200000E00DF11D11248E2F877041E001C0440FB7
:102010008A95EAF783E0F695E7958A95E1F7EE0F62
:10202000FF1FEE0FFF1FE95BFD4F30E020E070E087
:102030005191DF011197CB01022E02C09695879531
:102040000A94E2F7817081958527842385278C93F4
:102050002F5F3F4F2430310559F708959093F802D0
:102060008093F702089521E030E002C0220F331F71
:102070008A95E2F7209530958091F7029091F802C9
:10208000822393230E942E100895909193028095AD
:10209000892380939302282F277091F4282F082EEC
:1020A000000C330B9217130659F09091FA0292FF2D
:1020B00007C08595859585950E94331010929302EF
:1020C000089521E030E002C0220F331F8A95E2F725
:1020D0008091F7029091F802822B932B0E942E1090
:1020E00008959093A00280939F020895FC0183813C
:1020F0009481892B29F08081918189238F3F51F42C
:1021000080E00895843FE1F717C0883EA8F0813F42
:10211000B9F712C0808191810E94B80F92959F708B
:10212000963099F358F4925F9F70923048F7803F51
:1021300019F040F7883E20F781E008959A5FF4CFC8
:1021400090919E0280919D02892B0E942B0D982FC9
:10215000927281E009F480E008950F931F93CF936A
:10216000DF938B01EA019091E403943061F5809351
:10217000E9008FEF9091E800815095FD06C095ED44
:102180009A95F1F700008111F5CF8091E80085FF65
:102190001AC00E94690A811111C08091E80085FD72
:1021A00006C08091E8008E778093E800F2CFF801B6
:1021B00081918F018093F100219779F78091E80058
:1021C0008E778093E800DF91CF911F910F91089552
:1021D00043E050E0BC0183E00E94AD10089545E06B
:1021E00050E0BC0182E00E94AD100895CF93DF93D0
:1021F000EC0148E050E0BC0181E00E94AD1088E0B5
:10220000FE01AAEDB3E001900D928A95E1F7DF910E
:10221000CF91089581E08093E00080E28093D80020
:102220001092C9008FE19EE40197F1F700C0000011
:1022300087E090EBDC018093F6039093F703A09383
:10224000F803B093F90388E19CE00FB6F894A895E1
:10225000809360000FBE90936000FFCF539A3BB114
:10226000377F2BB128604FB7F89480E693E0FC01EC
:102270005191CF0168E02BB9000000C057FF3BB976
:10228000550F000000C000C000C03BB900C06A95F7
:1022900091F7F3E08C3C9F0751F74FBF8FE594E037
:1022A0000197F1F700C000000895B0E0A0E0EBE571
:1022B000F1E10C949F2D7C015B016A018091E802A1
:1022C00001E010E08A3010F40AE010E0C1E0D0E054
:1022D000B501C701F6010995811104C021960C17BB
:1022E0001D072CF4CDB7DEB7EAE00C94BB2DCC9FD4
:1022F0009001CD9F300D300D112490E080E045E33A
:102300004A95F1F70000019682179307C1F7E0CFD5
:102310008091B102811110C08091D80080618093BA
:10232000D8008AE18A95F1F700C08091D90080FF3A
:102330000AC081E08093B10281E09091B1029130B6
:1023400009F080E0089582E08093B1020E944A0A79
:102350001092E403F1CF0E948811882359F0E09194
:10236000CE03F091CF03309729F00190F081E02D5A
:102370000995089580E008950E94881191E08927C9
:102380000895FF920F931F93CF93DF93EC01F62EE6
:10239000042F122F0E94BC1181110FC0C231D10530
:1023A0007CF06297FE01EE0FFF1FEC0FFD1FE05A5D
:1023B000FC4FF1820083128303C0C231D10594F334
:1023C000CDB7DEB7E5E00C94C02DB0E0A0E0EBEEB9
:1023D000F1E10C94A22D082F80914A01801324C0B2
:1023E0009091590393702091490130E081E0921758
:1023F000130609F480E0817080934D0180915E03A3
:1024000090914C01981739F080934C0140E060E0C6
:1024100080E00E94650C013099F0002339F0023011
:1024200009F464C080E03AC081E0E5CF80914D01BD
:102430008823A1F140E060E080E00E94650CF2CFCB
:10244000C0914B01CC0FCC0FCC0F18E01C0F1532F4
:1024500008F014E20E94BC11882319F0133108F02F
:1024600012E10E94BC11811103C0C23108F4C2E123
:1024700060915A0370915B0380915C030E947E0C13
:10248000F62EE72ED82ED0E0C11700F10E94BC1125
:10249000882309F479C081E0123120F690914B0134
:1024A0009F5F90934B0181110CC082E080934E019D
:1024B00080914D01811105C0011103C083E080931B
:1024C0004E01CDB7DEB7E7E00C94BE2DFE01E85F0C
:1024D000FD4F808190914C01892331F02D2D4F2D9E
:1024E0006E2DCE010E94C1112196CECFC0914B011D
:1024F000CC0FCC0FCC0F18E01C0F153208F014E2F3
:102500000E94BC11882319F0133108F012E10E94D7
:10251000BC11811103C0C23108F4C2E120915D03F6
:102520002695269531E0230F08F42FEF40915503AF
:102530005091560390E080E0429F812D529F800D84
:10254000911D1124F82ED0E0C11708F09FCFFE0195
:10255000E85FFD4F808190914C01892399F0709143
:102560005B03FE01EE0FFF1FE856FE4F60A56F19DB
:1025700080915C030E947E0C462F282F672FCE018E
:102580000E94C1112196E0CF81E0143208F486CF79
:1025900049CFCF93DF93EC010E94BC11811106C09B
:1025A000CE010E945E13DF91CF910895D093250351
:1025B000C0932403F8CF8091F30386FF05C084E61F
:1025C00090E00E94C912089587FF09C08295837028
:1025D00024E6829FC001112488539F4FF2CF8F7051
:1025E00028EC829FC001112480579E4FEACF0F93A1
:1025F0001F930E948811882329F00E94D20B1F91FB
:102600000F9108950E94D20B0091E9021091EA0205
:102610002091EB023091EC02600F711F821F931F1B
:10262000EECFCF930E94BC1128E030E043E060E0A1
:1026300080EF0E94D92AC82F811105C00E94B12BBA
:102640008C2FCF91089585E08A95F1F70000F8CF9F
:10265000A2E0B0E0EEE2F3E10C94A42D182FF62EE8
:102660000E941113082F811106C000E0802F2296CE
:10267000E5E00C94C02D103549F00E94BC11EEEE3F
:10268000F3E0882311F0EFEEF3E010821068198375
:10269000FA8262E070E0CE0101960E94812B892BC4
:1026A00021F78AEB8A95F1F700C00E94B12B83E4F1
:1026B00092E00197F1F700C00000D8CFCF93DF93ED
:1026C000EC010E94BC11CE0164E670E00E94CE2DA8
:1026D000615071096837710510F067E770E08FE0AD
:1026E0000E942813DF91CF910895CF93C82F0E94A5
:1026F00011138823C9F08C2F0E94512B8FE792E091
:102700000197F1F700C000000E94692BC82F95E0E7
:102710009A95F1F700000E94B12B85E68A95F1F7B2
:1027200000008C2FCF910895C0E0FBCF0E94BC1118
:102730008FE00E9475138F5F24E6829FC0011124F1
:1027400008954F925F926F927F928F929F92AF9275
:10275000BF92CF92DF92EF92FF92809050039090C1
:102760005103A0905203B09053030E948811882314
:1027700009F44AC0C501B4010E94A70B6B017C019A
:102780000E94F7124B015C0180925003909251031A
:10279000A0925203B0925303A0912703E7E2F3E023
:1027A0008A2F90E04FEF5FEF60E070E04C195D0919
:1027B0006E097F09A91331C08093270380915F03BD
:1027C00081113EC090915903892F837019F0892F90
:1027D0008695869590914E01913009F441C09923D8
:1027E00089F1923009F43FC0933009F43FC0FF9063
:1027F000EF90DF90CF90BF90AF909F908F907F90A1
:102800006F905F904F9008950E94F7126B017C01CA
:10281000C818D908EA08FB08B3CF218D328D2901E9
:10282000712C612C441555056605770520F48150FF
:102830009F5F3296BFCF2C0D3D1D328F218FF8CF79
:1028400080E0C8CF10924B018092550390925603BE
:10285000A0925703B092580381E080934E01C7CFF6
:102860000E94E511C4CF0E94580CC1CF809154033F
:10287000882351F046E050E06CE170E089E593E098
:102880000E940C2E10925403C0905503D090560312
:10289000E0905703F09058030E948811882369F054
:1028A000C701B6010E94A70B603171058105910532
:1028B00008F49DCF10924E019ACF0E94F7126C1926
:1028C0007D098E099F09F0CFE9E5F3E089E0808377
:1028D0008091510190915201A09153018183928383
:1028E000A38380E284838FEF858346E050E06CE130
:1028F00070E0CF010E940C2E109254030895A6E1BF
:10290000B0E0E5E8F4E10C94A52D4A8B5B8B6C8B71
:102910007D8B8E8B8E01095F1F4F86E0F80111922F
:102920008A95E9F70E94BC110E94BC118823A1F18D
:102930008091EF0381113DC060E080E50E94281383
:1029400081112DC086E0FE013796DE0111960190BF
:102950000D928A95E1F786E0FE013196DE01179629
:1029600001900D928A95E1F78F8183FF4FC085E03A
:10297000FE017296DE011D9601900D928A95E1F797
:102980002D853E854F855889698970E080E090E00B
:102990006696E4E00C94C12D8091EE03CBCF0E94AB
:1029A000BC11EEEEF3E0882311F0EFEEF3E081E0EE
:1029B00080830E941113882329F280E50E94512B05
:1029C000FAEBFA95F1F700C066E070E0C8010E94EA
:1029D000992B8F81877049F00E94BC11EEEEF3E0D5
:1029E000882311F0EFEEF3E010820E94B12B89856D
:1029F0009A859195819591099A8789878B859C8580
:102A00009195819591099C878B879CCF898187FDC2
:102A100003C010922603ABCF2B813C818D819E8118
:102A200040912603411103C041E040932603203822
:102A30004FEF34078CF02038310514F02FE730E0E9
:102A40008038EFEF9E0754F08038910514F08FE73F
:102A500090E02B8B8C8B8BCF20E8F2CF80E8F9CFE6
:102A60000F931F93CF93DF930E94BC110E94D12A32
:102A70000E941113882309F48AC025ED2A95F1F7E5
:102A800000000E94B12B85ED8A95F1F700006AE500
:102A90008AE30E942813882309F479C09FEFE0E7B6
:102AA000F2E09150E040F040E1F700C0000082E029
:102AB0000E94751383E00E94751384E00E947513D1
:102AC00085E00E94751386E00E9475136DE183E135
:102AD0000E942813882309F45AC08FE39CE90197C8
:102AE000F1F700C0000068E183E10E9428130E9412
:102AF0001113882309F44BC082EE0E94512B90E5FC
:102B00009A95F1F7C5E5D2E003E512E1FE01849163
:102B10000E94512BF0E5FA95F1F721960C171D074D
:102B2000A9F78FE193E00197F1F700C000008AE276
:102B30000E94751360E080E10E9428130E94B12B6F
:102B4000EFE3FCE93197F1F700C000000E94BC11EF
:102B50006FE08FE00E9428138FE99FE00197F1F763
:102B600000C0000060E080E10E94281367EE81E170
:102B70000E94281362E083E60E94281380E00E94EE
:102B800075138FE30E9475138AE20E947513DF911B
:102B9000CF911F910F91089580919D0290919C0279
:102BA000892B80933E0290919E02992391F0892B6C
:102BB00080933E0220E080E492E0FC013191CF015D
:102BC00031112F5FF2E086349F07B9F721110E947F
:102BD0004D0F48E050E064E972E08EE392E00E941D
:102BE000402E892BA9F088E0EEE3F2E0A4E9B2E000
:102BF00001900D928A95E1F7E091CE03F091CF0319
:102C0000309731F00280F381E02D8EE392E0099558
:102C10000895882321F00E94530F0E94CC15089537
:102C2000882339F090919D02982B90939D020E94E9
:102C3000CC15089545E050E06DE073E08BE193E042
:102C40000E94402E892B61F0E091CE03F091CF03DA
:102C5000309731F00480F581E02D8BE193E0099508
:102C600090911B0385E0EBE1F3E0DF01282F1D923B
:102C70002A95E9F790931B03ADE0B3E001900D9224
:102C80008A95E1F70895A9E1B0E0E9E4F6E10C9452
:102C9000A22D0E948811882309F400C160912003AD
:102CA0007091210380912203909123030E94A70B2E
:102CB000672B682B692B09F4F1C00E94D20B60933B
:102CC00020037093210380932203909323030E9497
:102CD000BC118111E7C040911B0350911C0360910E
:102CE0001D0370911E0380911F030E947F14209387
:102CF0001B0330931C0340931D0350931E036093EA
:102D00001F0385E0EBE1F3E0DE01169601900D92E2
:102D10008A95E1F7D0901C03D194DF8285E0FE0113
:102D20003696DE01509601900D928A95E1F785E086
:102D3000FE017096DE01119601900D928A95E1F7E1
:102D400085E0FE013196ABE1B3E001900D928A95EA
:102D5000E1F785E0EBE1F3E0DE01559601900D929D
:102D60008A95E1F7E0901C0310911D03F0901E037B
:102D700000911F030E948811882309F46EC080917E
:102D8000F30386FF42C020911403309115032D0DEB
:102D9000311DD7FC3A95309315032093140380918D
:102DA000120390911303810F911D17FD9A95909333
:102DB000130380931203A90137FF04C0442755274A
:102DC000421B530B473051054CF00FEF1216130600
:102DD0000CF401E010921503109214039C0197FF6C
:102DE00004C022273327281B390B273031055CF01C
:102DF000FF24FA941816190614F4FF24F394109281
:102E000013031092120310E0E12CEE8A1F8BF88E50
:102E1000098F85E0FE017596DE011B9601900D92EB
:102E20008A95E1F785E0FE013B96DE01119601905F
:102E30000D928A95E1F785E0FE013196DE01169646
:102E400001900D928A95E1F785E0FE013696DE014C
:102E5000559601900D928A95E1F7EE8A1F8BF88EB8
:102E6000098F85E0FE017596DE01169601900D92A0
:102E70008A95E1F785E0FE013696DE011B9601900A
:102E80000D928A95E1F785E0FE013B96ABE1B3E058
:102E900001900D928A95E1F70E941A166996E7E073
:102EA0000C94BE2D85E0E6E1F3E0ABE1B3E00190E8
:102EB0000D928A95E1F725CF2FE2280F283078F47C
:102EC00081E090E001C0880F2A95EAF720911B036A
:102ED000662331F0822B80931B030E941A160895FB
:102EE00080958223F8CF8823D1F19CEF980F913AF7
:102EF00078F4E0E4F2E09191891303C0DF011197C7
:102F00001C9292E0E634F907B1F70E94CC150895BF
:102F100090E2980F983050F4877091E001C0990FBB
:102F20008A95EAF7892F0E94530FEFCF9BE5980F00
:102F3000933028F490E080E00E941D0C089598E5FD
:102F4000980F9B3128F490E080E00E94F80B0895E0
:102F500093E3980F933118F460E00E945C17089592
:102F6000CF93C82F8823B1F08CEF8C0F813A00F5F6
:102F7000E0E4F2E086E492E0DF012D91C21761F017
:102F80008A179B07D1F76C2F8EE392E00E94DE0B2D
:102F90000E94CC15CF9108952191C21303C0DF0187
:102FA00011971C928E179F07B9F70E94CC15EBCF93
:102FB00080E28C0F883068F4C77021E030E001C0F7
:102FC000220FCA95EAF780919D02822B80939D0281
:102FD000DFCFEBE5EC0FE33040F4F0E0EC5AFE4FCE
:102FE000808190E00E941D0CD5CFE8E5EC0FEB311D
:102FF00050F4F0E0EE0FFF1FE95AFE4F80819181FF
:103000000E94F80BC7CF83E38C0F833118F661E081
:103010008C2F0E945C17BECF10929D02E0E4F2E07C
:1030200086E0DF011D928A95E9F790E080E00E943A
:103030001D0C90E080E00E94F80B10929C020E9410
:10304000CC150895AAE2B0E0E8E2F8E10C94A62DD0
:1030500086EE93E02091F100DC012D93CD01B3E0E9
:103060008E3E9B07B9F78091E703833009F472C065
:10307000B8F4813009F449C0823009F4B3C08091BA
:10308000E80083FF86C28091E6039091E7039A30BF
:1030900008F07FC2E92FF0E0E85AF14D0C94E22DE0
:1030A0008A3009F48EC08B3009F471C0893039F749
:1030B0008091E603813219F78091EA039091EB0346
:1030C000009711F00297D9F68091E800877F8093EE
:1030D000E8008091E80082FF38C09091F300809171
:1030E000F200029731F48091F100813011F08630C6
:1030F00021F48091F1008093D9038091E8008B77CF
:103100008093E8000E949A0ABACF8091E603813A40
:1031100009F0B5CF8091E800877F8093E800809127
:10312000EA039091EB03892B61F468E08AED93E068
:1031300070E00E94460B8091E8008B778093E80056
:103140009ECF60E090E080E0F3CF8091E4038111B6
:10315000C0CF95CF8091E603813A09F090CF80915E
:10316000EA039091EB03892B09F089CF8091E80065
:10317000877F8093E8008091E80080FFFCCF8091FA
:103180004F018093F1008091E8008E77B9CF809154
:10319000E603813209F073CF8091EA039091EB034B
:1031A000892B09F06CCF8091E800877F8093E8003D
:1031B0000E949A0A8091E80380934F010E940C18A4
:1031C0005ECF8091E603813209F059CF8091E8000B
:1031D000877F8093E8000E949A0A8091E903809398
:1031E000D8034DCF8091E603813A09F048CF809112
:1031F000E800877F8093E8008091E80080FFFCCFA3
:103200008091D803BECF803899F0823809F0C1C1CF
:103210008091EA038F70873008F0BBC18093E9008A
:103220008091EB0085FB882780F91092E90006C0A9
:103230008091E2039091E303911182609091E80004
:10324000977F9093E8008093F1001092F1008091B5
:10325000E8008E779AC1882309F488C1823009F08A
:1032600098C18091E80381118BC18091EA038F702E
:103270002FEF280F263008F08CC18093E9002091B1
:10328000EB0020FF7DC1933031F48091EB00806230
:103290008093EB0075C19091EB0090619093EB00EF
:1032A00021E030E001C0220F8A95EAF72093EA007E
:1032B0001092EA008091EB008860EACF811169C129
:1032C0001091E8031F778091E3008078812B809331
:1032D000E3008091E800877F8093E8000E949A0ACB
:1032E0008091E80080FFFCCF8091E30080688093AC
:1032F000E30082E0111183E08093E4034AC1805827
:10330000823008F046C12091E8033091E9032C3D5A
:10331000E3E03E07A1F583E08A838AE289834FB721
:10332000F894DE01139620E03EE051E2E32FF0E056
:1033300050935700E49120FF03C0E295EF703F5F88
:10334000EF708E2F90E0EA30C0F0C7968D939D937A
:103350002F5F243159F74FBF8091E800877F80931A
:10336000E8006AE270E0CE0101960E94460B80916F
:10337000E8008B778093E8000CC1C096E7CF80917E
:10338000EA039091EB03432F55274330510509F48D
:103390004AC078F54130510509F47AC084E590E0DF
:1033A000E3E5F3E14230510509F0F3C02091E80074
:1033B000277F2093E8002091EC033091ED038217E2
:1033C000930708F49C0140E02115310509F065C020
:1033D000411163C08091E80082FDC9CF8091E40370
:1033E000882329F2853019F28091E80083FFF2CF1B
:1033F000BECF4132510509F43CC04232510509F0BB
:10340000C8C08330910508F0C4C0FC01EE0FFF1F57
:10341000E15DFD4F0190F081E02D845D9D4FDC0169
:103420008C9190E01AC0332721303105D1F021155D
:10343000310561F02230310509F0ABC0E9EBF3E171
:10344000E4918E2F90E0E9EBF3E107C0EBE1F4E1CA
:10345000E4918E2F90E0EBE1F4E1009709F499C03C
:10346000A5CFE5EFF3E1E4918E2F90E0E5EFF3E1F6
:10347000F4CF8330910508F08CC0880F991FFC01B0
:10348000EB5CFD4F0190F081E02D89E090E08ECF64
:1034900082E190E0E7EAF3E189CF8091E4038823B9
:1034A00009F465CF853009F462CF8091E80083FD8F
:1034B0005ECF8091E80082FD8DCF8091E80080FF93
:1034C00083CF9091F3008091F2002115310519F01E
:1034D0008830910550F041E0089709F040E0809174
:1034E000E8008E778093E8006FCF44914093F1001D
:1034F0003196215031090196E8CF803809F049C052
:103500008091E800877F8093E8008091E5038093B5
:10351000F1009DCE81113DC01091E8031230C8F535
:103520008091E800877F8093E8001093E5030E9474
:103530009A0A112311F084E005C08091E30087FD11
:10354000FACF81E08093E40342E061EC81E00E94E5
:10355000B90A42E061EC82E00E94B90A42E261EC01
:1035600083E00E94B90A8091E40313C08091E803CC
:10357000813079F481E0933009F080E08093E303B7
:103580001092E9008091E800877F8093E8000E9414
:103590009A0A8091E80083FF0AC08091E800877F43
:1035A0008093E8008091EB0080628093EB00AA9604
:1035B000E3E00C94C22D0E940C182FEF84E39CE0F2
:1035C000215080409040E1F700C0000088E19CE07D
:1035D0000FB6F894A895809360000FBE909360009A
:1035E000FFCF9091FA0292FB222720F9281779F059
:1035F00080FB92F99093FA026091F9027091FA02BD
:1036000084E090E00E943A2E82E00E9445100895E6
:10361000B0E0A0E0EEE0FBE10C94A22D7901C82F10
:10362000880FDD0B41155105A9F0FE0193E0EE0F67
:10363000FF1F9A95E1F7E050FF4F818192818E54F0
:103640009D4F208130E04217530708F49A01A901E9
:103650000E944D2ECE010E94212DD82E8823D1F01C
:1036600001151105B9F083E0CC0FDD1F8A95E1F754
:10367000FE01E050FF4F438150E00417150708F4A6
:10368000A801C050DF4F6C817D816E547D4FC70112
:103690000E944D2E8D2DCDB7DEB7E7E00C94BE2DE8
:1036A000A4E0B0E0E6E5FBE10C94A52D6091DA0220
:1036B0007091DB028091DC029091DD020E94A70BE9
:1036C00011E0643671058105910518F10E94F71229
:1036D0006E5F7F4F8F4F9F4F69837A838B839C836D
:1036E00010E000E030E020E044E050E0BE016F5F19
:1036F0007F4F83E00E94081B182F882351F00E94FF
:10370000D20B6093DA027093DB028093DC02909319
:10371000DD02812F2496E4E00C94C12DB0E0A0E0FE
:10372000E4E9FBE10C949F2DC82F7B01D42F6901A4
:103730005801FB0160817181828193810E94A70BF6
:10374000643671058105910510F4DD23C9F010E0A0
:1037500000E030E020E0A501B6018C2F0E94081B9C
:10376000C82F882339F00E94D20BF7016083718340
:10377000828393838C2FCDB7DEB7EAE00C94BB2D08
:10378000C1E0F8CFA7E0B0E0E8ECFBE10C94A52D98
:1037900086E0E9E5F3E0DE01119601900D928A954D
:1037A000E1F780915F038F8347E050E06FEB72E0B9
:1037B000CE0101960E94402E41E0892B09F440E0A1
:1037C00007E010E09E012F5F3F4F6EED72E084E056
:1037D0000E948E1B2796E4E00C94C12D0F931F933B
:1037E000CF93DF93EC0144E050E067EB72E00E947E
:1037F000402E41E0892B09F440E004E010E09E01F6
:1038000066ED72E082E00E948E1BDF91CF911F91E6
:103810000F910895A1E0B0E0E0E1FCE10C949C2D53
:10382000762E4A015901680101E010E09E012F5FE8
:103830003F4F50E040E070E060E00E94081B182F0E
:10384000882399F1F40160817181828193810E94C2
:10385000A70B643671058105910538F4B701C601DF
:103860000E94420C9981891701F18701950150E06E
:1038700040E070E060E0872D0E94081BB82EB70181
:10388000C6010E94420C11E09981981310E01B219F
:1038900039F00E94D20BF401608371838283938399
:1038A000812F2196EDE00C94B82DA701B601C5013A
:1038B0000E944D2EF5CFAAE0B0E0E1E6FCE10C94C9
:1038C000A32D0E94BC11882309F449C085E0E82E8D
:1038D000F12C07EC12E09E012A5F3F4F44EE52E0CC
:1038E00066E085E00E940A1C882391F095E0FE01C5
:1038F0003696DE01119601900D929A95E1F795E0CA
:10390000FE013196A6E1B3E001900D929A95E1F7A0
:10391000E0902403F0902503E114F104E1F02091FC
:10392000E2023091E3022E153F05A9F0F092CD029C
:10393000E092CC0210E000E030E020E042E050E015
:103940006CEC72E087E00E94081B882321F0F09263
:10395000E302E092E2022A96E6E00C94BF2D81E0B9
:10396000FACFA4E0B0E0E7EBFCE10C94A12D6B01F1
:1039700084E0E82EF12C03EB12E09E012F5F3F4F15
:1039800042ED52E061E080E00E940A1C882361F071
:1039900049815A816B817C814093CE025093CF0242
:1039A0006093D0027093D1024091CE025091CF0229
:1039B0006091D0027091D102F601408351836283FD
:1039C00073832496E8E00C94BD2D9091F3039F70CF
:1039D000811115C08FEF980F9F708091F303807F46
:1039E000982B9093F3030E94DB124091F30350E075
:1039F00070E060E08FE090E00E942E2E089581E05C
:103A0000EACF9091F30392959370811117C08FEFD5
:103A1000980F93709295907F8091F3038F7C982BF1
:103A20009093F3030E94DB124091F30350E070E0A7
:103A300060E08FE090E00E942E2E089581E0E8CFB4
:103A400067EE7EEF90E080E00E943A2E60E082E038
:103A500090E00E941C2E60E083E090E00E941C2E0B
:103A60001092A00210929F0260E074E184E090E066
:103A70000E943A2E60E086E090E00E941C2E6FEFDC
:103A800087E090E00E941C2E40E050E0BA0188E000
:103A900090E00E942E2E60E08DE090E00E941C2EAF
:103AA00040E050E0BA0188E190E00E942E2E60E0F4
:103AB00087E190E00E941C2E40E050E0BA018CE1CA
:103AC00090E00E942E2E70E060E080E290E00E9484
:103AD0003A2E40E050E0BA0188E190E00E942E2E9C
:103AE0001092F30340E050E0BA018FE090E00E94B2
:103AF0002E2E0E94DB1240E050E0BA0183E190E0FC
:103B00000E942E2E08951F920F920FB60F9211242D
:103B10002F933F934F935F936F937F938F939F93D5
:103B2000AF93BF93CF93DF93EF93FF93D091E900CF
:103B3000DF708091EC00C82FC17080FDC0E810924A
:103B4000E9008091F000877F8093F00078940E94D4
:103B500022181092E9008091F00088608093F000B4
:103B6000CD2BCF70C093E900FF91EF91DF91CF9102
:103B7000BF91AF919F918F917F916F915F914F9185
:103B80003F912F910F900FBE0F901F9018951F928D
:103B90000F920FB60F9211242F933F934F935F9381
:103BA0006F937F938F939F93AF93BF93EF93FF9305
:103BB0008091E10082FF09C08091E20082FF05C090
:103BC0008091E1008B7F8093E1008091DA0080FF9B
:103BD00024C08091D80080FF20C08091DA008E7FC1
:103BE0008093DA008091D90080FF9DC080E189BD7B
:103BF00082E189BD09B400FEFDCF81E08093E4033A
:103C00008091D703811109C00E944A0A0E94EB0AE1
:103C10008091E20084608093E2008091E10080FF67
:103C200017C08091E20080FF13C08091E2008E7F78
:103C30008093E2008091E20080618093E2008091B5
:103C4000D80080628093D80019BC85E08093E4039B
:103C50008091E10084FF2BC08091E20084FF27C0A7
:103C600080E189BD82E189BD89B5982F917080FF7F
:103C7000FBCF8091D8008F7D8093D8008091E100A8
:103C80008F7E8093E1008091E2008F7E8093E2003E
:103C90008091E20081608093E2008091E5038823B7
:103CA00009F447C084E08093E4038091E4038091A9
:103CB000E10083FF27C08091E20083FF23C0809151
:103CC000E100877F8093E10082E08093E40310921B
:103CD000E5038091E1008E7F8093E1008091E20016
:103CE0008E7F8093E2008091E20080618093E20009
:103CF00042E060E080E00E94B90A8091F0008860B4
:103D00008093F000FF91EF91BF91AF919F918F91C0
:103D10007F916F915F914F913F912F910F900FBEC7
:103D20000F901F90189519BC1092E4031092D703BE
:103D300074CF8091E30087FD93E09093E403B5CFC7
:103D400078941F921FB61F9211248F939F93AF9365
:103D5000BF938091D3039091D403A091D503B091E8
:103D6000D6030196A11DB11D8093D3039093D40374
:103D7000A093D503B093D603BF91AF919F918F913C
:103D80001F901FBE1F9018952FB7F8948091D303F2
:103D90009091D403A091D503B091D6032FBF08957D
:103DA0000F931F93CF93DF93C62FD42F022FFC01C5
:103DB00082818823A9F06093F2030E94C41E90932D
:103DC000F1038093F003C77081E001C0880FCA95AA
:103DD000EAF70E941016DF91CF911F910F9108957D
:103DE0008091F203681335C08091F0039091F10344
:103DF0000E94C30B883C910560F510E21D0FCD17A2
:103E0000B9F080E28C0F883040F4C77081E001C0C7
:103E1000880FCA95EAF70E940916183048F481E025
:103E20009D2F977001C0880F9A95EAF70E9410168F
:103E3000802F0E94B017802F0E947317183058F6F9
:103E4000D77081E001C0880FDA95EAF70E94091661
:103E5000C2CFC77081E001C0880FCA95EAF7F6CFDC
:103E6000A5E0B0E0E6E3FFE10C949D2D7C01DC01D0
:103E700013968D919C911497892B39F08C91119602
:103E80009C9189238F3F09F017C42596ECE00C9490
:103E9000B92D0E94840F182F682F89819A810E9462
:103EA000F80F69817A81812F0E94100E8C016C01BC
:103EB000BEE7DB1AE8E0CE16D10480F4F601EE5935
:103EC000F14DD70112968C910C94E22D882331F09C
:103ED0000E94A01091E089270E94E51CB0E4CB1657
:103EE000D10408F470C0F801E851FC47E730F1054F
:103EF00008F069C0E659F14D0C94E22D882371F366
:103F00000E94A010E9CF882349F30E94A01091E0FD
:103F100089270E94011DE2CF882301F30E94A0108F
:103F2000F8CF9091F30380FB97F99093F3030E94ED
:103F3000DB12D4CF882391F29091F303892F97FB62
:103F400087F980588093F303F2CF9091F30380FBBD
:103F500096F9EBCF882311F29091F303892F8F7B91
:103F600096FF8064EFCF26E241EE61EEC7010E942A
:103F7000D01E80919302877009F487CFD7011296E3
:103F80008C91882309F481CF8091FA0282FF7DCF42
:103F900082E00E94451079CF27E245EE65EEE6CF3C
:103FA00026E241EE60EEE2CF27E245EE64EEDECFA0
:103FB00026E241EE62EEDACF27E245EE66EED6CF9C
:103FC00028E241E0EBCFF7018281882309F49DC309
:103FD0001092F203C8019057839708F080C384E0E1
:103FE00090E00E94062E9093FA028093F902F80165
:103FF000E150F047E232F10520F4EF58F14D0C9416
:10400000E22D8091F90281608093F90295C0809140
:10401000FA0288608093FA028FC08091F902826070
:10402000F3CF8091F9028460EFCF8091F90288602C
:10403000EBCF8091FA028160EDCF8091FA0282602D
:10404000E9CF8091F9028061DFCF8091F90280622F
:10405000DBCF8091F9028064D7CF0E940C18809149
:10406000F9028068D1CF8091F9028C60CDCF809128
:10407000FA028360CFCF8091F9028E7FC5CF809105
:10408000FA02877FC7CF8091F9028D7FBDCF8091E3
:10409000F9028B7FB9CF8091F902877FB5CF8091EC
:1040A000FA028E7FB7CF8091FA028D7FB3CF8091D5
:1040B000F9028F7EA9CF8091F9028F7DA5CF8091E3
:1040C000F9028F7BA1CF0E940C188091F9028F77A3
:1040D0009BCF8091F902837F97CF8091FA028C7FEA
:1040E00099CF8091F90282FB992790F921E09227DC
:1040F00090FB82F990FB83F987CF8091FA02982F89
:10410000909591708E7F892B90FB81F983CF909150
:10411000F902892F8F7B96FF806476CF0E940C185E
:104120009091F902892F97FB87F980586DCF61E054
:104130008EE090E00E941C2E6091F9027091FA02CC
:1041400084E090E00E943A2E0E940C1812CF60E0AA
:10415000EFCF9091F902892F8F7E94FF806154CF29
:104160009091F902892F8E7F90FF81604DCF9091C1
:10417000FA02892F877F93FF88604CCF8091460297
:1041800081110FC089E2E0E4F2E026E432E091918F
:10419000891303C0DF0111971C922E173F07B9F74F
:1041A000B1C285E3F0CF0E940C18FFEF24E33CE09E
:1041B000F15020403040E1F700C000000E940A1199
:1041C0006FEF7FEF90E080E00E943A2E0E94DB1AB2
:1041D0008091FA0282FB882780F991E089270E946A
:1041E000F11AF701828100811181882309F44CC002
:1041F000C8010E94840FD82E682FC8010E94F80FB2
:10420000B8018D2D0E94100E0E942F0E8C01882E59
:10421000D7011296AC90129715969C9092943FE01D
:104220009322809193028770F1F0CA2CAA20E1F0CA
:10423000812F807F803451F080E2800F883098F0A9
:10424000911004C0812F807E803269F08091FA0243
:1042500082FF09C082E00E9445108091930287701E
:10426000CC24C3948111C12CB12EB2942FE0B22280
:10427000BBE0BB1508F474C0EB2DF0E0ED56F14D3A
:104280000C94E22D80E0ABCFC8010E94C50FD82E60
:10429000B7CFE12FEF70DE2E107F19F0D29490EFA0
:1042A000D922AA20B9F0DD2069F080E2800F8830A1
:1042B00010F0811009C080919D02D82AD0929D02F1
:1042C0000E94CC15802F4AC080919C02D82AD0929F
:1042D0009C02F6CF802F0E947317DD2009F440C0A6
:1042E000005E083010F0811004C08D2D0E94530F25
:1042F00006C0D09480919C02D822D0929C020E9449
:10430000CC152EC0F12FFF70DF2E107F103219F068
:10431000D29480EFD822882089F021E0821609F417
:104320007CC0AA2009F486C0992009F47CC0F7015A
:10433000858180FFC7CF8F70858375C02091FA0279
:1043400022FD43C0AA20D9F1DD2039F080919D02E1
:10435000D82AD0929D020E94CC1580E00E94B0170E
:10436000AB2DA850BB0B149710F40E94AB11CC20BE
:10437000A9F08091930280FD11C0F701128285950A
:10438000859585950E946110C7010E94301F80911C
:1043900093028595859585950E94331085E0F701F8
:1043A000DE01119601900D928A95E1F709811A813B
:1043B000C8010E94C50FB8010E94100E66CD80E0B2
:1043C0000E947317DD2061F290CFAA20A1F0909196
:1043D0009E02892F8D29911003C00E941016C0CF14
:1043E00031E09312FACF22FFBBCF891709F4B8CF7F
:1043F00080939E02B5CF911006C00E944D0F8D2D67
:104400000E940916ADCF81E0981609F4A9CF8D2D31
:104410000E9409160E944D0FA3CFAA2031F095E00B
:10442000991508F49DCF8D2DD8CFA4E0A91508F4D7
:1044300097CFE5CF992019F3F9E38F1209C02FEF39
:1044400037EE83E0215030408040E1F700C00000AB
:10445000802F0E94731784CF812F86958695837055
:1044600061F0813009F07CCFC8019370A11002C0C7
:1044700080E090E00E94F80B73CFC8019370A11008
:1044800002C080E090E00E941D0C6ACF6A2D802F50
:104490000E945C1765CF812F837009F03FC0A11087
:1044A0005FCF402F429546954770440F440F802FB1
:1044B0008F7090E0042E02C0880F991F0A94E2F7D3
:1044C00030E020E004FF09C02FE030E002C0220FFE
:1044D000331F4A95E2F7209530951695169513707F
:1044E000123099F078F440919F025091A00211305F
:1044F00039F0822B932B842395230E94711030CFA7
:10450000842B952B822B932BF8CF822B932B2091EE
:104510009F023091A00282279327EFCF8695AA2091
:1045200011F0812F8170882309F41ACF402F429512
:1045300046954770440F440F802F8F7090E0042EF3
:1045400002C0880F991F0A94E2F730E020E004FFD0
:1045500009C02FE030E002C0220F331F4A95E2F776
:1045600020953095169516951370123099F078F4C1
:104570004091F7025091F802113039F0822B932BC1
:10458000842395230E942E10EBCE842B952B822B17
:10459000932BF8CF822B932B2091F7023091F802C6
:1045A00082279327EFCF1F70AA2029F0812F0E9426
:1045B0006110802F12CF802F0E940916812F0E9438
:1045C0003310CECE802F92EF891699F1981570F0A6
:1045D000A0EF8A16D1F0B1EF8B1691F0AA2009F462
:1045E0005BC091106FCE812F8F7127C0E3EF8E16C5
:1045F00039F1F4EF8F12F2CF8091FA0282FD2EC0D2
:10460000812F8F71AA20D9F218C0AA2069F024E066
:10461000291508F4A5CE1F7181E090E002C0880F33
:10462000991F1A95E2F7B8CF35E0391508F498CEFE
:10463000F2CF812F8F71A110C2CF0E94611090CE56
:1046400090E080E0AA2009F49DCF1F7181E090E006
:1046500002C0880F991F1A95E2F794CFAA2089F01B
:104660001F71812F0E9461108091FA0282FF07C0A2
:10467000A8E01A9FC0011124836080939302812FC8
:10468000DCCF81E00E944510B1E0B91508F068CE9A
:1046900082E00E94451064CE992059F0893309F0D8
:1046A000D7CEEFEFF7EE23E0E150F0402040E1F706
:1046B000CDCE812F8F7183CF85E0F701DE0111967A
:1046C00001900D928A95E1F7D70112962C9189817C
:1046D0009A812111DECB0E94C50F182FE2CB063143
:1046E000BCE71B07F1F480919D028A7A91E009F4FE
:1046F00090E09093460269E2811165E38EE392E0D7
:104700000E94DE0B0E94CC1534CC0631ECE71E076C
:1047100009F434CD005218470531110508F429CCAD
:1047200060CD0330FCE71F0709F44ACD50F40115B2
:104730003CE7130709F437CD01301C4709F446CD97
:1047400050CD0B359CE7190709F49CCD0C35ACE72F
:104750001A0709F43DCD0A351C4709F042CD81E026
:104760003ECD1F93CF93DF9380916002807F09F04D
:104770004BC080915D02882309F446C0809192026B
:10478000C091610240915B0250915C0260915E02B7
:1047900070915F02D42FD52316E0C817A9F190E0DD
:1047A00061157105A9F1DF3F99F1189FF001199F7B
:1047B000F00D1124DF01AE59BD4F11962C911197C8
:1047C000251326C02C91241323C012962C911297E6
:1047D00021111EC013962D913C91261B370B283CAE
:1047E0003105B0F4809160028F7080618093600227
:1047F000E959FD4F80818F70806180838BE592E065
:104800000E94301F0E947A0FDF91CF911F9108956F
:1048100001968770C2CFA1E1B0E0E1E1F4E20C942F
:104820009D2D8C0185E0F801DE011D9601900D9211
:104830008A95E1F7F801E2808BE5882E82E0982ED8
:1048400040915E0250915F024115510509F430C15B
:1048500090915B0220915C02892F82238F3F09F4A3
:1048600027C1D080C180A380B480F0905D02B501E3
:10487000641B750BFF2009F4E7C080916002382F9C
:10488000307F683C710508F0ABC0311178C0FE2C58
:104890002C1114C09D1112C0E11010C08F708061E6
:1048A00080936002C4010E94301F80916002F80171
:1048B00085838F2D6196ECE00C94B92DA114B10481
:1048C000C9F18D2D8C218F3FA9F181E08E2580FFCC
:1048D00005C04E2D6C2D8D2D0E945A0FA114B104D0
:1048E00059F18D2D8C218F3F39F181E08E25F82FE4
:1048F000F170BF2E80FF39C04E2D6C2D8D2D0E9482
:104900005A0FA82E811131C0DD86CE868D859E85F9
:104910000E94B80F292F22952F70243078F49F70B1
:104920002230A8F09923B9F0F8019581907F99F48D
:10493000FA2CBFCF80E0CBCF80E0D9CF2A5F2F7099
:10494000223068F0C8010E94301FAB2CF1CF9923B0
:1049500011F0882369F3805E883050F3F3CF803FF5
:1049600038F3815F833070F7E3CFEE2009F4A1CFF5
:1049700080916002816080936002F12C9ACF2C11AB
:1049800005C09D1103C0EE2009F477C0C8010E9444
:104990007610882309F1EE20F9F0809160028032D0
:1049A00070F020915B0230915C0238872F8319866A
:1049B000BB86AA868C87CE0107960E94301F86E0B0
:1049C000F801ABE5B2E001900D928A95E1F70E9403
:1049D000B123FF24F3946DCFC8010E94301FF9CF9B
:1049E00031110AC08BE592E00E94301F86E0F4018D
:1049F00011928A95E9F7C1CF2C110EC09D110CC000
:104A0000E1100AC08583C8010E94301F86E0F401CE
:104A100011928A95E9F74DCFC8010E94761088233C
:104A2000D9F2EE20C9F280916002803240F22091EA
:104A30005B0230915C023A8329831B82BD82AC8287
:104A40008E83CE010196B9CF683C7105F8F6FE2C35
:104A5000EE2011F22C111EC09D111CC0809160022D
:104A600080FD0FC0982F907F61F08583903F31F0DB
:104A7000982F907F905F8F70892B8583C8010E944B
:104A8000301F86E0F801ABE5B2E001900D928A9507
:104A9000E1F70FCFC8010E947610811190CF80916D
:104AA0006002816080936002C8010E94301F01CFC4
:104AB000EE2009F491CFC8010E947610F82E8823C9
:104AC00009F48ACF86E0F801ABE5B2E001900D92DF
:104AD0008A95E1F780915B0290915C020E94B80F89
:104AE0000E94B123E6CEA7E1B0E0E9E7F5E20C943D
:104AF000A62D4B8B5C8B6D8B7E8B8F8B61111092F7
:104B00009C021A8A198A85E0FE017396DE011D96C1
:104B100001900D928A95E1F786E0FE013D96DE0157
:104B2000179601900D928A95E1F7CE0107960E94A3
:104B30000B24882359F016E0809192029091610233
:104B4000891343C06796E3E00C94C22D86E0FE0112
:104B50003796DE01119601900D928A95E1F78A85CC
:104B60009B85892B41F38F81988589238F3F19F38A
:104B70002091610230E0C901019687709927409128
:104B800092024817190671F40E940C1810926102E3
:104B90001092920286E0EBE5F2E0DF011D928A9529
:104BA000E9F7C9CF96E0929FD001939FB00D1124F1
:104BB000AE59BD4FFE01319601900D929A95E1F7E5
:104BC000809361020E947A0FB6CF819FC0011124A9
:104BD0008E599D4F0E940B24882309F4B3CF8091F6
:104BE000920290E001968770992780939202A4CF59
:104BF000A5E1B0E0EEEFF5E20C949E2D8E01075F8B
:104C00001F4F88E0D8011D928A95E9F78FE8E82EBA
:104C100081E0F82E99249394CC24C394D12C28E9D4
:104C2000A22E21E0B22EF70181917F018F3F09F47E
:104C300043C0F894E82FE295EF70F0E021A18F7067
:104C4000A60102C0440F551F8A95E2F7CA01922FB0
:104C5000982B91A392A18095892382A3789400C078
:104C600064E971E0F801492D4095DB019D91BD019A
:104C700080819F3F09F467C0292F22952F7030E073
:104C8000D90190962C9130E09F7002C03595279500
:104C90009A95E2F720FD57C0892980833196A616A0
:104CA000B70619F7F701319780818F3F11F00E9405
:104CB000140DB0EABA95F1F7990CE4E9EE16E1E0CB
:104CC000FE0609F0B0CF48E050E0B8018DEE92E06A
:104CD0000E94402E009741F028E0F801ADEEB2E0CE
:104CE00001900D922A95E1F70091F602892B69F166
:104CF00081E08093A5020E94C41E9093A402809339
:104D0000A3028091A3029091A4020E94C30B059775
:104D100000F110E005501D4F44E050E06DEE72E0F0
:104D2000C8010E94402EA12C892B51F084E0EDEEA9
:104D3000F2E0D80101900D928A95E1F7AA24A3949C
:104D40001092A50207C08423A8CF8091A5028111EB
:104D5000D8CFA12C0E948811B82EE091F6028823AA
:104D600009F494C019821A821B821C820E2F10E053
:104D700005501D4F8091E8028A3008F04CC041EB8D
:104D80005CE1BE016F5F7F4FC8010E94551188230F
:104D900009F46BC04EEE5BE1BE016F5F7F4FC8014F
:104DA0000E945511882309F460C040E55BE1BE0113
:104DB0006F5F7F4FC8010E945511882309F455C0C9
:104DC00042EC5BE1BE016F5F7F4FC8010E9455114D
:104DD000882309F44AC04BE55CE1BE016F5F7F4F59
:104DE000C8010E945511882309F43FC01092E802BF
:104DF0008091F50290E044E050E0BE016F5F7F4F8C
:104E000085509D4F0E94402E21E02093B002892BB7
:104E1000C9F4B12C24C08091A6029091A7020E94EF
:104E2000C30B843F914008F0AACF8091B002882341
:104E300081F384E0FE013196DF011D928A95E9F746
:104E40001092B002E091F502F0E0E550FD4F89814B
:104E50009A81AB81BC8180839183A283B3838B2DA4
:104E60008A296596EBE00C94BA2D8091E8028F3F79
:104E700031F08F5F8093E8028A3008F4B9CF0E9446
:104E8000C41E9093A7028093A602CFCF0091F50293
:104E900010E005501D4FF0E0E550FD4F84E0A3EB1E
:104EA000B2E001900D928A95E1F764E070E083EB47
:104EB00092E00E94420C8093B20284E0E7EBF2E0C1
:104EC000D80101900D928A95E1F7C090BB02D09075
:104ED000BC02E090BD02F090BE028091A8029091C9
:104EE000A902A091AA02B091AB02C816D906EA069F
:104EF000FB06D1F0C092A802D092A902E092AA02C9
:104F0000F092AB020E94881181110EC00E94D20B58
:104F1000C61AD70AE80AF90AC092E902D092EA0250
:104F2000E092EB02F092EC0286E0EFEBF2E0A9E512
:104F3000B3E001900D928A95E1F71091C50211231B
:104F400049F080915F03811105C00E94E51180E066
:104F50000E94580C10935F030E94BC1181117FCFF7
:104F60006091AC027091AD028091AE029091AF025F
:104F70000E94A70B672B682B692B09F470CF0E9446
:104F8000D20B6093AC027093AD028093AE0290930B
:104F9000AF020E9496139C0198E0E6ECF2E0DE017D
:104FA000119601900D929A95E1F78F81988500975F
:104FB00029F02817390711F00E945E13FE0171963F
:104FC00085E0DF011D928A95E9F749895A896B8945
:104FD0007C898D890E947F142A833B834C835D8367
:104FE0006E8365E070E0CE0102960E94420C8983D8
:104FF00088E0FE013196A6ECB2E001900D928A9510
:10500000E1F707CFA5E0B0E0E8E0F8E20C94A52DC9
:105010000E94C41E8C018091A1029091A20280176F
:105020009107A1F08FEF89838A831B820E94C41E9F
:105030008160782F9D838C8349815A816B818D811A
:105040000E9473251093A2020093A1022596E4E02A
:105050000C94C12D1F921FB61F9211248F939F9302
:10506000AF93BF938091D203811113C08091D3037A
:105070009091D403A091D503B091D6034196A11D80
:10508000B11D8093D3039093D403A093D503B09321
:10509000D603BF91AF919F918F911F901FBE1F901C
:1050A0001895CDB7DEB729970FB6F894DEBF0FBEBF
:1050B000CDBF85B7806885BF85B7806885BF84B759
:1050C000877F84BF0FB6F894A895809160008861AF
:1050D00080936000109260000FBE80E890E00FB6F1
:1050E000F89480936100909361000FBE82E19DE08F
:1050F00090933D0280933C020E944A0A0E94EB0A70
:105100008091E20084608093E20078948091E403CF
:105110008823A1F01091E9001F709091EC00892F75
:10512000817090FD80E8182B1092E9008091E800D2
:1051300083FD0E9422181F701093E90082E084BD55
:1051400093E095BD9AEF97BD80936E001092E902AF
:105150001092EA021092EB021092EC020E94BC1133
:10516000809340010E94881181110E94352C80910A
:1051700040018091400194E0811190E09093F6020B
:1051800084E0891B8093F5020FE811E0D8018D912E
:105190008D018F3F11F00E94140DB1E004391B07FF
:1051A000A9F787EF0E94140D86E60E94140D84E98A
:1051B0000E94140D85E30E94140D88E0EBEFF2E0ED
:1051C000DF01282F1D922A95E9F7EDEEF2E0DF01CD
:1051D0001D928A95E9F78FE090E00E94002E6F7390
:1051E0006093F30390E080E00E94062E873E9E4F7E
:1051F00011F00E94201D82E090E00E94F82D809323
:10520000030384E090E00E94062E9093FA028093BC
:10521000F9020E94F825EFEFF6E721E0E150F040B7
:105220002040E1F700C000000E94F8258091FB02B9
:1052300080FF08C06FEF7FEF90E080E00E943A2E81
:105240000E940A1183E090E00E94F82D90E00E94F5
:105250007110109227038FEF9FEF9093410380937B
:1052600040039093430380934203909345038093BC
:10527000440390934703809346039093490380939C
:10528000480390934B0380934A0390934D0380937C
:105290004C0390934F0380934E0390E080E00E9474
:1052A000062E873E9E4F21F00E94201D0E9464140E
:1052B00081E08093540346E050E06CE170E089E5C2
:1052C00093E00E94E82D10925403809159038C7F43
:1052D00011F40E9464140E948811811102C00E947E
:1052E000382C0E94BC11811102C00E9430150E940E
:1052F000DB1281E491E09093CF038093CE03809101
:10530000E40300E112E1853009F4FDC00E94F825B4
:1053100014E0212E13E0312E8BEF92E098878F83DB
:10532000DC01F10191918D9123E0EC30F20709F459
:10533000F6C09817B9F30E9488118987B8E98B2EB7
:10534000B1E09B2EE12CAF81B885DD90B887AF83AB
:10535000F10161901F016D1409F483C06D242401D3
:10536000C12C77247394872D862109F46FC0F72C04
:10537000FD20F985FF2399F0C982EA8281E0F110CE
:1053800001C080E08B830E94C41E8160782F9D83C2
:105390008C8349815A816B818D810E947325FF2006
:1053A00041F0D2018C91F12C8F3F19F08E83FF24B4
:1053B000F3940F2D10E080912703800F912F911D02
:1053C00009976CF1E8E0AE2EB12CA01AB10AB80131
:1053D000685D7C4FA50188E293E00E944D2EB801E4
:1053E000605D7C4FA50180E393E00E944D2EA501F6
:1053F000440F551FB801660F771F605C7C4F80E437
:1054000093E00E944D2EB801685C7C4FA50188E3B3
:1054100093E00E944D2E88E08F198093270380919E
:10542000270390E0EE81AE2FB0E09D01220F331FE5
:1054300020543E4FAA0FBB1FBD016F537E4F41E06A
:10544000480F9F1508F481C080932703C394770CFD
:10545000EFEF4E1A5E0AF5E0CF1285CFF1013197DA
:10546000D082E39425E0820E911C58E0E5126BCFC8
:105470000E94D20B58C08091E403843009F434C0F8
:105480000E94A11380915F03811105C00E94E51164
:1054900080E00E94580C81E080935F030E944316D5
:1054A0001092D203A8E1B0E0E0E40FB6F894A8951A
:1054B000A09360000FBEE093600083B7817F84609B
:1054C00083BF83B7816083BF7894889583B78E7FCD
:1054D00083BF0FB6F894A89580916000886180938F
:1054E0006000109260000FBE8091E303882359F0A2
:1054F0000E94F825EBEFF2E0819181113CC023E09E
:10550000E330F207C9F78091E403853009F4B3CFA3
:105510000E940C180E94AB1110925F03F7CE9813F3
:105520000ACF0E9402280E9488110E94A1130E94A3
:1055300043160E94AB1190910C03891709F4DFCE3A
:1055400080930C030E94D20BDACE90E0FC01E95D5F
:10555000FC4FD9015C915183DB015C915187BE8185
:10556000B18B880F991FFC01E95DFC4F128E118EE3
:1055700091E0842F64CF09BD19BD09B400FEFDCFB1
:105580008091D8008F7D8093D8008091E000826068
:105590008093E0008091E00081FDFCCF0E940C1818
:1055A000B2CF289A219A229A23982B9880E58CBD15
:1055B0000895909150019F3F09F071C08F3F09F409
:1055C0006EC0611144C01092F5039091F503423012
:1055D00009F441C0433009F442C094604130E1F124
:1055E00041E050E042175307E0F19091F50340315C
:1055F000510509F452C0C0F54230510509F446C0C6
:105600004830510509F446C09CB52091F503922B12
:105610009CBD9091F403992319F09DB591609DBDB7
:1056200080935001E82FE295EF70F0E031A1282F30
:105630002F7081E090E001C0880F2A95EAF7382B9F
:1056400031A392A18095892382A381E0089590E2FD
:105650009093F503BACF98609093F503C1CF9C6007
:10566000FBCF440F551FBECF4034510549F04038A1
:10567000510541F04032510539F621E02093F40301
:10568000926001C093609093F503BECF91E0909338
:10569000F403BACF21E02093F4039160F4CF80E0CB
:1056A0000895CF93DF938EBD0E94C41EEC010DB40C
:1056B00007FE05C08EB590E0DF91CF9108950E945E
:1056C000C41E8C1B9D0B8436910588F38EEF9FEFD3
:1056D000F3CFCF93DF931EBC0E94C41EEC010DB428
:1056E00007FE05C08EB590E0DF91CF9108950E942E
:1056F000C41E8C1B9D0B8436910588F38EEF9FEFA3
:10570000F3CF0F931F93CF93DF93EC018C01060F20
:10571000171FC017D10719F490E080E005C08991E8
:105720000E94512B97FFF5CFDF91CF911F910F91E1
:1057300008950F931F93CF93DF93EC018C01060F15
:10574000171FC017D10739F490E080E0DF91CF91A7
:105750001F910F9108950E94692B97FDF7CF8993B0
:10576000F0CF809150018F3F29F1E82FE295EF7043
:10577000F0E041A18F7021E030E0B90102C0660F76
:10578000771F8A95E2F7CB01942F982B91A392A1D2
:10579000892B82A38FEF809350018DB58E7F8DBDB5
:1057A0009CB58091F503809589238CBD1092F503FB
:1057B0001092F40308958EE14A9B02C08150E1F7F4
:1057C0004A9BFECF08955A9880E28A95F1F75A9A3B
:1057D0000895FC013BE03A95F1F798E020E080E085
:1057E00031E040E14A95F1F7880F4A9B02C08160A1
:1057F000232742E04A95F1F7000040E14A95F1F78E
:10580000915079F790E19A95F1F799B132E03A9594
:10581000F1F7000040E14A95F1F792FB992790F9E2
:1058200092272081920F90830895A1E0B0E0EBE1F0
:10583000FCE20C94A32D19828C017C01E60EF11C74
:105840000E151F0541F481E09981911180E02196A8
:10585000E6E00C94BF2D0E94DB2BCE0101960E9446
:10586000E92BF80181938F01EBCF529A5A9A089550
:1058700052985A9AEA9AE9E6F0E080818F7C808318
:1058800008956150770B91E001C0990F6A95EAF78E
:1058900020E031E0911108C0222391F05A9A80E271
:1058A0008A95F1F75A980895492F482339F05A9A62
:1058B000232740E24A95F1F79695ECCF5A98F9CF15
:1058C0005A98EDCFFF920F931F93CF93DF93EC0184
:1058D0008C01060F111DC017D10729F4CDB7DEB713
:1058E000E5E00C94C02DF9900E94E32B68E08F2D29
:1058F0000E94412CF0CF1F920F920FB60F921124ED
:105900000F931F932F933F934F935F936F937F93C7
:105910008F939F93AF93BF93EF93FF93CF93DF93B7
:105920000F92CDB7DEB719820E94DB2BCE01019614
:105930000E94E92B082F069506950695282F22959B
:105940002570902F9570290F922F9370269526958C
:10595000920F982797708981982B09F05CC00930C5
:1059600008F059C080E18A95F1F75A9A529A82E07C
:105970008A95F1F700C05A9888E0089F80011124A9
:10598000D801A050BF4F1696ED91FC911797309714
:10599000A9F060918D0170918E0114962D913C912A
:1059A0001597260F371F11968D919C911297680FAE
:1059B000791F13964C9113978C910995F801E0503B
:1059C000FF4F6381662351F020918D0130918E014C
:1059D00084819581820F931F0E94622C0E94E32B89
:1059E00080E18A95F1F75A9852985A9A80E18A95FF
:1059F000F1F7F801E050FF4F6081662351F02091EC
:105A00008D0130918E0181819281820F931F0E94BE
:105A1000152C0E94DB2B0F90DF91CF91FF91EF911E
:105A2000BF91AF919F918F917F916F915F914F91B6
:105A30003F912F911F910F910F900FBE0F901F90CC
:105A400018950F931F93CF93DF93EC0109970CF0F8
:105A50004CC0F894529A5A9885E08A95F1F7000064
:105A60009C2F969595708C2F8570980F892F837039
:105A70009695969523E0CC0FDD1F2A95E1F7980FB8
:105A80008E01092B0E94E32B00C068E0802F0E944A
:105A9000412C80E18A95F1F752985A9A4A9B1EC090
:105AA00087E090E04A991CC0FE01E050FF4F6381FF
:105AB0006623F9F020918D0130918E0184819581CA
:105AC000820F931F0E94152C811113C0529A5A9A6B
:105AD0007894DF91CF911F910F91089500C0DECF90
