:100000000C94EF030C94B82D0C9427040C94270443
:100010000C9427040C9427040C9427040C942704B4
:100020000C9427040C9427040C94D5270C94912746
:100030000C9428290C9427040C9427040C9427046E
:100040000C9427040C9427040C9427040C94270484
:100050000C9427040C9404290C9427040C94270472
:100060000C9427040C9427040C9427040C94270464
:100070000C9427040C9427040C9427040C94270454
:100080000C9427040C9427040C9427040C94270444
:100090000C9427040C9427040C9427040C94270434
:1000A0000C9427040C9427040C9427040631FF09B0
:1000B00074A1010975150026FF00952075088102BD
:1000C0000976150026FF00952075089102C00501EC
:1000D0000980A101850319012AB700150126B7007F
:1000E000950175108100C0050C0901A10185041955
:1000F000012AA002150126A002950175108100C0F9
:1001000005010906A101050719E029E715002501E8
:10011000950875018102950175088101050719008F
:1001200029FF150026FF00950675088100050819AE
:10013000012905950575019102950175039101C08D
:10014000726762206D617472697820746F67676C82
:1001500065205B25735D3A207267625F6D61747222
:1001600069785F636F6E6669672E656E61626C6544
:10017000203D2025750A0044454255473A206469D0
:100180007361626C65642E0A0044454255473A200B
:10019000656E61626C65642E0A004F6E6573686FF0
:1001A000743A206163746976653A2025640A000A0E
:1001B000002530325820006B6579626F6172645F90
:1001C0007265706F72743A200035001E001F0020A7
:1001D00000210022002E0014001A0008001500174C
:1001E000002D0004281624072109220A0039001DC9
:1001F000001B000600190005000000000029002176
:10020000522A004C0030002700260025002400233D
:10021000002F00130012000C0018001C00340033E3
:10022000280F240E210D320B003100380037003624
:10023000001000110000000000280022522C002BAA
:100240000001000100010001004600010001001D45
:10025000031B030603190301000100E300E200E0B1
:1002600000E100010001001D011B0106011901014F
:1002700000000000000100010001000100007C01FD
:100280000001000100010001000100010001000166
:100290000001000100010001004F00520051005018
:1002A00000010001004D004B004E004A000000001C
:1002B0000001002352010001004700010049000134
:1002C00000460001000100420043004400450001D7
:1002D0000001003D003E0040004100010001003AE5
:1002E000003B003C003D0001000000000001002335
:1002F0005201000100007C01000100010001000129
:10030000000100010001000100010001000100E303
:1003100000E200E000E100010001000100E6000150
:1003200000010001000000000001000100010001C7
:1003300000010001000100010001000100010001B5
:1003400000010001000100010001000100010001A5
:100350000001000100010001000100010001000195
:1003600000000000000100010001000100337801DD
:100370000027782578237801003278010028782634
:10038000782478010031780100010022782178205A
:100390007830782F782E782D782C782B7800000004
:1003A00000010001000100010054617267657420C2
:1003B000636F6E6E65637465640D0A0054617267E5
:1003C000657420646973636F6E6E65637465642C15
:1003D000207468726F74746C696E6720636F6E6EE0
:1003E000656374696F6E20617474656D7074730DEC
:1003F0000A004661696C656420746F2065786563E6
:100400007574652025730A007267625F6D6174728E
:1004100069785F636F6E6669672E666C61677320CB
:100420003D2025640A007267625F6D6174726978AD
:100430005F636F6E6669672E7370656564203D202B
:1004400025640A007267625F6D61747269785F6328
:100450006F6E6669672E6873762E76203D20256460
:100460000A007267625F6D61747269785F636F6EB4
:100470006669672E6873762E73203D2025640A0016
:100480007267625F6D61747269785F636F6E6669CF
:10049000672E6873762E68203D2025640A007267F7
:1004A000625F6D61747269785F636F6E6669672EF3
:1004B0006D6F6465203D2025640A007267625F6D80
:1004C00061747269785F636F6E6669672E656E61CD
:1004D000626C65203D2025640A007267625F6D6171
:1004E000747269785F636F6E666967204545505224
:1004F0004F4D0A007267625F6D61747269785F695F
:100500006E69745F64726976657273207267625F88
:100510006D61747269785F636F6E6669672E6D6F67
:100520006465203D20302E20577269746520646513
:100530006661756C742076616C75657320746F20CC
:10054000454550524F4D2E0A007267625F6D6174CF
:100550007269785F696E69745F64726976657273D7
:10056000206565636F6E666967206973206E6F74BE
:1005700020656E61626C65642E0A005B735D000A23
:100580000025303862003A200025303258000A72C7
:100590002F632030313233343536370A000A0025D4
:1005A000303258006C65645F7461736B3A200000F0
:1005B0000101010101010101010202020202020224
:1005C00002020303030303030303040404040404F7
:1005D00004050505050506060606060707070707BD
:1005E00008080808090909090A0A0A0B0B0B0C0C70
:1005F0000C0D0D0D0E0E0E0F0F0F1010111111120C
:100600001213131414151516161717181819191A8A
:100610001A1B1B1C1D1D1E1E1F20202122222324ED
:1006200024252626272829292A2B2C2D2D2E2F302C
:10063000313232333435363738393A3B3C3D3E3F40
:10064000404142434445464748494A4C4D4E4F502D
:10065000515354555658595A5B5D5E5F61626465EB
:100660006668696B6C6D6F7072737577787A7B7D75
:100670007E8082838587888A8C8E8F9193959698C9
:100680009A9C9EA0A2A3A5A7A9ABADAFB1B3B5B7E5
:10069000BABCBEC0C2C4C6C9CBCDCFD1D4D6D8DBBC
:1006A000DDDFE2E4E7E9EBEEF0F3F5F8FAFDFF65F4
:1006B00065636F6E6669675F7570646174655F72AC
:1006C00067625F6D61747269785F64656661756C9D
:1006D000740A005B435D005B445D005B535D005B3F
:1006E000575D005B525D0009025B00030100A0FA48
:1006F0000904000001030101000921110100012288
:1007000040000705810308000109040100010300FE
:100710000000092111010001223200070582032097
:100720000001090402000203000000092111010078
:10073000012222000705830320000107050303208F
:100740000001120100020000000810CB56720007E1
:1007500001020001180349007200690073002000C3
:100760005200650076002E002000370000000E03C6
:100770004B0065006500620069006F000000040323
:100780000904726762206D61747269782073657400
:10079000207370656564205B25735D3A2025750ABA
:1007A00000726762206D61747269782073657420CD
:1007B000687376205B25735D3A2025752C25752C92
:1007C00025750A00726762206D6174726978206D08
:1007D0006F6465205B25735D3A2025750A0011243E
:1007E0001FBECFEFDAE0DEBFCDBF04B603FE18C0F8
:1007F0008091F2049091F304A091F404B091F50477
:100800008730904BA740B04B59F41092F2041092ED
:10081000F3041092F4041092F504E0E0F8E3099573
:1008200012E0A0E0B1E0EAECF0E602C005900D9223
:10083000AE3CB107D9F724E0AEECB2E001C01D92A6
:10084000A23FB207E1F70E944F290C94EE2F0C94BF
:100850000000FF93EF93E091CE02F091CF0230972A
:1008600009F00995EF91FF910895FC018591803081
:1008700011F0EFDFFBCF0895FF27E0E230E247FF02
:100880000CC0419597FF09C0EDE260957095809589
:100890009095611D711D811D911D27FF02C021953D
:1008A00030E350E2AA27660F771F881F991FAA1FFF
:1008B000A41710F0A41B63955A95A9F7AA3008F065
:1008C000A95FA05DAF93F395611571058105910551
:1008D00041F7ED3211F4EF93F395F21718F43F93CB
:1008E000F395FBCF8F91B5DFFA95E1F70895E99184
:1008F000F9918591803021F0853219F0AADFF9CF86
:10090000089520E0E89455915532C1F3503311F425
:10091000689455915A3348F4505390F3220F022EA5
:10092000220F220F200D250FF4CF0EF4219589916F
:100930009991533619F3533729F1533559F1BC01C5
:1009400088279927E8945C3621F4899199916894D5
:100950005591543639F446EF7EF077FF0DC08FEF96
:100960009FEF0AC055374AE039F0583540E121F091
:10097000523642E009F00895FF93EF937DDFEF9147
:10098000FF91B7CFFF93EF93FC0181918030B9F3D2
:1009900060DFFBCFFF93EF9368DFF1CFDF93CF935F
:1009A000CDB7DEB72596A3DFCF91DF9108958F30C5
:1009B00024E29207B1F050F4873021E2920789F0E7
:1009C0008E30914271F084EB90E00895843028E2FB
:1009D000920751F0833328E2920731F08631944236
:1009E00091F788E191E008958CE791E00895FC018A
:1009F000AC014B5F5F4F8FEF91E32191822728E09D
:100A000030E087FF09C0880F892721503109C9F7D5
:100A1000E417F50791F70895880FF7CFE8EDF0E0B8
:100A200080818E7F80831092E2001092DA00109213
:100A3000E100A0EEB0E08C9181608C9380818F7793
:100A4000808319BCA7EDB0E08C918E7F8C93808160
:100A50008F7E80831092A40408952091E400309149
:100A6000E50095E6A9012091EC00822F817020FF1E
:100A700006C08091E80080FF06C080E008952091C4
:100A8000E80022FD1AC08091B104882389F08530E6
:100A900089F08091EB0085FD0FC02091E40030913A
:100AA000E50042175307F9F29150E1F684E008950A
:100AB00082E0089583E0089581E008958091B30471
:100AC00087FF13C08091E80082FF06C08091E80094
:100AD0008B778093E80004C08091B1048111F2CF3C
:100AE00008958091B1048823D9F38091E80080FFB4
:100AF000F8CF8091E8008E77ECCF982F9093E900A3
:100B0000242F762F50E0891731F07091EC0020915E
:100B1000ED005091F00021FD07C09F5F973071F705
:100B20008093E90081E008953091EB003E7F30939F
:100B3000EB003091ED003D7F3093ED003091EB0004
:100B400031603093EB007093EC002093ED005093F4
:100B5000F0002091EE0027FDE0CF80E00895B0E0A6
:100B6000A0E0E5EBF5E00C94DE2EC8EDD0E0888146
:100B70008F7E8883E7EDF0E080818160808384E070
:100B800082BF81E08093A40488818E7F888302EEF7
:100B900010E0F80110821092DA0081EEC82ED12CFC
:100BA000F601108288818F778883888180688883A6
:100BB00088818F7D888319BC1092B1041092B20491
:100BC0001092B0041092AF0490EEE92EF12CF701D0
:100BD00080818B7F808388818160888342E060E0B0
:100BE00080E00E947D05F60180818E7F8083F80180
:100BF000808181608083808188608083F70180812B
:100C00008E7F8083888180618883CDB7DEB7E8E0FE
:100C10000C94FA2EFC018091B9049091BA048617C5
:100C20009707A0F06115710529F49091E8009E776F
:100C30009093E80090E06115710551F4911108C09E
:100C40008091E80082FF34C080E00895BC01F2CFBB
:100C50008091B1048823C1F18530C1F18091E80011
:100C600083FD30C08091E80082FDEACF8091E800EA
:100C700080FFE1CF8091F3002091F200382F6115C1
:100C8000710519F02830310558F091E02830310510
:100C900009F090E02091E8002E772093E800CBCF78
:100CA00081918093F100615071092F5F3F4FE7CF31
:100CB0008091B104882341F0853041F08091E800B3
:100CC00083FFBECF81E0089582E0089583E0089518
:100CD00008958091A60408959C014FB7F8948091DF
:100CE0009D0490919E04A0919F04B091A0044FBFD9
:100CF000821B930B08952FB7F89460919D04709117
:100D00009E0480919F049091A0042FBF08952FB757
:100D1000F89480919D0490919E04A0919F04B091BD
:100D2000A0042FBF08959C01FC0132969FEF80E044
:100D30004191461751F09F3F19F4411101C0982F7E
:100D40008F5F8630A9F79F3F09F40895290F311D61
:100D500097FD3A95F90162830895A3E0B0E0E3EBD3
:100D6000F6E00C94E42E20919A0430919B0428170D
:100D70003907A1F090939B0480939A04E091980422
:100D8000F0919904309751F024E029839B838A8362
:100D90000680F781E02DCE01019609952396E2E0C9
:100DA0000C94002FA3E0B0E0E8EDF6E00C94E42E04
:100DB000209196043091970428173907A1F0909359
:100DC000970480939604E0919804F09199043097E9
:100DD00051F023E029839B838A830680F781E02DED
:100DE000CE01019609952396E2E00C94002FFA01BA
:100DF000811101C0FB01099508958093350180910F
:100E0000EA048370809334010E94A01583E08093EC
:100E10003A010895EF92FF920F939701201B310939
:100E20002F3F310519F010F02FEF30E0322F3095C1
:100E3000482F430F08F44FEF842F620F0F91FF905C
:100E4000EF900895EF92FF920F93972F093438F4A3
:100E5000B701601B71096F3F710519F010F06FEF5A
:100E600070E0485F5F4F4131510540F0A901485F94
:100E70005F4F4131510510F06FEF70E06095482FE2
:100E8000460F08F44FEF842F37FF02C02D5F3F4F0E
:100E900035952795359527956091EB04620F792F4D
:100EA0000F91FF90EF900895EF92FF920F931F9391
:100EB0000E0D1F2D111DF90137FF03C0F195E195AE
:100EC000F10924E0EE0FFF1F2A95E1F7EF3FF1054E
:100ED00019F014F0EFEFF0E09A0157FF03C03195DD
:100EE0002195310994E0220F331F9A95E1F72E17CF
:100EF0003F070CF4F901E00FF11FEF3FF10519F086
:100F000010F0EFEFF0E0E095282F3E2F230F08F4CC
:100F10002FEF822F1F910F91FF90EF900895EF9286
:100F2000FF920F93970195E0099F200D311D112429
:100F30002F3F310519F010F02FEF30E02095382FBA
:100F4000320F08F43FEF832F0F91FF90EF90089539
:100F500022E8241B08F420E0620F08954095282F12
:100F6000429F412D1124842F08950F931F9310E069
:100F7000F801EE0FFF1FEF5FFD4F9081905797FD37
:100F80009195000F111FF801EB53FE4F05AD005274
:100F9000110B2003F001219FF00D112408E310E054
:100FA000091B110997FD139540039001419F300DD6
:100FB0001124E20FF31F9F01220F331F2E0F3F1F3B
:100FC00037FF02C021583F4F220F232F221F330B20
:100FD000620F1F910F9108950F931F93522F10E0EE
:100FE000F801EE0FFF1FEB53FE4FA5ADA052BB0B58
:100FF0009D015203F001539FF00D1124000F111FAA
:10100000D801AF5FBD4F0C910057110B4003900109
:10101000419F300D11242E0F3F1F37FF02C0215C6E
:101020003F4F96E0359527959A95E1F7620F1F910E
:101030000F9108950F931F93522F10E0F801EE0FB8
:10104000FF1FEB53FE4FA5ADA052BB0B9D015203FA
:10105000F001539FF00D1124000F111FD801AF5F55
:10106000BD4F0C910057110B40039001419F300D73
:1010700011242E0F3F1F37FF02C021583F4F220F70
:10108000232F221F330B620F1F910F910895EF92B0
:101090000F93972F23E0029FB00111247595679558
:1010A0006E0D792F0F91EF900895322F50E0FA01D5
:1010B000EE0FFF1FEB53FE4F95AD905297FD9195AC
:1010C000440F551FFA01EF5FFD4F2081231B330BA7
:1010D000290F311D97FD3A95620F0895E42FF0E036
:1010E000EE0FFF1FEB53FE4F65AD621B0895E42F1B
:1010F000F0E0EE0FFF1FEF5FFD4F6081621B089570
:10110000622F0895E42FF0E0EE0FFF1FEF5FFD4F19
:10111000408134EE439F412D1124E82FF0E050E050
:10112000445E5F4FDA01A21BB1099D01B7FF03C006
:1011300031952195310993E0220F331F9A95E1F7FC
:10114000AF01421B530B9A0157FD20E0582F259FFA
:10115000212D1124822F0895E42FF0E0EE0FFF1FC0
:10116000EF5FFD4F408134EE439F412D1124E72F67
:10117000F0E050E0445E5F4FDA01A21BB1099D012F
:10118000B7FF03C031952195310993E0220F331F3A
:101190009A95E1F7AF01421B530B9A0157FD20E0EE
:1011A000279F212D1124722F08950E94D70A089598
:1011B000FF920F931F93CF93DF93182F062FF42ED8
:1011C000D0E0C0E02F2D402F612FCE010E94D50826
:1011D0002196C434D105B1F7CDB7DEB7E5E00C9464
:1011E000FD2EFC019B01009729F480E077FF2BC0C6
:1011F00080E80895AC0197FF04C044275527481B99
:10120000590BB901640F751F37FD10C0241B350B36
:10121000C901A5E0880F991FAA95E1F70E942B2F1D
:1012200080E2861BF7FF0FC081950895CB0165E032
:10123000880F991F6A95E1F7BA01621B730B0E9430
:101240002B2F80E6EECF0895EF920F93CF93DF938D
:10125000D72FC82FC9010E19BA010E94F108602FBB
:10126000681B7D2F8C2FDF91CF910F91EF90089508
:101270000F93CF93DF93D72FC82FC901BA010E94D4
:10128000F108682F600F7D2F8C2FDF91CF910F9188
:101290000895EF920F931F93CF93DF93D62FC72F0D
:1012A000182FC9010E19010FBA010E94F108081B7D
:1012B000202F219F212D1124822F6D2F7C2FDF9134
:1012C000CF911F910F91EF900895EF920F931F937D
:1012D000CF93DF93D62F172FC82FC9010E19070FF1
:1012E000BA010E94F108702F781B719F712D112493
:1012F0006D2F8C2FDF91CF911F910F91EF9008955B
:101300000F931F93CF93DF93D62FC72F182FC901A9
:10131000212F201B022FBA010E94F108982F990F4C
:10132000990F891B800F282F219F212D1124822F97
:101330006D2F7C2FDF91CF911F910F9108950F9307
:101340001F93CF93DF93D62F172FC82FC901272FB5
:10135000201B022FBA010E94F108982F990F990FB4
:10136000782F791B700F719F712D11246D2F8C2F89
:10137000DF91CF911F910F910895E82F86FDE095A1
:101380002E2F2F7086FD2F5FE695E695E695E67089
:10139000F0E0E255FE4F9181929F902D212D112476
:1013A00092959F702295207F922B2081920F87FD2E
:1013B000919580E8890F0895AC018230910508F479
:1013C00008959FEF413E8EE1580740F49A0195E061
:1013D000369527959A95E1F798E0920F61E0E62F10
:1013E000E90FFF27FF1F9F0135952795822F229F29
:1013F000F001239FF00DF00D11244E175F0738F414
:101400009FEF920F961758F78FEF860F08952F3F93
:10141000E9F361E0620FF6CF0F93CF93DF93D72FFD
:10142000C82F47FD419588E390E0841B910947FD53
:101430009395889FB001899F700D700D1124229F94
:10144000C001239F900D900D1124860F971F0E94BD
:10145000DC09982F990F890F682F600F7D2F8C2F33
:10146000DF91CF910F91089530E020E0869F212DEC
:10147000969F200D311D1124C9010895AF92BF928E
:10148000CF92DF92FF920F931F93CF93DF93362F6C
:10149000472FE82FF0E0E155FA4F71110FC0E491AA
:1014A0008E2F2E2F6E2F722FDF91CF911F910F91C4
:1014B000FF90DF90CF90BF90AF900895C72FD0E0FE
:1014C0002491F22E022F10E056E0659FC0011124F6
:1014D000EFEFF0E0BF010E94172F832F90E0880FFD
:1014E000991F35E5369FD001379FB00D11248A1B17
:1014F0009B0B982F990F980F6F01CC1ADD0AC09E95
:10150000D001C19EB00DD09EB00D11248B2F499FEC
:10151000A0011124452F55276F01C41AD50AC09E7A
:10152000A001C19E500DD09E500D11245F01A91A3B
:10153000B108AC9E6001AD9ED00CBC9ED00C1124B5
:10154000CD2CDD24EC19FD09E09FE001E19FD00DD9
:10155000F09FD00D1124ED2F62307105A1F050F4F1
:101560006115710509F49ECF6130710581F0EB2F93
:10157000852F98CF6430710569F080F06630710571
:1015800009F490CFF4CFE22F2B2F8D2F8BCFE22FAA
:10159000252F88CFEB2F822F2D2F84CF2B2F8F2D10
:1015A000E52F80CF89B185FB882780F90895FF92C8
:1015B0000F931F93CF93DF93EC01F62E042F122F7E
:1015C0000E94D20A81110FC0C232D1057CF0A297CD
:1015D000FE01EE0FFF1FEC0FFD1FEB53FC4FF182DE
:1015E0000083128303C0C232D10594F3CDB7DEB7B6
:1015F000E5E00C94FD2ECF93C82F0E94D20A8823D9
:1016000029F081E0C23228F080E003C081E0C434D8
:10161000D8F7CF910895A8E0B0E0E1E1FBE00C94A9
:10162000D42E282E7C836B83209137018EE0289F57
:10163000802D11248D83825F8983853410F034E4FA
:1016400039830E94D20A882329F08981833210F0DD
:1016500092E299830E94D20A811105C0ED81E232A3
:1016600010F4F2E2FD832091BF042A839D81892F2B
:1016700090E098878F83880F991FFC01EB53FE4FF2
:101680006F01822D90E09C012F5F3F4F3E832D83A1
:1016900089819F81981730F00E94FB0A2896E2E129
:1016A0000C94F02EEF81F885E757FD4F80819091E3
:1016B00038018923F9F03090EB044090EC048D81DF
:1016C0009E8181549B4F3C01522C10E0FA815F16A1
:1016D000D8F02091ED04129F112D1124632D742D4B
:1016E000812F0E943E0A462F282F672F8F819885D1
:1016F0000E94D5082F8138852F5F3F4F38872F8371
:1017000032E0C30ED11CC4CFF30181913F01F60139
:10171000A4ACA81ABB0885ACF3018781881A990884
:10172000AA9C9001AB9C300D300D1124889CC00107
:10173000899C900D900D1124820F931F0E94DC094B
:10174000082F6091EE0421E0620F08F46FEFF301BF
:10175000EE0FFF1FEF5BF440858996890E94340AE3
:101760007C019401A501632D742D812FEB81FC81F7
:101770000995362E472E5394182FA8CFB0E0A0E03D
:10178000E4ECFBE00C94DE2E7C01C09137018EE08E
:10179000C89FC02D11241EE01C0F153408F014E45E
:1017A0000E94D20A882319F0133208F012E20E9434
:1017B000D20A811103C0C23208F4C2E22091EE04C1
:1017C00031E0230F08F42FEF30E050E040E06FEFFE
:1017D0007FEF80E090E00E943F2F6901D0E001E0C0
:1017E0002C2FC11740F0812F0E94FB0ACDB7DEB726
:1017F000E8E00C94FA2EFE01E757FD4F80819091AE
:101800003801892309F14091BF044150042E000C96
:10181000550B47FF1BC0C6016091EE04600F08F432
:101820006FEF0E94340AAC016091EB047091EC04FC
:101830008091ED04F70109950E943E0A462F282F5A
:10184000672FCE010E94D5082196CACFFA01E15434
:10185000FB4F818982130AC0FA01EE0FFF1FE1548A
:10186000FB4F818D928D8C159D05B0F24150510931
:10187000D0CFB0E0A0E0EFE3FCE00C94DC2E6C01F4
:10188000C09137018EE0C89FC02D11241EE01C0FAF
:10189000153408F014E40E94D20A882319F0133298
:1018A00008F012E20E94D20A811103C0C23208F489
:1018B000C2E26091EE04669566958091BB049091BA
:1018C000BC040E94340AF82E80E48F0D0E94BD09EA
:1018D00090E8B92EB80E8F2D0E94BD0920E8A22EE7
:1018E000A80ED0E0C11740F0812F0E94FB0ACDB7AF
:1018F000DEB7EAE00C94F82EFE01E757FD4F808139
:10190000909138018923A1F06091EB047091EC046F
:101910008091ED04EF2C0C2F2A2D4B2DF60109950B
:101920000E943E0A462F282F672FCE010E94D5081D
:101930002196D8CFB0E0A0E0E0EAFCE00C94D82EED
:101940005C01C09137018EE0C89FC02D11241EE0BC
:101950001C0F153408F014E40E94D20A882319F0F1
:10196000133208F012E20E94D20A811103C0C2327F
:1019700008F4C2E26091EE0466958091BB049091F8
:10198000BC040E94340AF82ED0E0CE01880F991FC3
:101990009C012B533E4F6901C11740F0812F0E94DB
:1019A000FB0ACDB7DEB7EEE00C94F42EFE01E7574C
:1019B000FD4F808190913801892379F1F60184AD42
:1019C000282F2057330B490185ADE82FE052FF0B3C
:1019D0003F01889C9001899C300D300D1124EE9FB1
:1019E000C001EF9F900D900D1124820F931F0E9454
:1019F000DC09082F6091EB047091EC048091ED04F8
:101A0000EF2C9301A401F50109950E943E0A462F8F
:101A1000282F672FCE010E94D508F2E0CF0ED11CEF
:101A20002196BACFB0E0A0E0E8E1FDE00C94DD2E15
:101A30006C01C09137018EE0C89FC02D11241EE0BB
:101A40001C0F153408F014E40E94D20A882319F000
:101A5000133208F012E20E94D20A811103C0C2328E
:101A600008F4C2E26091EE0466958091BB04909107
:101A7000BC040E94340AB82ED0E0CE01880F991F12
:101A80009C012B533E4F7901C11740F0812F0E94DA
:101A9000FB0ACDB7DEB7E9E00C94F92EFE01E7575B
:101AA000FD4F8081909138018923C1F0F70125AD68
:101AB0002052330B44AD4057550B6091EB047091AD
:101AC000EC048091ED040B2DF60109950E943E0A6D
:101AD000462F282F672FCE010E94D508F2E0EF0E87
:101AE000F11C2196D1CFEF92FF920F931F93CF93CA
:101AF000DF937C01C09137018EE0C89FC02D112477
:101B00001EE01C0F153408F014E40E94D20A88234A
:101B100019F0133208F012E20E94D20A811103C0B8
:101B2000C23208F4C2E26091EE046695669521E047
:101B3000620F08F46FEF8091BB049091BC040E9487
:101B4000340A082FD0E0C11740F0812F0E94FB0A11
:101B5000CDB7DEB7E6E00C94FC2EFE01E757FD4F53
:101B6000808190913801892391F06091EB0470910C
:101B7000EC048091ED04202F4C2FF70109950E9471
:101B80003E0A462F282F672FCE010E94D5082196A6
:101B9000DACFB0E0A0E0EFECFDE00C94DC2E182FE3
:101BA00080913501811323C09091EA0493702091B4
:101BB000340130E081E09217130609F480E081706F
:101BC000809339018091EF0490913801981739F092
:101BD0008093380140E060E080E00E94D808113234
:101BE00088F4E12FF0E0E051F04D0C945E2F81E09D
:101BF000E6CF80913901882389F140E060E080E000
:101C00000E94D80880E02AC0C09137018EE0C89FAA
:101C1000C02D11240EE00C0F053408F004E40E94DE
:101C2000D20A882319F0033208F002E20E94D20A95
:101C3000811103C0C23208F4C2E26091EB047091DA
:101C4000EC048091ED040E943E0AF62EE72ED82E79
:101C5000D0E0C017D8F0802F0E94FB0A9091370186
:101C60009F5F9093370181110CC082E080933A010D
:101C700080913901811105C0111103C083E0809367
:101C80003A01CDB7DEB7EAE00C94F82EFE01E75733
:101C9000FD4F808190913801892331F02D2D4F2DFA
:101CA0006E2DCE010E94D5082196D3CFC091370169
:101CB0008EE0C89FC02D11240EE00C0F053408F0F3
:101CC00004E40E94D20A882319F0033208F002E2E9
:101CD0000E94D20A811103C0C23208F4C2E2E0902D
:101CE000EC04F090ED04D091EB046D2F7E2D8F2D40
:101CF0000E943E0AD62EC72EB82E6091EE046D0FBC
:101D00007E2D8F2D0E943E0AF62EE72EA82ED0E0C3
:101D1000C01708F0A0CFFE01E757FD4F90818091DA
:101D20003801892359F02A2D4F2D6E2D90FD03C0C7
:101D30002B2D4D2D6C2DCE010E94D5082196E8CF7C
:101D4000C09137018EE0C89FC02D11240EE00C0F0A
:101D5000053408F004E40E94D20A882319F0033203
:101D600008F002E20E94D20A811103C0C23208F4D4
:101D7000C2E2E090EC04D090ED042091EE0450E437
:101D8000F52E3F2D329F312D1124F32ED0E0C017B8
:101D900008F061CFFE01E757FD4F80819091380137
:101DA0008923B9F0FE01EE0FFF1FEB53FE4F85AD07
:101DB00082958F706091EB048F9D600D11247E2DB4
:101DC0008D2D0E943E0A462F282F672FCE010E949C
:101DD000D5082196DCCFC09137018EE0C89FC02D79
:101DE00011240EE00C0F053408F004E40E94D20A1E
:101DF000882319F0033208F002E20E94D20A81110E
:101E000003C0C23208F4C2E2E090EC04D090ED04CA
:101E10002091EE0430E4F32E3F2D329F312D11241A
:101E2000F32ED0E0C01708F016CFFE01E757FD4FA4
:101E30008081909138018923D9F0FE01EE0FFF1FB8
:101E4000EB53FE4F64ADF69EB001112495E07595FD
:101E500067959A95E1F78091EB04680F7E2D8D2DA3
:101E60000E943E0A462F282F672FCE010E94D508D8
:101E70002196D8CFC09137018EE0C89FC02D112484
:101E80000EE00C0F053408F004E40E94D20A882307
:101E900019F0033208F002E20E94D20A811103C055
:101EA000C23208F4C2E2F090EB04D091EC04E0906E
:101EB000ED046091EE046695669566958091BB048D
:101EC0009091BC040E94340A0E94BD09805887FD8D
:101ED0008195880F282F3E2D239F212D1124822F9D
:101EE0006F2D7D2F0E943E0AF62EE72ED82ED0E0D1
:101EF000C01708F0B0CEFE01E757FD4F80819091EA
:101F00003801892331F02D2D4F2D6E2DCE010E94E9
:101F1000D5082196EDCF8CEA98E00E94730D9ECEF5
:101F200082E898E0FACF8FE999E00E94120D96CEF0
:101F300080E899E0FACF85E699E00E949A0C8ECE6F
:101F400089E499E0FACF80E898E0E7CF87E798E066
:101F5000E4CF8EE698E0E1CF85E598E0DECF87E438
:101F600098E0EBCF8CE09AE0E0CF88E399E0DDCF1A
:101F700084E299E0E2CF8AE198E00E94390C6ECECB
:101F80008CEE97E0FACF85EB97E0F7CF8EEA97E0FB
:101F90000E94BE0B63CE88EA97E0FACF8091BF041F
:101FA00021E0382F321B08F430E0832F6FE877E010
:101FB0000E940B0B53CE6FE877E080E0F9CF809161
:101FC000BF0421E0382F321B08F430E0832F64E592
:101FD00077E0EECF64E577E0F0CF8091BF0421E0B9
:101FE000382F321B08F430E0832F62E277E0E0CF35
:101FF00062E277E0E2CF8091BF0421E0382F321B0C
:1020000008F430E0832F6AE077E0D2CF6AE077E02F
:10201000D4CFF894E82FE295EF70F0E031A1282FAB
:102020002F7081E090E001C0880F2A95EAF7982F81
:102030009095932391A392A1892B82A378940895DC
:1020400090917E0392FF06C0282F28712830F9F462
:10205000877F846093FF06C0282F28712831F1F410
:10206000877E846120917F0320FF06C0382F38715E
:102070003830D9F4877F816021FF06C0282F28716E
:102080002831D1F4877E816194FD877E0895282FC1
:1020900024712430F9F68B7F8860DCCF282F2471DF
:1020A000243101F78B7E8861DDCF382F31713130DB
:1020B00019F78E7F8860E0CF282F2171213121F719
:1020C0008E7E8861E1CF82389105B9F1B0F4813319
:1020D000910509F47DC048F48932910509F46DC079
:1020E0008A32910509F47BC008958533910509F47E
:1020F0005FC08933910509F10895833E9105D9F1B7
:1021000038F4803E910529F1823E910579F10895D8
:10211000863E9105D9F1873E910509F43EC0843E83
:10212000910541F520917F0321FF24C080917E031A
:1021300084FD19C087EE90E0089520917E032370FE
:1021400009F05AC020917F0323FF14C089E290E078
:10215000089520917E0320FD38C030917F0330FF29
:1021600009C024FF43C090E080E0089520917E03E1
:1021700022FDF7CF089520917E0322FD3AC03091D1
:102180007F0330FD39C024FFF5CFEDCF20917E03D2
:1021900023FFF0CF24FDE7CFCDCF20917E0323FD99
:1021A0002EC030917F0331FFEECF84EE90E0089592
:1021B00020917E0325FFDECFC9CF20917E0325FD30
:1021C00021C020917F0323FFD5CF89E390E0D2CFB8
:1021D00020917E0326FFCECF8AE290E008952091E1
:1021E0007E0326FFC7CF81E390E0089583EE90E061
:1021F000089582EE90E0089580EE90E0089586EED6
:1022000090E0089585E390E00895972F7A30B8F430
:102210006630A8F48430B0F470E026E0929F600D40
:10222000711D1124FB019CE3899FE00DF11D112418
:10223000EE0FFF1FE753FE4F85919491089580E0C4
:1022400090E0089581E0FCCF1F93CF93DF930E942D
:102250006310EC01C11580E5D807F0F5C11580E4E5
:10226000D80708F09CC0C03ED10520F5CD3CD10573
:1022700008F082C0C83AD10578F4C53AD10508F013
:1022800073C0C130D10519F1209709F1C430D105CF
:10229000F0F4D0E0C0E01BC0C33CD105D0F7C85A71
:1022A000D0E0CC0FDD1FCA58DE4F0990D881C02D79
:1022B000D4640DC0C11580E2D80708F0D1C0C115A3
:1022C00081E0D80708F05AC0C83ED10510F7CE010A
:1022D000DF91CF911F910895C03682E5D80718F598
:1022E000C03482E5D80708F06BC0C03282E5D80759
:1022F00008F05FC0C11582E5D80708F497C02C2FFD
:102300002695269580E2289F900111248C2F8370BA
:10231000C1E0D0E002C0CC0FDD1F8A95E2F7C22BEE
:10232000D32BDD68D4CFC03A82E5D80760F4C0383B
:1023300082E5D80708F459C0CF71D0E0DC2FCC2754
:10234000C46FD06AC4CFC03C82E5D80708F462C02D
:10235000C03E82E5D80708F09CCFDC2FCC27CC27E5
:10236000DF71C06FD06AB3CFC55AD0E0CD58DE4F11
:10237000C881D0E0D064ABCFD065A9CF8D2F0E94AB
:102380002010182FCE0199270E946310C12FD0E092
:10239000DC2FCC27CC27DF71C82BD92B98CFCE01CF
:1023A00099270E946310CC27DF70C82BD92BD06AE5
:1023B0008ECFCF71D0E0DC2FCC27C16FD06A87CF12
:1023C0002C2F26952695277080E2289F90011124B6
:1023D0008C2F8370C1E0D0E002C0CC0FDD1F8A9546
:1023E000E2F7C22BD32BDC6872CF2C2F26952695D3
:1023F000277080E2289F900111248C2F8370C1E008
:10240000D0E002C0CC0FDD1F8A95E2F7C22BD32BA0
:10241000DA685DCF8C2F8F710E942010C82FD0E01A
:10242000DC2FCC27CC27DF71D06251CF8C2F8F715E
:102430000E94201055E0D695C7955A95E1F7CF70C8
:10244000D0E0DC2FCC27282F30E084FF05C044E00B
:10245000220F331F4A95E1F7C22BD32BD06937CF18
:102460008D2F8F710E942010182FCE0199270E9466
:102470006310C12FD0E0DC2FCC27CC27DF71C82B15
:10248000D92BD2CF80913B03811110923B03089549
:10249000809590913A03982390933A030895209160
:1024A00030039091FF0256E0291302C080E00895A6
:1024B00030E0529FF001539FF00D1124E050FD4F8A
:1024C0007181761306C07081781303C07281741312
:1024D00004C02F5F3F4F2770E7CF81E00895452B61
:1024E00041F0682381E06F3F09F080E080958170C2
:1024F000089581E0FBCF809130039091FF02981303
:1025000001C008958F5F8770FACFB0E0A0E0EBE8DC
:10251000F2E10C94DD2E7C010091F0041091F104A5
:1025200080913C0390913D03082B192BCFE0D0E024
:10253000CC24C394D12CBC2EC6010C2E02C0880F13
:10254000991F0A94E2F780239123892B49F421975C
:1025500090F7B12C8B2DCDB7DEB7E9E00C94F92EB6
:10256000B7018C2F0E9405110E942411019779F365
:10257000F1CFCF93DF93EC010E948512BE010E9440
:1025800005110E942411DF91CF9108959A3078F5BA
:10259000863068F5E82FF0E086E0989FE00DF11DA9
:1025A00011249E2F977083E0F695E7958A95E1F7C1
:1025B000EE0FFF1FEE0FFF1FE752FD4F50E040E010
:1025C00080E0219130E0092E02C0369527950A94CB
:1025D000E2F721703327042E01C0220F0A94EAF794
:1025E000822B4F5F5F4F4430510559F7089580E0CB
:1025F00008959A3098F5863088F5E82FF0E086E067
:10260000989FE00DF11D11248E2F877041E001C0CD
:10261000440F8A95EAF783E0F695E7958A95E1F706
:10262000EE0FFF1FEE0FFF1FE752FD4F30E020E0DF
:1026300070E05191DF011197CB01022E02C09695F7
:1026400087950A94E2F781708195852784238527F1
:102650008C932F5F3F4F2430310559F708959093A5
:10266000F1048093F00408958091F0049091F104B6
:102670009C01267033272630310521F488600E94A2
:102680002F130895877FFBCF21E030E002C0220F97
:10269000331F8A95E2F7209530958091F004909150
:1026A000F104822393230E942F1308959091310304
:1026B0008095892380933103282F277091F4282F48
:1026C000082E000C330B9217130659F090917F03DC
:1026D00092FF07C08595859585950E9444131092B9
:1026E0003103089521E030E002C0220F331F8A95A4
:1026F000E2F78091F0049091F104822B932B0E94D9
:102700002F13089590933D0380933C030895FC019B
:1027100083819481892B29F08081918189238F3F46
:1027200051F480E00895843FE1F717C0883EA8F097
:10273000813FB9F712C0808191810E94B9129295B0
:102740009F70963099F358F4925F9F70923048F7DB
:10275000803F19F040F7883E20F781E008959A5FA6
:10276000F4CF829590E09C01220F331F220F331F7C
:102770002C7C95958795959587958373282B30E0CC
:10278000C901880F991F8A7A359527952575822B5F
:102790000895A5E0B0E0EFECF3E10C94E32E25E022
:1027A000FC01DE01119601900D922A95E1F7FC01E2
:1027B000228189819A81222399F0662389F00E94DF
:1027C0008512182F682F89819A810E94F9126981D8
:1027D0007A81812F0E9405112596E3E00C94FF2E4B
:1027E0000E94C612182FF3CF9091EA04937031F132
:1027F000811125C094609093EA0410923A0180916F
:10280000E80481608093E8048091E90480FF16C0A9
:102810008091EA04869586951F928F9389E491E0D2
:102820009F938F9384EC97E09F938F930E94CE04A5
:102830000F900F900F900F900F900F90089581328E
:1028400010F09068D8CF880F880F982BD4CF809144
:10285000EA0486958695815009F480E20E94F4137B
:1028600008958091EA04869586958F5F813208F0FD
:1028700081E00E94F41308952091EA04237059F135
:102880008093EB046093EC04493708F048E74093E9
:10289000ED042091E80421602093E8042091E904EC
:1028A00020FF19C01F924F931F926F9399279F93F8
:1028B0008F9389E491E09F938F9381EA97E09F93B0
:1028C0008F930E94CE048DB79EB70A960FB6F894E8
:1028D0009EBF0FBE8DBF0895EAEEF4E0438120E174
:1028E000421B08F440E08181628190E00E943C1428
:1028F0000895EAEEF4E0438120E1420F08F44FEF3F
:102900008181628190E00E943C140895EAEEF4E037
:10291000628120E1621B08F460E08181438190E0E4
:102920000E943C140895EAEEF4E0628120E1620F17
:1029300008F46FEF8181438190E00E943C14089578
:10294000EAEEF4E08181438162818850990B0E9414
:102950003C140895EAEEF4E0818190E043816281C5
:1029600008960E943C1408958093EE049091E80428
:1029700091609093E8049091E90490FF12C01F9237
:102980008F9389E491E09F938F9382E897E09F93E0
:102990008F930E94CE040F900F900F900F900F9086
:1029A0000F9008958091EE0420E1382F321B08F437
:1029B00030E0832F0E94B41408958091EE0420E14A
:1029C000382F320F08F43FEF832F0E94B41408957C
:1029D0009FB7F8941092A2049FBF9091B1049430D5
:1029E00009F048C02091E9002F703091EC00932F3E
:1029F000917030FD90E8922B23E02093E900209124
:102A0000EB0020FF34C02091EE0027FF30C0209162
:102A1000A104222321F02091E80025FF28C0109274
:102A2000A10426E03091E80035FF14C08093F10046
:102A30008091E80085FD27C08091E80080FFFCCFF1
:102A40008091E8008E778093E8009F709093E90072
:102A500080E008953091B104343049F43091EB00B6
:102A600035FD05C0215041F481E08093A1049F70A1
:102A70009093E9008FEF0895EFE9FFE03197F1F7C8
:102A800000C00000CFCF8FB7F89421E02093A204BC
:102A90008FBFDBCF0F931F93CF93DF938B01EA019F
:102AA0009091B104943061F58093E9008FEF90919B
:102AB000E800815095FD06C095ED9A95F1F700006C
:102AC0008111F5CF8091E80085FF1AC00E942D0585
:102AD000811111C08091E80085FD06C08091E80059
:102AE0008E778093E800F2CFF80181918F01809377
:102AF000F100219779F78091E8008E778093E800C4
:102B0000DF91CF911F910F91089543E050E0BC01F8
:102B100082E00E944A150895CF93DF93EC0148E0CC
:102B200050E0BC0181E00E944A1588E0FE01A7EA5E
:102B3000B4E001900D928A95E1F7DF91CF9108956D
:102B40006E9A3EB13F7B2EB120644FB7F89485EC6E
:102B500093E0FC015191CF0168E02EB9000000C064
:102B600057FF3EB9550F000000C000C000C03EB97D
:102B700000C06A9591F7F4E081399F0751F74FBF84
:102B80008FE594E00197F1F700C000000895B0E0F0
:102B9000A0E0EDECF5E10C94D92E7C015B01842ED4
:102BA000752E690180914B0301E010E08A3010F42A
:102BB0000AE010E0C1E0D0E0B501C701F6010995D7
:102BC000982E811114C021960C171D07B4F4809122
:102BD000E90480FF0CC07F928F9282EF93E09F9375
:102BE0008F930E94CE040F900F900F900F90892D1D
:102BF000CDB7DEB7EDE00C94F52ECC9F9001CD9FC4
:102C0000300D300D112490E080E045E34A95F1F756
:102C10000000019628173907C1F7CECF80914A03EB
:102C2000811110C08091D80080618093D8008AE122
:102C30008A95F1F700C08091D90080FF0AC081E039
:102C400080934A0381E090914A03913009F080E03B
:102C5000089582E080934A030E940E051092B10409
:102C6000F1CF0E940E16882359F0E0919804F0915C
:102C70009904309729F00190F081E02D099508958D
:102C800080E008950F931F930E940E16882329F069
:102C90000E947B061F910F9108950E947B06009170
:102CA0006E0310916F032091700330917103600FD8
:102CB000711F821F931FEECFCF92DF92EF92FF9290
:102CC0006B017C010E940E168823A1F02FB7F894A7
:102CD00060919D0470919E0480919F049091A00446
:102CE0002FBF6C197D098E099F09FF90EF90DF902F
:102CF000CF9008950E944216F4CF4F925F926F9248
:102D00007F928F929F92AF92BF92CF92DF92EF927B
:102D1000FF926091C0037091C1038091C2039091B2
:102D2000C3030E945C166B017C010E9442164B019A
:102D30005C018092C0039092C103A092C203B09242
:102D4000C303A0919703E7E9F3E08A2F90E04FEFE8
:102D50005FEF60E070E04C195D096E097F09A9130F
:102D600028C0809397038091C403811135C090914E
:102D7000EA04892F837019F0892F869586959091A2
:102D80003A01913009F441C0992341F1923009F49C
:102D90003FC0933009F43FC0FF90EF90DF90CF9099
:102DA000BF90AF909F908F907F906F905F904F906B
:102DB0000895218D328D2901712C612C4415550502
:102DC0006605770520F481509F5F3296C8CF2C0DA1
:102DD0003D1D328F218FF8CF80E0D1CF1092370187
:102DE0008092BB049092BC04A092BD04B092BE0439
:102DF00089E2E7E9F3E0AFEBB4E001900D928A9548
:102E0000E1F781E080933A01C7CF0E94C90DC4CF9A
:102E10000E94FD06C1CF8091E804882351F046E06E
:102E200050E06CE170E08AEE94E00E94A42F1092D2
:102E3000E8046091BB047091BC048091BD04909142
:102E4000BE040E945C16603171058105910508F48D
:102E5000A3CF10923A01A0CF8091E90480FF08C06F
:102E60008FEA96E09F938F930E94CE040F900F906D
:102E700085E38093EA0480913B0190913C01A0910D
:102E80003D018093EB049093EC04A093ED048FE755
:102E90008093EE048FEF8093EF0446E050E06CE106
:102EA00070E08AEE94E00E94A42F1092E804089546
:102EB000AFE0B0E0EEE5F7E10C94D92E8E010F5FA4
:102EC0001F4F8AE0D8011D928A95E9F786E2C82E45
:102ED00081E0D82EF12CE12CAA24A394B12C26E277
:102EE000822E21E0922EF60181916F018F3F09F42D
:102EF00042C0F894E82FE295EF70F0E021A18F70C6
:102F0000A50102C0440F551F8A95E2F7CA01922F0E
:102F1000982B91A392A18095892382A3789400C0D5
:102F2000E0E2F1E0712C31E021912F3F09F46BC018
:102F3000A22FA295AF70B0E090968C9190E02F7088
:102F400002C0959587952A95E2F780FD5CC0832F96
:102F5000782A330F8E169F0639F7F6013197808154
:102F60008F3F11F00E94091050EA5A95F1F7F801CD
:102F7000EE0DFF1D70828FEFE81AF80AA5E0EA1641
:102F8000F10409F0B0CF4AE050E0B80182E793E0E5
:102F90000E94D82F009741F02AE0F801A2E7B3E0A1
:102FA00001900D922A95E1F700917D03892B69F13B
:102FB00081E0809342030E948706909341038093AF
:102FC000400380914003909141030E946C06059755
:102FD00000F110E000581C4F45E050E062E773E05C
:102FE000C8010E94D82FC12C892B51F085E0E2E75F
:102FF000F3E0D80101900D928A95E1F7CC24C394B7
:103000001092420307C080E0A3CF80914203811158
:10301000D8CFC12C0E940E16D82EE0917D038823B4
:1030200009F492C07E01BBE0EB0EF11C85E0D701F4
:103030001D928A95E9F70E2F10E000581C4FB090B2
:103040004B03B9E0BB15E0F127E13EE140E551E07B
:10305000B701C8010E94C715882309F453C02FE5A2
:103060003DE14DE551E0B701C8010E94C715882335
:1030700009F448C025EB3DE148E651E0B701C8013D
:103080000E94C7158823F1F1F9E0FB1508F453C03D
:1030900010924B0380917C0390E045E050E0B70133
:1030A00080589C4F0E94D82F21E020934903892B00
:1030B000E1F4D12C8D2D8C292F96EDE00C94F52E7A
:1030C00080914303909144030E946C06843F914099
:1030D00008F0BACF80914903882359F385E0D701DE
:1030E0001D928A95E9F710924903A0917C03B0E004
:1030F000A058BC4F85E0FE013B9601900D928A9549
:10310000E1F7D8CF80914B038F3F31F08F5F8093F1
:103110004B038A3008F4BECF0E9487069093440385
:10312000809343038091E90480FFD4CF8CEB93E03C
:103130000E943504CFCF8091E90480FFA9CF89EAAE
:1031400093E00E943504A4CFF0E0E058FC4F85E006
:10315000AAE5B3E001900D928A95E1F78AE593E044
:103160000E94F7048093590380905F03909060035E
:10317000A0906103B0906203809145039091460353
:10318000A0914703B091480388169906AA06BB068A
:10319000D1F08092450390924603A0924703B092EB
:1031A00048030E940E1681110EC00E947B06861AEB
:1031B000970AA80AB90A80926E0390926F03A092B0
:1031C0007003B092710386E0E3E6F3E0AAEEB4E0A8
:1031D00001900D928A95E1F710916903112349F04E
:1031E0008091C403811105C00E94C90D80E00E9436
:1031F000FD061093C4035ECF0F931F93CF93DF930D
:1032000080913A0390919104892B8093D002909100
:103210003B03992391F0892B8093D00220E082ED2B
:1032200092E0FC013191CF0131112F5FF2E0883D36
:103230009F07B9F721110E94421248E050E062E373
:1032400073E080ED92E00E94D82F892B09F441C0F1
:1032500088E0E0EDF2E0A2E3B3E001900D928A9500
:10326000E1F7E0919804F0919904309791F1028090
:10327000F381E02D80ED92E009958091E90482FFD1
:1032800028C080FF04C087EB91E00E943504D0E0A5
:10329000C0E001EB11E08091E90480FF0EC0FE0167
:1032A000E053FD4F80811F928F931F930F930E94D5
:1032B000CE040F900F900F900F902196C830D1053B
:1032C00051F78091E90480FF04C08FEA91E00E94E9
:1032D0003504DF91CF911F910F9108958091920451
:1032E000882349F0809191048D7D809391040E9400
:1032F000FC1810929204089510923A03E2EDF2E065
:1033000086E0DF011D928A95E9F790E080E00E9457
:10331000D20690E080E00E94AD06109291040E94D7
:10332000FC180895AAE2B0E0E8E9F9E10C94E32E74
:1033300083EB94E02091F100DC012D93CD01B4E00A
:103340008B3B9B07B9F78091B404833009F470C0BC
:10335000B8F4813009F447C0823009F4B1C08091DB
:10336000E80083FF84C28091B3049091B4049A3042
:1033700008F07DC2E92FF0E0EF5EFF4C0C945E2F69
:103380008A3009F48CC08B3009F46FC0893039F76A
:103390008091B304813219F78091B7049091B804F9
:1033A0000297E8F68091E800877F8093E80080919B
:1033B000E80082FF38C09091F3008091F2000297FC
:1033C00031F48091F100813011F0863021F4809148
:1033D000F1008093A6048091E8008B778093E80049
:1033E0000E945E05BCCF8091B304813A09F0B7CF4B
:1033F0008091E800877F8093E8008091B7049091E6
:10340000B804892B61F468E087EA94E070E00E94D8
:103410000A068091E8008B778093E800A0CF60E0F7
:1034200090E080E0F3CF8091B1048111C0CF97CFBD
:103430008091B304813A09F092CF8091B7049091C2
:10344000B804892B09F08BCF8091E800877F8093A7
:10345000E8008091E80080FFFCCF809136018093E6
:10346000F1008091E8008E77B9CF8091B30481326A
:1034700009F075CF8091B7049091B804892B09F0B9
:103480006ECF8091E800877F8093E8000E945E0500
:103490008091B504809336010E947C1960CF8091A1
:1034A000B304813209F05BCF8091E800877F80937D
:1034B000E8000E945E058091B6048093A5044FCF7A
:1034C0008091B304813A09F04ACF8091E800877F68
:1034D0008093E8008091E80080FFFCCF8091A504F4
:1034E000BECF803899F0823809F0C1C18091B7040D
:1034F0008F70873008F0BBC18093E9008091EB00AA
:1035000085FB882780F91092E90006C08091AF04FE
:103510009091B004911182609091E800977F909310
:10352000E8008093F1001092F1008091E8008E771E
:103530009AC1882309F488C1823009F098C180912A
:10354000B50481118BC18091B7048F702FEF280FC4
:10355000263008F08CC18093E9002091EB0020FF19
:103560007DC1933031F48091EB0080628093EB0059
:1035700075C19091EB0090619093EB0021E030E0F9
:1035800001C0220F8A95EAF72093EA001092EA0020
:103590008091EB008860EACF811169C11091B50478
:1035A0001F778091E3008078812B8093E3008091E6
:1035B000E800877F8093E8000E945E058091E80024
:1035C00080FFFCCF8091E30080688093E30082E07D
:1035D000111183E08093B1044AC18058823008F011
:1035E00046C12091B5043091B6042C3DE3E03E077E
:1035F000A1F583E08A838AE289834FB7F894DE01DC
:10360000139620E03EE051E2E32FF0E050935700A4
:10361000E49120FF03C0E295EF703F5FEF708E2FC3
:1036200090E0EA30C0F0C7968D939D932F5F2431D0
:1036300059F74FBF8091E800877F8093E8006AE2E6
:1036400070E0CE0101960E940A068091E8008B7717
:103650008093E8000CC1C096E7CF8091B7049091A9
:10366000B804432F55274330510509F44AC078F573
:103670004130510509F47AC08BE590E0E7EEF6E0C1
:103680004230510509F0F3C02091E800277F2093D4
:10369000E8002091B9043091BA048217930708F426
:1036A0009C0140E02115310509F065C0411163C05E
:1036B0008091E80082FDC9CF8091B104882329F26E
:1036C000853019F28091E80083FFF2CFBECF4132FE
:1036D000510509F43CC04232510509F0C8C083309D
:1036E000910508F0C4C0FC01EE0FFF1FE754FE4F28
:1036F0000190F081E02D8A549E4FDC018C9190E086
:103700001AC0332721303105D1F02115310561F080
:103710002230310509F0ABC0E4E5F7E0E4918E2FEB
:1037200090E0E4E5F7E007C0EEE7F7E0E4918E2FE4
:1037300090E0EEE7F7E0009709F499C0A5CFEEE638
:10374000F7E0E4918E2F90E0EEE6F7E0F4CF8330DF
:10375000910508F08CC0880F991FFC01E154FE4FC1
:103760000190F081E02D89E090E08ECF82E190E041
:10377000E2E4F7E089CF8091B104882309F465CFB2
:10378000853009F462CF8091E80083FD5ECF80919F
:10379000E80082FD8DCF8091E80080FF83CF90917B
:1037A000F3008091F2002115310519F08830910560
:1037B00050F041E0089709F040E08091E8008E77F2
:1037C0008093E8006FCF44914093F10031962150EF
:1037D00031090196E8CF803809F049C08091E800AE
:1037E000877F8093E8008091B2048093F1009DCEA2
:1037F00081113DC01091B5041230C8F58091E800E8
:10380000877F8093E8001093B2040E945E05112325
:1038100011F084E005C08091E30087FDFACF81E0DC
:103820008093B10442E061EC81E00E947D0542E2B8
:1038300061EC82E00E947D0542E261EC83E00E943F
:103840007D058091B10413C08091B504813079F475
:1038500081E0933009F080E08093B0041092E90099
:103860008091E800877F8093E8000E945E05809148
:10387000E80083FF0AC08091E800877F8093E8001A
:103880008091EB0080628093EB00AA96E3E00C94B9
:10389000FF2E0E947C192FEF84E39CE02150804092
:1038A0009040E1F700C0000088E19CE00FB6F8947A
:1038B000A895809360000FBE90936000FFCF88238F
:1038C00021F00E9448120E94FC180895882339F0C4
:1038D00090913A03982B90933A030E94FC18089514
:1038E000882391F19CEF980F913A80F4E2EDF2E099
:1038F00028ED32E09191891303C0DF0111971C92EA
:103900002E173F07B9F70E94FC18089590E2980F10
:10391000983050F4877091E001C0990F8A95EAF7CA
:10392000892F0E944812EFCF9BE5980F933028F41F
:1039300090E080E00E94D2060895885A8B3120F4EE
:1039400090E080E00E94AD060895CF93C82F8823B1
:10395000B1F08CEF8C0F813A00F5E2EDF2E088EDEA
:1039600092E0DF012D91C21761F08A179B07D1F712
:103970006C2F80ED92E00E9493060E94FC18CF917C
:1039800008952191C21303C0DF0111971C928E1775
:103990009F07B9F70E94FC18EBCF80E28C0F8830AC
:1039A00068F4C77021E030E001C0220FCA95EAF741
:1039B00080913A03822B80933A03DFCFEBE5EC0F43
:1039C000E33040F4F0E0ED58FE4F808190E00E943B
:1039D000D206D5CFC85ACB3190F6EC2FF0E0EE0FDF
:1039E000FF1FEA58FE4F808191810E94AD06C7CF2C
:1039F000B0E0A0E0EEEFFCE10C94DE2E6B01C42FF2
:103A0000D22FFC0182818823A9F0409395040E9463
:103A100087069093940480939304C77081E001C05B
:103A2000880FCA95EAF70E94661CCDB7DEB7E8E0BA
:103A30000C94FA2E1091950414133AC080919304BB
:103A4000909194040E946C067C01C6010E94D704E8
:103A5000E816F90668F5C0E2CD0F1D17C1F080E247
:103A6000810F883048F4177081E0012E01C0880F63
:103A70000A94EAF70E945F1CC83048F481E09D2F49
:103A8000977001C0880F9A95EAF70E94661C802FF4
:103A90000E94A51C802F0E94701CC83030F6D77081
:103AA00081E001C0880FDA95EAF70E945F1CBDCF64
:103AB000C77081E001C0880FCA95EAF7F6CFA4E08D
:103AC000B0E0E5E6FDE10C94E32E40915503509102
:103AD000560360915703709158032FB7F894809163
:103AE0009D0490919E04A0919F04B091A0042FBFCB
:103AF000841B950BA60BB70B11E084369105A1052D
:103B0000B10570F10E9442166E5F7F4F8F4F9F4F3D
:103B100069837A838B839C83809111019091120138
:103B2000875A9C4F4091100150E04530510510F0EC
:103B300044E050E0BE016F5F7F4F0E94E52F82E0BE
:103B400090E00E945E2E182F882351F00E947B0681
:103B500060935503709356038093570390935803D3
:103B6000812F2496E3E00C94FF2EA7E0B0E0EBEB6E
:103B7000FDE10C94E22E86E0EAEEF4E0DE0111961F
:103B800001900D928A95E1F78091C4038F8347E0FD
:103B900050E063E673E0CE0101960E94D82F0091B9
:103BA0006A0310916B0320916C0330916D03EFB7A2
:103BB000F89440919D0450919E0460919F047091EF
:103BC000A004EFBF401B510B620B730B4436510531
:103BD0006105710518F411E0892B21F1809119011B
:103BE00090911A01875A9C4F4091180150E048303B
:103BF000510510F047E050E0BE016F5F7F4F0E941B
:103C0000E52F83E090E00E945E2E182F882351F06C
:103C10000E947B0660936A0370936B0380936C032E
:103C200090936D03812F2796E4E00C94FE2EEF9283
:103C3000FF921F93CF93DF9300D000D000D0CDB779
:103C4000DEB77B0190E080E00E945E2E182F882373
:103C500009F480C04091030150E04115510511F075
:103C600041E050E06091040170910501675A7C4F7A
:103C7000CE0106960E94E52F4091510350915203C8
:103C800060915303709154032FB7F89480919D0471
:103C900090919E04A0919F04B091A0042FBF841B1B
:103CA000950BA60BB70B84369105A105B10540F421
:103CB0008AE593E00E94F7049E81891709F44AC0BF
:103CC00081E090E00E945E2E811116C010E085E038
:103CD000ECE4F3E0D70101900D928A95E1F7812F92
:103CE00026960FB6F894DEBF0FBECDBFDF91CF9101
:103CF0001F91FF90EF90089540910B0150E04630E6
:103D0000510510F045E050E060910C0170910D01FB
:103D1000675A7C4FCE0101960E94E52F8AE593E019
:103D20000E94F7049E818913D1CF0E947B06609385
:103D3000510370935203809353039093540385E08F
:103D4000FE013196ACE4B3E001900D928A95E1F763
:103D500011E0BDCF85E0EAE5F3E0DE0111960190C8
:103D60000D928A95E1F71111EACFB1CFCF93C82F09
:103D700080917F0382FB992790F99C17F9F0C0FB93
:103D800082F980937F0360917E0370917F0384E0CA
:103D900090E00E94D22F82E00E9456138091E904A5
:103DA00080FF0CC01F92CF938AE991E09F938F937D
:103DB0000E94CE040F900F900F900F90CF91089516
:103DC00067EE7EEF90E080E00E94D22F60E082E01C
:103DD00090E00E94B42F60E083E090E00E94B42F56
:103DE00010923D0310923C0360E074E184E090E0A7
:103DF0000E94D22F60E086E090E00E94B42F6FEF27
:103E000087E090E00E94B42F40E050E0BA0188E0E3
:103E100090E00E94C62F60E08DE090E00E94B42FF9
:103E200040E050E0BA0188E190E00E94C62F60E0D7
:103E300087E190E00E94B42F40E050E0BA018CE1AD
:103E400090E00E94C62F70E060E080E290E00E9467
:103E5000D22F40E050E0BA0188E190E00E94C62FE6
:103E600040E050E0BA018FE090E00E94C62F40E0B1
:103E700050E0BA0183E190E00E94C62F0895B0E0BF
:103E8000A0E0E5E4FFE10C94DC2E7C01FC018381E1
:103E90009481892B31F08081918189238F3F09F0B2
:103EA000B1C4CDB7DEB7EAE00C94F82EF7018281F9
:103EB000882349F061E083E090E00E94B42F81E024
:103EC00090E00E94821380913103877051F3F701D3
:103ED0008281882331F380917F0382FFE2CF82E0E9
:103EE0000E945613DECFF7018281882331F081E0F2
:103EF0000E9472130E943413E6CF81E00E944413A3
:103F0000F9CFF7018281882311F082E0F1CF82E0BE
:103F1000F5CF83E00E944413D6CF10923A030E945B
:103F200042120E948706805C904E90939503809386
:103F3000940381E080939204C6CF809192048823F9
:103F400009F451C000913A0310913B030E94870687
:103F5000805C904E9093950380939403F701828147
:103F6000882309F440C0102B1D7909F057C0C034D4
:103F7000F2E5DF0750F5C11522E5D207A0F5C1151E
:103F800030E4D30748F4C11580E2D807E0F5C63E17
:103F9000D10549F1CE010AC0C11590E5D907D0F786
:103FA000F7018581807FF9F0CE0199271092910465
:103FB00088329105E8F58E31910508F03FC00497ED
:103FC00068F182E08093910439C0C43BE2E5DE07EA
:103FD00051F0CE01C53BF2E5DF0780F480569245F3
:103FE00080349105B8F6FE01E851FC47E730F10551
:103FF00008F05BC0E55EFF4C0C945E2F805C924540
:10400000809740F6F0CFF7018581807F69F68D2F8C
:104010008F71823151F028F4823039F00E946E198C
:10402000E2CF843101F38631C9F710929104F6CFC3
:104030008D32910531F228F48A9781F70E94FC189D
:10404000D2CF8C349105D1F38D329240B9F3E6CFC3
:1040500006E221EE41EE6AE17CE7C7010E94F81C0E
:1040600032CF07E225EE45EE6BE17CE7F6CF06E2C4
:1040700021EE40EE68E17CE7F0CF07E225EE44EE6A
:1040800069E17CE7EACF06E221EE42EE6CE17CE7F3
:10409000E4CF07E225EE46EE6DE17CE7DECF08E2F5
:1040A00021E045EE6EE17CE7D8CFF70182818823DD
:1040B00009F4F1C310929504CE019057839708F04C
:1040C000D4C384E090E00E949E2F90937F0380935E
:1040D0007E03FE01E150F047E232F10520F4EE5D8F
:1040E000FF4C0C945E2F80917E03816080937E0351
:1040F00095C080917F03886080937F038FC08091FB
:104100007E038260F3CF80917E038460EFCF809145
:104110007E038860EBCF80917F038160EDCF80913B
:104120007F038260E9CF80917E038061DFCF809141
:104130007E038062DBCF80917E038064D7CF0E94B4
:104140007C1980917E038068D1CF80917E038C6042
:10415000CDCF80917F038360CFCF80917E038E7F10
:10416000C5CF80917F03877FC7CF80917E038D7FEE
:10417000BDCF80917E038B7FB9CF80917E03877FF7
:10418000B5CF80917F038E7FB7CF80917F038D7FE6
:10419000B3CF80917E038F7EA9CF80917E038F7DE8
:1041A000A5CF80917E038F7BA1CF0E947C19809147
:1041B0007E038F779BCF80917E03837F97CF809103
:1041C0007F038C7F99CF80917E0382FB992790F9A2
:1041D00021E0922790FB82F990FB83F987CF8091B1
:1041E0007F03982F909591708E7F892B90FB81F99A
:1041F00083CF90917E03892F8F7B96FF806476CF4B
:104200000E947C1990917E03892F97FB87F9805833
:104210006DCF61E08EE090E00E94B42F60917E034C
:1042200070917F0384E090E00E94D22F0E947C195D
:104230004ACE60E0EFCF90917E03892F8F7E94FF6E
:10424000806154CF90917E03892F8E7F90FF816093
:104250004DCF90917F03892F877F93FF88604CCF4C
:1042600085E323C38091EA04982F937021E092277D
:104270008C7F892B8093EA0410923A018091E804A4
:1042800081608093E8048091E90480FF1CCE1F9236
:104290009F9389E491E09F938F9380E491E09F93B3
:1042A0008F930E94CE040F900F900F900F900F905D
:1042B0000F9009CE47E254E161E374E10E94F706F2
:1042C00002CE41E354E167E274E1F8CF40EA54E101
:1042D0006AEA74E1F3CF4AEA54E160EA74E1EECFAE
:1042E00046E854E163E974E1E9CF43E954E166E863
:1042F00074E1E4CF4CE654E169E774E1DFCF49E7CC
:1043000054E16CE674E1DACF42ED54E16DED74E115
:10431000D5CF4DED54E162ED74E1D0CF81E00E9444
:10432000F413D1CD85E0FBCF8DE0F9CF82E1F7CF5B
:104330009091E904892F8E7F90FF81608093E9043A
:1043400080FF05C089E891E00E943504BCCD87E775
:1043500091E0FACF6FEF7FEF90E080E00E94D22FE4
:104360000E94491C80917F0382FB882780F991E09D
:1043700089270E94B61EF7018281C081D1818823DE
:1043800009F44AC0CE010E948512182F682FCE0171
:104390000E94F912BE01812F0E9405110E94241172
:1043A000D82FC92FA82EF7011281D580D2949FE073
:1043B000D922809131038770F1F0C12E1123E1F0F1
:1043C0008C2F807F803451F080E28D0F883098F000
:1043D000D11004C08C2F807E803269F080917F03E1
:1043E00082FF09C082E00E945613809131038770DA
:1043F000CC24C3948111C12CBC2EB2948FE0B8227E
:10440000FBE0FB1508F469C0EB2DF0E0EC5BFF4C22
:104410000C945E2F80E0ADCFCE010E94C612182F03
:10442000B9CF0C2F0F70C07F11F00295007F1123C0
:10443000B9F0002369F080E28D0F883010F0A110F0
:1044400009C080913A03082B00933A030E94FC189C
:104450008D2F41C080919104082B00939104F6CFD9
:104460008D2F0E94701C0023C1F1D05ED83010F057
:10447000A11004C0802F0E94481206C000958091B0
:1044800091040823009391040E94FC1826C00C2F6D
:104490000F70C07FC03211F00295007FAA2059F042
:1044A00021E0A21609F469C0112309F473C0DD20CC
:1044B00009F469C0CDCF20917F0322FD37C01123BD
:1044C00079F1002339F080913A03082B00933A03E5
:1044D0000E94FC1880E00E94A51CEB2DE850FF0B09
:1044E000349710F40E943116CC20A9F0809131034A
:1044F00080FD11C0F70112828595859585950E94F2
:104500007213C7010E943F1F8091310385958595E5
:1045100085950E94441360E0C7010E94C913C1CC75
:1045200080E00E94701C0023C1F2A4CF112399F0F7
:1045300090913B03802F892BD11003C00E94661CF1
:10454000CCCF31E0D312FACF22FFC7CF891729F29F
:1045500080933B03C2CFD11006C00E944212802F2D
:104560000E945F1CBACF81E0D81609F4B6CF802F25
:104570000E945F1C0E944212B0CF112331F095E0DF
:104580009D1508F4AACF802FD9CFE4E0ED1508F4EB
:10459000A4CFE5CFDD2019F3F9E3AF122CC12FEF43
:1045A00037EE83E0215030408040E1F700C000004A
:1045B00022C18C2F86958695837069F0813009F031
:1045C0008CCF8D2F9C2F9370111102C080E090E052
:1045D0000E94AD0682CF8D2F9C2F9370111102C0C7
:1045E00080E090E00E94D20678CF8C2F837009F093
:1045F0003FC0111172CF4D2F429546954770440F21
:10460000440F2D2F2F7030E0042E02C0220F331FD5
:104610000A94E2F790E080E0D4FF09C08FE090E0D8
:1046200002C0880F991F4A95E2F780959095C6952C
:10463000C695C370C23099F078F440913C03509114
:104640003D03C13039F0822B932B842395230E94A4
:10465000821343CF242B352B822B932BF8CF822B25
:10466000932B20913C0330913D0382279327EFCF7A
:104670008695112311F08C2F8170882309F42DCF9A
:104680004D2F429546954770440F440F2D2F2F70A4
:1046900030E0042E02C0220F331F0A94E2F790E0AC
:1046A00080E0D4FF09C08FE090E002C0880F991F1E
:1046B0004A95E2F780959095C695C695C370C2302D
:1046C00099F078F44091F0045091F104C13039F040
:1046D000822B932B842395230E942F13FECE242B11
:1046E000352B822B932BF8CF822B932B2091F00428
:1046F0003091F10482279327EFCFCF70112329F057
:104700008C2F0E9472138D2F19CF8D2F0E945F1C4A
:104710008C2F0E944413E1CE8D2F92EFA91699F1B0
:104720009A1570F0E0EFAE16D1F0F1EFAF1691F000
:10473000112309F45BC0D1108BCE8C2F8F7127C051
:1047400023EFA21639F134EFA312F2CF80917F0349
:1047500082FD2EC08C2F8F711123D9F218C0112326
:1047600069F084E08D1508F4B8CECF7181E090E057
:1047700002C0880F991FCA95E2F7B8CF95E09D1542
:1047800008F4ABCEF2CF8C2F8F711111C2CF0E94E3
:104790007213A3CE90E080E0112309F49DCFCF7176
:1047A00081E090E002C0880F991FCA95E2F794CF8C
:1047B000112389F0CF718C2F0E94721380917F0397
:1047C00082FF07C0E8E0CE9FC00111248360809380
:1047D00031038C2FDCCF81E00E945613F1E0FD15F0
:1047E00008F07BCE82E00E94561377CEDD2039F0B0
:1047F000893309F4D4CE8D2F0E94701C6ECE8C2F7D
:104800008F7187CF61E0C7010E94C913EC01813429
:10481000FEE79F0709F467CBB0F480349E4709F4A4
:1048200045CBC337FCE7DF0709F087CBF70182816F
:10483000882309F448CB80919204882309F46DCB36
:104840000E946E1940CBC2348EE7D80709F459CBC9
:10485000C3349EE7D90729F7F7018281882309F439
:1048600058CB83E00E9472132ECBC631ECE7DE07F3
:1048700051F580913A038A7A91E009F490E090939F
:10488000D80269E2811165E380ED92E00E9493060F
:104890000E94FC1818CBC631FCE7DF0709F064C0A2
:1048A0008091D8028111DCCC89E2E2EDF2E028EDC2
:1048B00032E09191891303C0DF0111971C922E17EA
:1048C0003F07B9F7E5CFC3302CE7D20709F442CD53
:1048D00008F03AC0C1308CE7D80709F441CD08F0A0
:1048E00027CDC115DC4709F046CD0E947C19FFEFAA
:1048F00024E33CE0F15020403040E1F700C00000EC
:1049000081E08093E00080E28093D8001092C9009B
:104910008FE19EE40197F1F700C0000087E090EB83
:10492000DC018093F2049093F304A093F404B09319
:10493000F50488E19CE00FB6F894A8958093600098
:104940000FBE90936000FFCFCB35FCE7DF0709F483
:1049500061CDCC352CE7D20709F404CDCA35DC474C
:1049600009F009CD81E005CD80913A038272FE0104
:10497000E052F847E531F10508F0FDCCE05BFF4C73
:104980000C945E2FB0E0A0E0E8ECF4E20C94DF2E93
:104990008091FE02807F09F050C08091FB02882345
:1049A00009F44BC0C091300386E0D82E8091FF02FD
:1049B0008C1709F442C08091FC029091FD02D0E076
:1049C000009709F43FC02091F9023091FA02422F7A
:1049D00043234F3FB9F1DC9E8001DD9E100D112471
:1049E000F801E050FD4F418143132CC03081321358
:1049F00029C02281211126C0E380F480E81AF90A37
:104A000060E089EF92E00E94C9130E94D704E81683
:104A1000F906C0F48091FE028F7080618093FE02DF
:104A2000F801EB5FFC4F80818F708061808389EF9C
:104A300092E00E943F1F0E947B12CDB7DEB7E7E0F5
:104A40000C94FB2E2196C770B1CFA1E1B0E0EBE250
:104A5000F5E20C94D62E8C0185E0F801DE011D965E
:104A600001900D928A95E1F7F801E28089EFA82E76
:104A700082E0B82E8090FC029090FD02A40160912B
:104A8000FA028091F9020E946F12482E882309F4DD
:104A900081C1F801C380D480F090FB02C60188195F
:104AA00099094C01FF2009F426C15080618060E023
:104AB000C5010E94C9130E94D7047090FE02881697
:104AC000990608F0D0C04091FC025091FD02B090D0
:104AD000F902A090FA02872D807F6A2D09F07CC030
:104AE0008B2D0E946F12FE2C8823D9F0F801818152
:104AF0008A1117C080818B1114C0E11012C0872D5C
:104B00008F7080618093FE0289EF92E00E943F1FC8
:104B10008091FE02F80185838F2D6196E0E10C946F
:104B2000F22EA601662D852D0E946F12D82E81E0EF
:104B30008E25D11001C080E080FF05C04E2D662D6E
:104B4000852D0E944F1281E08E25D11001C080E09A
:104B5000F82FF170DF2E80FF35C04E2D662D852D8C
:104B60000E944F12C82E81112DC05D866E868D85E4
:104B70009E850E94B912292F22952F70243058F457
:104B80009F70223088F0992399F0F8019581907FE9
:104B900079F4FC2CC1CF2A5F2F70223068F0C80155
:104BA0000E943F1FCD2CF5CF992311F0882389F364
:104BB000805E883070F3F3CF803F58F3815F83309D
:104BC00070F7E7CFEE2009F4A7CF8091FE02816055
:104BD0008093FE02F12CA0CF8B2D0E946F12F82E35
:104BE0008823B1F0F80181818A1112C080818B1174
:104BF0000FC0E1100DC07582C8010E943F1F86E002
:104C0000F801A9EFB2E001900D928A95E1F784CF07
:104C1000C8010E948713882301F1EE20F1F08091F2
:104C2000FE02803270F02091F9023091FA0238874A
:104C30002F831986DB86CA868C87CE0107960E9451
:104C40003F1F86E0F801A9EFB2E001900D928A952E
:104C5000E1F70E94C224F42C5FCFC8010E943F1FDD
:104C6000FF24F39459CF872D807F51F489EF92E090
:104C70000E943F1F86E0F50111928A95E9F7AACFBD
:104C80009090F9028090FA024091FC025091FD024E
:104C9000682D892D0E946F12F82E882399F0F80153
:104CA000818188110FC0808189110CC0E1100AC078
:104CB0007582C8010E943F1F86E0F50111928A9516
:104CC000E9F72ACFC8010E948713882331F2EE202A
:104CD00021F28091FE02803208F4B3CF2091F902D4
:104CE0003091FA023A8329831B82DD82CC828E8343
:104CF000CE010196A4CF60E089EF92E00E94C91333
:104D00000E94D70488169906B8F6EE2009F4A5CFBC
:104D10009090F9028090FA02A090FC02B090FD02FF
:104D2000A501682D892D0E946F12F82E882319F194
:104D3000F801818188111FC0808189111CC0CA18A7
:104D4000DB08F4EBCF16D10408F059CF9091FE02A6
:104D500090FD55CF907F09F452CF8091FE02F8016B
:104D60008583903F09F448CF982F907F905F8F7094
:104D7000892B858341CFC8010E948713811161CFA0
:104D80008091FE0281608093FE02C8010E943F1F55
:104D9000FE2CC2CEEE2009F460CFC8010E9487131A
:104DA000F82E882309F459CF86E0F801A9EFB2E084
:104DB00001900D928A95E1F78091F9029091FA02A3
:104DC0000E94B9120E94C224A7CEA7E1B0E0EBEE88
:104DD000F6E20C94E32E4B8B5C8B6D8B7E8B8F8B72
:104DE0006111109291041A8A198A85E0FE01739666
:104DF000DE011D9601900D928A95E1F786E0FE0195
:104E00003D96DE01179601900D928A95E1F7CE014D
:104E100007960E942525811112C086E0FE01379673
:104E2000DE01119601900D928A95E1F78A859B85A6
:104E3000892B29F08F81988589238F3F81F516E092
:104E400024C096E0929FD001939FB00D1124A050F2
:104E5000BD4FFE01319601900D929A95E1F7809336
:104E6000FF020E947B12EBCF819FC0011124805072
:104E70009D4F0E942525882371F08091300390E09A
:104E80000196877099278093300380913003909129
:104E9000FF028913E9CF6796E3E00C94FF2E20917F
:104EA000FF0230E0C90101968770992740913003D5
:104EB0004817190631F60E947C191092FF021092D1
:104EC000300386E0E9EFF2E0DF011D928A95E9F711
:104ED000B6CFA5E0B0E0EFE6F7E20C94E22E0E9438
:104EE00087068C0180913E0390913F0380179107C4
:104EF000A1F08FEF89838A831B820E9487068160DD
:104F0000782F9D838C8349815A816B818D810E948A
:104F1000E52610933F0300933E032596E4E00C94AE
:104F2000FE2E1F920F920FB60F9211242F933F93D4
:104F30004F935F936F937F938F939F93AF93BF93A1
:104F4000CF93DF93EF93FF93D091E900DF708091CF
:104F5000EC00C82FC17080FDC0E81092E90080917C
:104F6000F000877F8093F00078940E94921910924D
:104F7000E9008091F00088608093F000CD2BCF7025
:104F8000C093E900FF91EF91DF91CF91BF91AF9175
:104F90009F918F917F916F915F914F913F912F9151
:104FA0000F900FBE0F901F9018951F920F920FB683
:104FB0000F9211242F933F934F935F936F937F939F
:104FC0008F939F93AF93BF93EF93FF938091E100F3
:104FD00082FF15C08091E20082FF11C08091E10044
:104FE0008B7F8093E1002091A3042F5F822F62E3E7
:104FF0000E940B2F992309F4C0C02093A304809131
:10500000DA0080FF28C08091D80080FF24C0809102
:10501000DA008E7F8093DA008091D90080FFE3C0B0
:1050200080E189BD82E189BD09B400FEFDCF81E048
:105030008093B10483ED96E00E9435048091A4042E
:10504000811109C00E940E050E94AF058091E20007
:1050500084608093E2008091E10080FF1BC080911A
:10506000E20080FF17C08091E2008E7F8093E20013
:105070008091E20080618093E2008091D80080629C
:105080008093D80019BC85E08093B1048BED96E045
:105090000E9435048091E10084FF2FC08091E200DE
:1050A00084FF2BC080E189BD82E189BD89B5982F3D
:1050B000917080FFFBCF8091D8008F7D8093D800C6
:1050C0008091E1008F7E8093E1008091E2008F7EED
:1050D0008093E2008091E20081608093E200809101
:1050E000B204882309F489C084E08093B1048FED71
:1050F00096E00E9435048091B1048091E10083FF25
:105100002BC08091E20083FF27C08091E100877F60
:105110008093E10082E08093B1041092B204809108
:10512000E1008E7F8093E1008091E2008E7F80938A
:10513000E2008091E20080618093E20042E060E062
:1051400080E00E947D058091F00088608093F000EF
:1051500083EE96E00E943504FF91EF91BF91AF91ED
:105160009F918F917F916F915F914F913F912F917F
:105170000F900FBE0F901F9018951092A30480916E
:10518000A204882309F43BCF8091B1048430C1F498
:105190009091E9009F702091EC00822F817020FD9A
:1051A00080E8892B93E09093E9009091EB0090FFC9
:1051B00004C09091EE0097FD08C08F708093E900C5
:1051C0001092A2041CCF1092F1009091E80095FD7E
:1051D000FACF9091E80090FFF0CF9091E8009E7791
:1051E0009093E800EACF19BC1092B10487ED96E0E5
:1051F0000E9435041092A4042ECF8091E30087FD15
:1052000093E09093B10473CF78941F921FB61F92CE
:1052100011248F939F93AF93BF9380919D0490919E
:105220009E04A0919F04B091A0040196A11DB11D00
:1052300080939D0490939E04A0939F04B093A00438
:10524000BF91AF919F918F911F901FBE1F90189596
:105250001F921FB61F9211248F939F93AF93BF93FA
:1052600080919C04811113C080919D0490919E04B3
:10527000A0919F04B091A0044196A11DB11D8093FF
:105280009D0490939E04A0939F04B093A004BF91AB
:10529000AF919F918F911F901FBE1F901895CDB712
:1052A000DEB72F970FB6F894DEBF0FBECDBF85B720
:1052B000806885BF85B7806885BF84B7877F84BFD6
:1052C0000FB6F894A8958091600088618093600083
:1052D000109260000FBE80E890E00FB6F8948093C3
:1052E0006100909361000FBE88EE94E19093CF022D
:1052F0008093CE020E940E050E94AF058091E200CD
:1053000084608093E20078948091B1048823A1F0B6
:105310001091E9001F709091EC00892F817090FD31
:1053200080E8182B1092E9008091E80083FD0E942C
:1053300092191F701093E90082E084BD93E095BD3F
:105340009AEF97BD80936E0010926E0310926F03D8
:10535000109270031092710355985D988FE891E058
:105360000197F1F700C000000E94D20A80932B0140
:105370000E940E1681110E94722D80912B018111C5
:105380002CC085E0EEE3F1E0DE01179601900D926E
:105390008A95E1F78F818093260188858093270184
:1053A0008985809328018A85809329018B85809344
:1053B0002A0186E0E3E4F1E0DE01119601900D920E
:1053C0008A95E1F7FE013196A0E2B1E0CE010796A1
:1053D00021912D93E817F907D9F780912B0195E0DA
:1053E000811190E090937D0385E0891B80937C037D
:1053F00006E211E05BE2E52E51E0F52ED8018D9139
:105400008D018F3F11F00E940910E016F106B1F7EF
:1054100000E211E0F80181918F018F3F11F00E94AD
:105420000910F1E006321F07A9F78AE0E0E8F3E08F
:10543000DF01282F1D922A95E9F7E2E7F3E0DF016B
:105440001D928A95E9F790E080E00E949E2F873EAA
:105450009E4F11F00E94E01E82E090E00E94962F85
:10546000182F8093E90484E090E00E949E2F90938F
:105470007F0380937E0383E090E00E94962F90E06C
:105480000E9482131092BF048FEF9FEF9093D90474
:105490008093D8049093DB048093DA049093DD0426
:1054A0008093DC049093DF048093DE049093E10406
:1054B0008093E0049093E3048093E2049093E504E6
:1054C0008093E4049093E7048093E604109297039A
:1054D0009093B1038093B0039093B3038093B2038E
:1054E0009093B5038093B4039093B7038093B6036E
:1054F0009093B9038093B8039093BB038093BA034E
:105500009093BD038093BC039093BF038093BE032D
:1055100090E080E00E949E2F873E9E4F71F010FF2A
:1055200008C089E495E09F938F930E94CE040F906A
:105530000F900E94E01E0E942C1781E08093E804E7
:1055400046E050E06CE170E08AEE94E00E94862F25
:105550001092E8048091EA048C7F71F48091E90450
:1055600080FF08C084EF94E09F938F930E94CE0445
:105570000F900F900E942C178091E90480FF89C042
:105580008AED94E09F938F930E94CE048091E9046A
:105590000F900F9080FF7DC08091EA0483701F926E
:1055A0008F938BEB94E09F938F930E94CE04809116
:1055B000E9040F900F900F900F9080FF6AC08091C8
:1055C000EA04869586951F928F938EE994E09F93C7
:1055D0008F930E94CE048091E9040F900F900F905A
:1055E0000F9080FF56C08091EB041F928F9380E84C
:1055F00094E09F938F930E94CE048091E9040F90D2
:105600000F900F900F9080FF44C08091EC041F9288
:105610008F9382E694E09F938F930E94CE048091B3
:10562000E9040F900F900F900F9080FF32C080918F
:10563000ED041F928F9384E494E09F938F930E94D4
:10564000CE048091E9040F900F900F900F9080FF8F
:1056500020C08091EE041F928F9386E294E09F9386
:105660008F930E94CE048091E9040F900F900F90C9
:105670000F9080FF0EC08091EF041F928F9388E0FF
:1056800094E09F938F930E94CE040F900F900F9001
:105690000F900E940E16811102C00E94752D8CE29F
:1056A00091E090939904809398048091B10485309F
:1056B00099F48BE795E00E94350440E4F42E00E174
:1056C00012E18091B104853009F4C0C00E947C19B8
:1056D0000E9431161092C4030E9458173AE8232EF4
:1056E00033E0332EE0E8F3E0FE87ED8724E933E092
:1056F000DF01F10191918D912E173F0709F4EEC062
:105700009817C1F38091E90481FD32C10E940E1601
:105710008F8725EC822E21E0922EE12CAD85BE856F
:10572000DD90BE87AD87F10161901F016D1409F412
:1057300083C06D242401C12C77247394862D872186
:1057400009F46FC0FD2CF720FF85FF2399F0C98273
:10575000EA8281E0F11001C080E08B830E9487061D
:105760008160782F9D838C8349815A816B818D81E3
:105770000E94E526FF2041F0D2018C91F12C8F3F51
:1057800019F08C87FF24F3940F2D10E0809197037C
:10579000800F912F911D09976CF1E8E0AE2EB12C8E
:1057A000A01AB10AB80168567C4FA50188E993E0B8
:1057B0000E94E52FB80160567C4FA50180EA93E076
:1057C0000E94E52FA501440F551FB801660F771FF2
:1057D00060557C4F80EB93E00E94E52FB80168553F
:1057E0007C4FA50188EA93E00E94E52F88E08F199D
:1057F000809397038091970390E0EC85AE2FB0E003
:105800009D01220F331F2F5F3D4FAA0FBB1FBD010C
:105810006E5F7D4F41E0480F9F1508F4DFC0809315
:105820009703C394770CEFEF4E1A5E0AF6E0CF129F
:1058300085CFF1013197D082E39426E0820E911C4E
:105840005AE0E5126BCF0E947B064CC08091B104F8
:10585000843009F431C00E947D168091C403811107
:1058600005C00E94C90D80E00E94FD06F1E0F093A2
:10587000C40310929C0488E190E00FB6F894A895B8
:10588000809360000FBEF092600083B7817F8460D8
:1058900083BF83B7816083BF7894889583B78E7FF9
:1058A00083BF0FB6F894A8958091600088618093BB
:1058B0006000109260000FBE8091B004882309F44C
:1058C00000CF0E945817E0E8F3E0819181119CC05D
:1058D000AAE8B3E0AE17BF07C1F7F3CE981312CF13
:1058E0000E9469270E940E16882389F080919204F5
:1058F000882369F00E9487062091940330919503D4
:10590000821B930B8F3F9F4710F40E946E190E94D9
:105910007D160E943116182F80919603181709F4EE
:10592000C4CE109396030E947B068091E90482FF07
:10593000BCCE80FFBACE84EA95E00E943504809107
:10594000E90480FFB2CE1F921F938FE995E09F93E9
:105950008F930E94CE048091E9040F900F900F90D6
:105960000F9080FFA2CE8DE995E00E9435049DCE78
:105970008EE895E00E943504B0E8CB2EB3E0DB2E34
:1059800010E000E089E8A82E85E0B82E91E8E92E25
:1059900095E0F92E1F930F93BF92AF920E94CE0411
:1059A00086E895E00E943504D6018D916D010E9434
:1059B000B1131F928F93FF92EF920E94CE048FE754
:1059C00095E00E9435040F5F1F4F0FB6F894DEBFBD
:1059D0000FBECDBF0A301105E9F698CE90E0FC016C
:1059E000E956FC4FD9015C915183DB015C915187F1
:1059F000BC85B18B880F991FFC01E956FC4F128EB4
:105A0000118E91E0842F06CF09BD19BD09B400FEA7
:105A1000FDCF8091D8008F7D8093D8008091E000E9
:105A200082608093E0008091E00081FDFCCF0E94C5
:105A30007C1947CE8EE1489B02C08150E1F7489B1C
:105A4000FECF0895589880E28A95F1F7589A089504
:105A5000FC013BE03A95F1F798E020E080E031E08E
:105A600040E14A95F1F7880F489B02C081602327E7
:105A700042E04A95F1F7000040E14A95F1F7915074
:105A800079F790E19A95F1F799B132E03A95F1F70B
:105A9000000040E14A95F1F7917092272081920F22
:105AA00090830895A1E0B0E0E8E5FDE20C94E02EDB
:105AB00019828C017C01E60EF11C0E151F0541F4C4
:105AC00081E09981911180E02196E6E00C94FC2E12
:105AD0000E941A2DCE0101960E94282DF801819373
